:020000041000EA
:1000000000B5324B212058609868022188439860DF
:10001000D860186158612E4B002199600221596106
:100020000121F02299502B49196001219960352056
:1000300000F044F80222904214D00621196600F024
:1000400034F8196E01211966002018661A6600F04E
:100050002CF8196E196E196E052000F02FF8012189
:100060000842F9D1002199601B49196000215960AB
:100070001A491B48016001219960EB211966A021F2
:10008000196600F012F800219960164914480160C1
:100090000121996001BC002800D000471248134993
:1000A000086003C880F30888084703B5996A0420EC
:1000B0000142FBD001200142F8D103BD02B5186610
:1000C0001866FFF7F2FF186E186E02BD00000240BE
:1000D000000000180000070000035F00212200005C
:1000E000F4000018222000A00001001008ED00E03C
:1000F00000000000000000000000000074B24E7A12
:1001000000200420F7010010C3010010C5010010F9
:10011000C1010010C1010010C1010010C101001097
:10012000C1010010C1010010C1010010C701001081
:10013000C1010010C1010010C9010010CB01001065
:10014000CD010010CD010010CD010010CD01001037
:10015000CD010010CD010010CD010010CD01001027
:10016000CD010010CD010010CD010010CD01001017
:10017000CD010010CD010010CD010010CD01001007
:10018000CD010010CD010010CD010010CD010010F7
:10019000CD010010CD010010CD010010CD010010E7
:1001A000CD010010CD010010CD010010CD010010D7
:1001B000CD010010CD010010CD010010CD010010C7
:1001C00000BE00BE00BE00BE00BE00BE00F04BF888
:1001D000103800BEF2EB8871A0290510C029051067
:1001E0003402001090A31AE700202149086006C8D5
:1001F00081F3088810471F48006800282FD10DA4FC
:100200000ECC002902D000F012F8F9E71A491B4A77
:10021000002000E001C19142FCD1194988471949E9
:1002200088471949884700BEFDE701C901C29A42C3
:10023000FBD37047C0290510C0000020003100200A
:10024000005A05100000042000000420005A051088
:1002500000100420001004200000000070470B482C
:1002600000F066FF0047EFF30580C0B27047000062
:1002700008ED00E0000000D00031002048B003206D
:10028000D9380010D96C0010F93900105756000009
:1002900006005250ABB36053B0AE0010060052508F
:1002A000861C0302B8AE0010060052505422A29DD4
:1002B000C0AE001005005250DE65F468005A05100B
:1002C000F8B5C04610B5064C2378002B07D1054B76
:1002D000002B02D0044800E000BF0123237010BDB2
:1002E000283300200000000078AE0010044B10B549
:1002F000002B03D00349044800E000BF10BDC046F6
:10030000000000002C33002078AE001001480421CA
:10031000014B18470027002051110010144A936F19
:100320009B0815D29066D166002905D0FFE7FFE74C
:10033000FFE7516F106F704704B580210906C2179F
:100340005140002800D0C8430AF06EFD002104BDD2
:10035000936F5B08FDD3F0B5946ED56E576F166F33
:10036000FFF7E0FF9466D56657671667F0BD00009B
:10037000000000D0134A936F9B0813D21066516699
:10038000002905D0FFE7FFE7FFE7516F106F7047C7
:1003900004B5002801D00020C0430AF045FD00212B
:1003A00004BDC046936F5B08FDD3F0B5946ED56E67
:1003B000576F166FFFF7E2FF9466D56657671667AB
:1003C000F0BD0000000000D094464E4A926F9208A3
:1003D000624601D230E0C046F0B54A4EB56F6D08B6
:1003E000FCD3346E756E776F366F00F025F8944647
:1003F000444A14665566576716676246F0BDC046A4
:100400009446404A926F9208624601D258E0C04634
:10041000F0B53C4EB56F6D08FCD3346E756E776FDA
:10042000366F00F04DF89446364A146655665767A5
:1004300016676246F0BDC046002B24DB11D00029B0
:100440003EDA00B5C943404200D1013100F038F82E
:10045000C943404200D10131DB43524200D1013354
:1004600000BD002AEBD1002801D1002905D00020D1
:10047000C90FC90701D1C043410800B50AF0C4FC47
:100480000022002300BD00B500290ADBDB435242F5
:1004900000D1013300F014F8C943404200D10131CA
:1004A00000BDC943404200D10131DB43524200D17B
:1004B000013300F005F8DB43524200D1013300BDA7
:1004C000002923D1002B18D1002A0CD0BC460D4F97
:1004D00038667A6600210023FFE7FFE7FFE77A6FBF
:1004E000386F67467047002801D00748010000B503
:1004F0000AF08AFC0022002300BD02000B0000204D
:1005000000217047000000D0FFFFFFFF002B00D04C
:10051000BDE0130C26D1002AE7D080B4104F396615
:100520007A66FFE7FFE730B4040C7B6F396F1B047A
:1005300023433B66FFE7FFE7FFE7C04684B27B6FDC
:100540003D6F1B0423433B66FFE7FFE7C0460023E4
:100550002C042D0C7A6F386F00196941B0BC7047BC
:10056000000000D0F0B594460025140E01D112020F
:100570000835140F01D112010435940F01D19200F6
:100580000235D40F01D152000135D40B0134254F6F
:100590007C66254C3C660E0C93B2FFE7FFE7FFE755
:1005A0003C6F6643360C7703BE467343DF0B5B0438
:1005B000C01AB941130C7343DB18C91ACE0866433D
:1005C000360CB64493B273431F0F1B01C01AB941D6
:1005D000130C73431F0B1B05C01AB941860D8F0204
:1005E0003E436643360C092D24DB520A7243801ABF
:1005F0007703460A6643360C16235B1BDE40DF405A
:10060000BF1964466643821B7046043506330100F9
:10061000D940A840C01900D30131A24206D200231C
:10062000F0BD0000000000D0FFFFFFFF121B0130F3
:10063000F3D3F1E709277F1BFE406446A2B2724361
:10064000801A00D20139220C7243130C1204821A50
:1006500099410B007046043513370100F940A8405A
:10066000801900D30131002B02D1A2420AD2F0BD81
:10067000013000D30131121BFAD2013BF8D1A24262
:1006800000D2F0BD013000D30131121BF7E7F0B505
:100690001C0C00D080E00CB400251C0A04D11B0205
:1006A000160E3343120208351C0B04D11B01160F22
:1006B0003343120104359C0B04D19B00960F334346
:1006C00092000235DC0B02D192185B4101351C000F
:1006D000971864410134464F7C66464C3C660E0CCC
:1006E000FFE7FFE7FFE7C0463C6F6643360C770342
:1006F000BE4697B27743C01B00D20139C01B00D25F
:1007000001399FB27743C91BC91B170C77437E047D
:10071000FF0B801BB941CE086643360C0C2D33DB32
:10072000B644120B1F053A431B0B97B27743C01B0D
:1007300000D201399FB27743C91B170C77433E049F
:100740003F0C801BB941860D8F023E43664329272B
:100750007F1BFE400C3D7746AF40BF1930BCA2B2B4
:10076000ABB272437343801A9941220C7243130C4B
:100770001204801A994102000B000137001BA941A5
:10078000F9D2781E0021F0BD0C277F1BFE40774672
:100790007F0BAF40FF19E0E700245D1C07D0144F2A
:1007A0007D663966FFE7FFE7FFE7FFE73C6F95B23D
:1007B0009EB265436643401BB141150C1E0C654358
:1007C000664336042F0C3E432D04401BB141994231
:1007D00004D202000B0020000021F0BD01D19042A4
:1007E000F7D3801A994101349942F2D3F6E7000019
:1007F000000000D0FFFFFFFF30B5054DAC6F64086F
:10080000FDD3296E6A6E6B6F2C6F1EC030BD000069
:10081000000000D030B5034D1EC829666A666B67BC
:100820002C6730BD000000D048404140484018B41B
:10083000114B5B68FC46019308BD04DF070A0010FA
:1008400018B40D4B1B68FC46019308BD00DF110A6C
:10085000001018B4084BDB68FC46019308BD0CDFA0
:10086000C90C001018B4044B9B68FC46019308BDEA
:1008700008DF6D0B0010000028310020FFB550404C
:100880004240504059404B40594000E0FFB5154FA1
:100890004C00640D03D0BC4204D10C0314D80020DA
:1008A000090D09055C00640D03D0BC4204D11C0392
:1008B0000AD800221B0D1B0501264B4009D44B40D2
:1008C00003D58B4200D18242FFBD9942FCD19042B8
:1008D000FFBD0B43DB1803431343F5D0C94349184D
:1008E000FFBD0000FF07000000B5FFF7CFFF80410C
:1008F00000BDC04600B5FFF7C9FF01D9002000BD0B
:10090000012000BD00B5FFF7B9FF01D9002000BDEF
:10091000012000BD00B5FFF7B1FF804100BD0120FF
:1009200040054A00121804D85A00121801D80020B5
:100930007047012070470020704700000021002808
:1009400005D17047C1174840401AFAD0C90713B5FE
:10095000064B1B6898470CBC441CA2401005120BA8
:100960000349091B09051943114310BD14B00320A5
:100970001F04000010B54C00620D8023D218DB006C
:10098000D21A5B057E2A10DD9E3A13DACC170903D2
:10099000490819435242D140640001341532202ADB
:1009A00005DAD0400843604310BD002010BD084662
:1009B000604310BDC80FC018013810BD18B4044BF7
:1009C0005B6AFC46019308BD24DFF50E00100000B1
:1009D0002831002007B5604601880A0A0230DF2A64
:1009E000FAD1C9B2820804D30288408800041043B7
:1009F00000E00068014A5050039007BD28310020F4
:100A00000FB403BC0CBCF0B50124E407634000E064
:100A1000F0B50C0DCF0F661E3605891B640503D398
:100A2000C943404200D30131640D03D0661CF60A6D
:100A300007D0E41B00207F00791C89078912803CC5
:100A400024031D0DDF0F6E1E36059B1B6D0503D3A2
:100A5000DB43524200D301336D0D03D06E1CF60A06
:100A600007D0ED1B00227F007B1C9B079B12803D63
:100A70002D032F1B661B58D4A446202E46DA2037A0
:100A80001400BC401D00BD40F24033412A43801891
:100A90005941CB0F05D0C943C043002264425041A5
:100AA000514162464D0D28D10D0D07D100281FD0B0
:100AB000241940414941013A0D0DF9D0640006D393
:100AC000013000D30131002C01D140084000013A2F
:100AD0000BD4941CE40A04D112051144DB07194419
:100AE000F0BDD907204B194300E0D9070020F0BD25
:100AF0000029DDD1002CDBD1F0BD0132C607400852
:100B0000CD0728434908002EE1D0D9E73C2E29DA49
:100B1000203E40371400BC4000D00124F240144372
:100B20001A00BB401C43D317ACE7AC46202F08DAB1
:100B300020360400B4400D00B540F8403941284348
:100B4000A5E73C2F0CDA203F40360400B44000D02B
:100B50000124F84004430800B1400C43C117EAE700
:100B600010001900002494E70000F07FF0B50C0D90
:100B7000661E3605891BE60A6405640D02D0651CF5
:100B8000ED0A04D0002001210905803C2403A4467D
:100B90001C0D671E3F05DB1BE70A6405640D02D0D0
:100BA000651CED0A04D0002201231B05803C2403B0
:100BB0007740644497B484B296B27443070C7E4382
:100BC000150C6F4380B26843361802D3012000042D
:100BD0003F183004350C00197D41844688B29AB222
:100BE00050430C0C62431F0C7C438EB27E4392191F
:100BF00002D301263604A4191604170C36186741CF
:100C000001BC81B29AB25143040C62431B0C5C4399
:100C100080B25843121802D3012000042418100493
:100C2000130C401863412D185E410020474106BC5B
:100C300088B293B258430C0C6343120C544389B2EC
:100C400051435B1802D301210904641819041A0CDA
:100C5000091862416D1856410020474118BCF9023D
:100C6000720D1143F0026A0D1043ED020A0D03D11B
:100C70006D1940414941013B124E9B1B7600B34226
:100C80000ED26D0007D30130002671416646354310
:100C900001D1400840001B05C918E4072144F0BDFC
:100CA0000BDA013306D1013004D101314F0D01D0EF
:100CB0004908F2E7E1070020F0BD013631050020C8
:100CC000EBE70000FF030000F0B51C0D671E3F05B9
:100CD000DB1BE70A6405640D02D0661CF60A04D02B
:100CE000002201231B05803C2403D0252D0600266D
:100CF000F6432E661E096E66CE0FF619B4464900FD
:100D00004F0D02D07E1CF60A03D000200021403F88
:100D10003F033E1BB600B444013F7F05C91B490891
:100D20002E6F013676089C02950D25437543ED1311
:100D30007543AD1301356D10F603761B0CB4CC0270
:100D4000450D2C43A2B2B3B25A43270C7B43350C5A
:100D50006F43A4B26C431B1902D3012424043F192E
:100D60001C041D0CA4187D4124196D41009A91B2F8
:100D7000ACB26143170C7C432B0C5F4392B25A43D5
:100D8000A41802D301221204BF182204230C521803
:100D90007B41019C6C431B19520ED9010A4344014B
:100DA000A01A81B2B2B2514303145A43360C7343B2
:100DB00087B27743D617D21900277E4136049B1994
:100DC0001704160C7F185E417316ED18F301002608
:100DD00080337541A90F06D16400690AE8055B0AF2
:100DE000184309D22FE00422944480337541A90AA4
:100DF000A8059B0A184326D3404149412404009A80
:100E0000019B0D005543641B4343E41A95B286B21F
:100E10007543170C7E43030C5F4392B25A43B618D6
:100E200002D301221204BF183204330C52197B4141
:100E300052429C41002C02D4002201305141400812
:100E4000CA071043490802B06246D7079210084B00
:100E5000D218084B9A4203D212058918C919F0BD5D
:100E60000020002A01DC3900F0BD01331905F5E747
:100E7000FD030000FE070000624618CA94460029E0
:100E80001ADAC01861415B463B415C46B4405246A9
:100E9000FA40224344464D4662416B419046994692
:100EA0002B46B3403D41FC401C4352465B46A241A9
:100EB000AB4192469B467047C01AA1414B463B410D
:100EC0004C46B4404246FA40224354465D46624195
:100ED0006B4192469B462B46B3403D41FC401C4330
:100EE00042464B46A241AB4190469946704700208E
:100EF00000217047002200B5203200F004F80800FD
:100F000000BD000000220B15F1D410B5944600F08E
:100F10002FF81414013400DA0021CB17134C2047AA
:100F20006244343A0CD40C2A07DA04009140904011
:100F300052422032D440214310BDD843D94310BD82
:100F4000203207D40C469440524220321141D04006
:100F5000204310BD0800C917203203D4524220326A
:100F6000104110BD1800190010BD0000210F001025
:100F70000A0DCC0F531E1B05C91A520503D3C943D2
:100F8000404200D30131520D03D0531CDB0A07D07D
:100F9000121B00206400611C89078912803A120329
:100FA000014BD21A70470000FF0300004840414047
:100FB0004840064B5B681847044B1B681847034BB7
:100FC000DB681847014B9B68184700002832002057
:100FD000491A002808D1084670470000C10FC90708
:100FE00000D54042002817D0F44603B40B4B1B68D1
:100FF000984706BC81409E384042803107D20B069C
:1010000007D04900490AC005104308436047013032
:10101000F8E7490A8902F5E77047000014B0032099
:1010200041000A0E80231B067E2A0BDD9E3A0BDA56
:10103000C1174002400818435242D04049000131D4
:101040004843704700207047C00FC01801387047F0
:10105000C0420DD300B540004008002100F012F856
:10106000002801D4404200BD8020000600BD0000E1
:10107000034BDB69FC4618471CDFBD100010000065
:1010800028320020014B5B6A1847000028320020FC
:1010900007B5604601880A0A0230DF2AFAD1C9B2D0
:1010A000820804D3028840880004104300E00068EE
:1010B000014A5050039007BD283200200021C2157C
:1010C0008032803201D0024A104700207047000071
:1010D000CD2A000001480421014B18475827002061
:1010E00051110010014B1B681847000058270020C1
:1010F000014B5B68184700005827002051434343C9
:10110000C9188C46110C83B24B4310B4040C6143D4
:1011100092B280B2504362431C041B0C001910BCF5
:1011200059411304120CC01851416144704700002A
:10113000142310B50100188804331B88984710BD8C
:10114000162310B50100188802331B88984710BD7C
:10115000F8B54746CE4680B50F1E19D014239946E0
:10116000043304000025012698464B461888434660
:1011700021681B88984701C4431E984101354042AD
:101180000640AF42F1D13000C0BCB946B046F8BD10
:101190000126F8E7EFF3108072B6034A1368002BBC
:1011A000FCD0BFF35F8F70472C0100D0BFF35F8F7F
:1011B0000022024B1A6080F3108870472C0100D087
:1011C000F8B5CE464746914680B5EFF3108C72B61F
:1011D000104D2B68002BFCD0BFF35F8FCB08C45C95
:1011E000C7180720260001230840C6401A003240D5
:1011F00033420BD1834023433B70BFF35F8F2A60A0
:101200008CF31088C0BCB946B046F8BD484602F021
:10121000F5FBC0462C0100D0F8B54746CE468846BF
:1012200080B5EFF3108C72B6214D2C68002CFCD0E9
:10123000BFF35F8F9A422DD8D408055D07190724A4
:101240002E001440E640F1071ED5072189460639D5
:1012500008E0D408055D07194C462E001440E6400E
:10126000314211D001329342F3D201204042BFF308
:101270005F8F00220E4B1A608CF31088002811DB60
:10128000C0BCB946B046F8BD0123A3401D431000C1
:101290003D70ECE7BFF35F8F00232B608CF3108869
:1012A000012040424346002BEAD0089802F0A6FBFA
:1012B0002C0100D0F0B54F464646D646C0B51700C3
:1012C000089A050088469A4265D8190E180200232C
:1012D000FFF796F8314B6C009C466419A4006444F7
:1012E00063688146984200D960602B1FDBB29A4642
:1012F000012B2CD9C0238022294EAD009B017159AE
:10130000234312011A60002905D07069FFF732F8F3
:1013100001300138FDD122687F017A40E027802327
:10132000174052465B0123431F60012A26D98023C0
:1013300080229B01234312011A604B460120636007
:10134000089B7351E0BCBA46B146A846F0BD43467F
:10135000012BCFD1C02303229B0123431A60023A01
:10136000A3681A42FCD0E02322687F0157401F4047
:1013700080235B0123430A4E1F60AD004246216873
:10138000514003220A401A60012243469A40A36852
:101390001A42FCD0CBE70020D4E7C04600800040D2
:1013A00010A9032030B50C2083B003F001FC00F03D
:1013B00091FF00280ED09A4B9A4A1A605A609A60A0
:1013C000DA601A615A619A61DA611A62964A5A625F
:1013D00003B030BD954CA06703F0F2FB0122944BA3
:1013E0001A60636C012BFCD10322924B1A608F4A66
:1013F000936B012BFCD1C0228F4B92011A608F4B53
:101400008F491A6010008B689843031EFAD102249A
:1014100001218C4A8C480633009400F063FF0523B9
:101420008A4A01218A48009400F05CFF894B5A687F
:10143000FF2A02D8802252005A608022784C7D4BCD
:1014400021691201834D1A60002905D06069FEF7F9
:1014500091FF01300138FDD1E0217E4B02201A6856
:101460001140802252012A4311601968484003212B
:101470000140116004219A681142FCD08022802131
:1014800092012A4309011160802252005A60724B76
:101490002361724B5968FF2900D85A600321644ABE
:1014A0006E4B116002399A681142FCD0E0201A6834
:1014B0001040802252011A431060186848400321EE
:1014C00001400220116065498A681042FCD08022E8
:1014D00092011343802212011A608022604B520055
:1014E0004A6063615F4B5968FF2900D85A608022C7
:1014F0005D4BE16912015B4D1A60002905D06069FE
:10150000FEF738FF01300138FDD1E02255490B6864
:101510001A4080235B012B431A60802380229B01A9
:101520002B4312011A6080223E4B52004A60E36155
:101530004E4B5968FF2900D85A6080224C4B216AD3
:1015400012014A4D1A60002905D06069FEF712FFAA
:1015500001300138FDD1E02244490B681A40802354
:101560005B012B431A60802380229B012B431201D5
:101570001A60802380225B004B602A4BD2022362D8
:101580003C4B5968914200D25A6080223A4B616AC2
:101590001201384D1A60002905D06069FEF7EAFE95
:1015A00001300138FDD1E02232490B681A40802316
:1015B0005B012B431A60802380229B012B43120185
:1015C0001A608023DB024B60174B63622B4B5A6817
:1015D000FF2A02D8802252005A608022284BA1693B
:1015E0001201264D1A60002905D06069FEF7C2FE7F
:1015F00001300138FDD1E02220490B681A408023D8
:101600005B012B431A60802380229B012B43120134
:101610001A6080235B004B60114BA361D8E6C04683
:1016200010A90320006CDC021BB700000080004002
:101630003CB0004030B0004000E0004000F000400E
:1016400000C00040002F68590080024000389C1CF8
:1016500000C0024030800040001BB7003C800040CA
:10166000405973075480004054B0004060800040EF
:1016700060B000406C8000406CB00040488000408A
:1016800048B00040014B8000C058704710A90320AB
:1016900010B50400012002F03BFD0100200000F025
:1016A000AFFABFF35F8F10BD132370B51D78012D06
:1016B00010D00BDD1948FFF743FD194C01008022C3
:1016C0002000FFF715FD022D01D070BD144C154B05
:1016D000A364FAE7134B124C23606360A360E360DA
:1016E00023616361A361E36123626362A362E362D6
:1016F00023636363A363E36323646364A364E364B6
:1017000023656365A365E36523666366A366E36695
:1017100023676367A367E367A364D6E753440000C6
:1017200028310020D509001030B5002589B004000B
:101730000922002101A80095FFF7D4FC092200210D
:1017400005A80495FFF7CEFC4B236A466846137044
:1017500004A909F081FB1521082220006944FFF744
:10176000C7FC09B030BDC046132310B512481C7821
:10177000FFF7E6FC0100012C0AD003DD80220F48B0
:10178000FFF7B6FC0E48FFF7D3FC0E4B186010BDF8
:101790000A4C54222000FFF7ABFC0B4B6365A3659A
:1017A000E36523666366A366E36623676367A367EF
:1017B000E3672362E361E5E7534600002832002037
:1017C0004C33000014B0032091100010094A83002C
:1017D00094464022634410B51C68C0006240C02497
:1017E00014408022520113431C60034B9C4660440A
:1017F000416010BD04C00140004001400A4B800020
:101800009C4604236044002901D008210C23002AAF
:1018100000D10B00026853400C221A4080235B0168
:10182000184302607047C04604C00140074BC00027
:101830009C466044036809025940C0239B0019403C
:1018400080235B01184301607047C046044001409B
:101850000123D0228340120693629361094A8300D8
:101860009446402263441968C0004A40C021114098
:101870008022520113431960034B9C4605236044A8
:101880004360704704C00140004001400123834091
:10189000002904D0034A1360034A13607047034AC7
:1018A0001360FBE780E200E000E100E080E100E09F
:1018B00001238340014A13607047C04600E200E004
:1018C000024B10309B688000C058704700ED00E06C
:1018D00070B50D00EFF3108672B60F4A1368002B37
:1018E000FCD0BFF35F8F0D4B10309B6884001B59F9
:1018F0000B4A934203D09D4201D002F097F8074B68
:101900009B681D51BFF35F8FBFF35F8F0022024BB7
:101910001A6086F3108870BD240100D000ED00E04D
:10192000CD010010F0B5DE4657464E464546E0B5BF
:101930000C0083B0EFF3108A72B65E4A1368002B76
:10194000FCD0BFF35F8F1022914681444A465A4B28
:1019500096009B689D59594B98469D4205D0A542DB
:1019600016D0574FEB1B2F2B14D9534B9B689D510F
:10197000BFF35F8FBFF35F8F00224E4B1A608AF375
:10198000108803B0F0BCBB46B246A946A046F0BDE5
:101990001D00EAE7012383409B465A46494B1B68DA
:1019A0001A4000925A46484B1A60BFF35F8FFEF709
:1019B0005AFC0190002803D0814501D002F036F88E
:1019C0000123290099438B68A34268D00A0007E0ED
:1019D00043001B189B00FB189868A04211D01A0006
:1019E000062010560028F3DA009B002B05D05A463B
:1019F000364B1A60334B1A60B7E75A46324B1A60BF
:101A0000B3E706201856002821DB42001118890090
:101A10007C188846A1689960E179D97106216156E0
:101A2000997100292BDBA488F91A64052415444414
:101A30000919E0240905490D24022143998012184F
:101A4000234B9200BF181A781870BA71CCE701982E
:101A5000002817D1FF3090711E4890801C4AC91B86
:101A60001078891098718B005B1818011B181802E8
:101A70001B1818041B185B005B181370B4E7BD211A
:101A80000902DBE7144A1549D21A083A5002400D00
:101A900001439980124952080A43DA80A4E70620DC
:101AA00008560B000028B0DA019A002AEAD1454610
:101AB000D4E7C046240100D000ED00E0CD010010C5
:101AC0001027002000E100E080E100E080E200E07B
:101AD00046B0032000BDFFFF4A27002000F0FFFFB3
:101AE00000F8FFFF032310B50400074A184094468E
:101AF000C0009C43FC3383406444226881409A4385
:101B000013000B43236010BD00E400E070B5012515
:101B100004000543FEF7A7FBEFF3108C72B6244ACE
:101B20001368002BFCD0BFF35F8F224E8000A11BF7
:101B300089108A0052181301D2181302D218130404
:101B4000D3181D4A5B005B1891680958A9421CD044
:101B50000622B2569A421CD01222B256934222D08A
:101B60001E22B256934220D02A22B25603219A4214
:101B700010D0124A11781370A171BFF35F8F002249
:101B80000B4B1A608CF3108870BD92680C49115091
:101B9000EFE700214A005218FF219200B21891711C
:101BA00008499180E5E70121F4E70221F2E7C04608
:101BB000240100D01027002000ED00E046B00320F3
:101BC000CD01001000BDFFFFF0B500220324FF2768
:101BD000802620003D00094B11009C461040C000AB
:101BE0008540A14361440B680132AB433500854019
:101BF0002B430B60202AECD1F0BDC04600E400E08E
:101C0000024B9C46614489000160704740000034EB
:101C100003BDC04610B50400FFF7D6FFA04710BDB6
:101C200030B5224A224B87B09A4201D20122524259
:101C30001300204900245050043152501E4A1F49BD
:101C4000002099501E4A0021926800900191039251
:101C5000184A01219446634404931A4B00250593C6
:101C6000D02302911B060230002C14D01A6D1042B2
:101C7000FCD05C6540BF1A6D114203D120BF1A6DC4
:101C80001142FBD09A6DA2420AD000256C46AA00F0
:101C9000A458E9E79A6D1A6D1142FBD140BFE5E700
:101CA0000135052DF2D907B030BDC046000804202B
:101CB00000000420F4070000FC070000151C0010C1
:101CC00000ED00E0111C001010B5040002F014FA41
:101CD00001002000FFF794FFFF232371BFF35F8F04
:101CE00010BDC04670B5050014001600002915D0BF
:101CF0000C00002A12D080686B6898472968002879
:101D00000ED073009B196200033B1219CB18033AE3
:101D10009C7088188A5C002A15D10670200070BD5E
:101D200063001B197200033B9219CB18033A9E7093
:101D300088188A5C002A02D104703400EEE75A70D9
:101D400004703400EAE75A700670E7E7F0B5C6465B
:101D500005000F0000B510210120160000F0ACF9BD
:101D6000EBB204000373032147602800984600F09B
:101D7000A3F9002363730133A3734346FF21E37385
:101D8000FE232060A66029402B4206D0421CFD3B6A
:101D90000133137003328B42FAD34B0059180023DE
:101DA000401803384370200080BCB846F0BDC046E0
:101DB000F8B5CE46474606000C0080B5002907D08E
:101DC0004D0003686D18033D5A195778002F04D150
:101DD0002000C0BCB946B046F8BD7900C919033926
:101DE0008846434459788946002159705170736878
:101DF0003A002100806898473368002814D0424692
:101E00009A18947059195B5D002B00D053700F70B5
:101E1000270049463000FFF7CBFF390002003000B1
:101E2000FFF760FF0400D3E7424641465D19AF70FB
:101E30009A185B5C002B00D06B701470E9E7C04609
:101E4000F0B557464546DE464E46E0B50D006B0000
:101E500001685B19DF1E0400C85D83B00192CA19D6
:101E600000284CD043001B18033BCB185E78B446C7
:101E7000002E16D1019E002E3ED1E67B002E04D00E
:101E800073009B19CB18033B5D70E57300282FD1BD
:101E90000023537003B0F0BCBB46B246A946A0462F
:101EA000F0BD72006244033A89184A7890460022D5
:101EB0004A7091465A70010032002000FFF712FF6D
:101EC00043468246002B07D05B0021684344033B16
:101ED000CB185A78002A16D1424651462000FFF707
:101EE00001FF2168019BCA19002BC6D00028CFD062
:101EF00043001B18033BCB1800219970C8E7019BD6
:101F0000002BC5D1B9E7500080180338091848786C
:101F1000834648464870587041462000FFF7E2FE6D
:101F2000594680462000FFF743FF4146020020004B
:101F3000FFF7D8FE8046CFE7F0B557464546DE4668
:101F40004E46E0B583B00191457B04006B0000680C
:101F50005B19DF1EC15DC21900294ED04B005B1812
:101F6000033BC3185E78B446002E18D1019E002EA4
:101F700040D1E67B002E04D073009B19C318033BAD
:101F80005D70E573002931D100232800537061731F
:101F900003B0F0BCBB46B246A946A046F0BD7200F5
:101FA0006244033A8018427890460022427091467B
:101FB0005A7020003200FFF795FE43468246002B00
:101FC00007D05B0021684344033BCB185A78002AB2
:101FD00017D1424651462000FFF784FE019B0100C5
:101FE0002068C219002BC4D00029CDD04B005B184B
:101FF000033BC31800209870C6E7019B002BC3D198
:10200000B7E75000801803380918487883464846D7
:102010004870587041462000FFF764FE59468046DC
:102020002000FFF7C5FE414602002000FFF75AFEE0
:102030008046CEE770B5040000292CD0437B8B424C
:102040002ED0056848004018033828188278002AE6
:1020500021D053009B18033BEA5CEE188A4202D160
:102060001BE0002A08D053009B18033BEB185A785A
:102070008A42F6D142785A7000230022837043705E
:102080002000FFF7DDFE617B02002000FFF72AFE43
:102090006073012000E0002070BD43783370EBE7EF
:1020A00000221900FFF7CCFE60730120F4E7C04660
:1020B00010B508F04DFA10BD10B508F0E9F910BDE3
:1020C000F0B5D6464F4646468846C0B505240600BC
:1020D000FFF760F843461F791C57284B8146F018DC
:1020E00043425841264B9A4683009C4653466246DB
:1020F000985801222023BA40DB1B013A002C32DB26
:102100009C422DDCA2401500104229D1002F1AD08C
:1021100043465A7819781202114342469B78D27886
:102120001B040B4312061A439046002241465300FB
:10213000C95A4B0B00D10919131912339B000132F4
:1021400099519742F2D85346624605439D504846FE
:10215000FFF72CF82000E0BCBA46B146A846F0BD17
:10216000084801F04BFC002B02DAF9E7013BF7D3FA
:1021700015009D401C000542F8D1C7E70000D0AF14
:10218000F4A70320F0AE001010B50400FFF702F82A
:10219000094B0021E3185A425341084A9B009950C9
:1021A00000231A001232920013510133202BF8D170
:1021B000FEF7FCFF10BDC0460000D0AFF4A703201F
:1021C000F0B54E464546DE4657468A464900E0B5DC
:1021D0000D0080465544ED0045448946290009AC70
:1021E0002678DC31741EA64108687442844614487F
:1021F0001F26834626405E44052B0CD9A0201F27AE
:102200004005D835540104430532053B0C603A4083
:102210002E60052BF6D849465144C900414452016D
:102220009B0613430A000800DC3213606346D83073
:1022300006601360F0BCBB46B246A946A046F0BD9E
:1022400080E00000F0B501258D400468AC434D00EE
:1022500004606C18E40004192600C836002B2AD04C
:102260001F68DC3437605F6877609F68DB68B76041
:1022700023606D18EB001D008024D03545196401E2
:102280002C4380252D0625602560114C0D1D8C40AA
:10229000846001242700AF403D0008318C401F219D
:1022A00006680A403543056005682C430460C01881
:1022B000D8300260F0BD80277F023760F8277F02A8
:1022C0007760C027DC343F03B7602360D1E7C046A6
:1022D00001010101024B18688007C00F7047C0461A
:1022E00000C00640F0B5C64600B51E0006AB1F781C
:1022F00001235B42436000230400836001600C20E3
:102300009046FEF737F84101091A8D01691AC90094
:10231000091889014046FEF72DF8C021231D8901C7
:1023200019432123A0600B602268002AFCDA0823ED
:102330003F0336043E43E6600B6080BCB846F0BD08
:102340007047C046F8B557464E464546DE46E0B5AE
:1023500099460A9B07009A460D9B884693461500AE
:102360000B9E9B0710D10C9B9E420DD29D1B14000F
:102370000E005D4422004B46013431002020B84756
:10238000A542F7D1B0460B9E002E27D044467519C2
:102390005346AA1B013E985D21004B46B847002ECC
:1023A000F6D123002C0098460D9B9B070FD55B466A
:1023B000E51A0C9BAB420AD94646984622004B468A
:1023C000310020200135B8470134A845F6D8200057
:1023D000F0BCBB46B246A946A046F8BD2C00E3E7D8
:1023E000F0B54F464646D646C0B584B098460EABCB
:1023F0001B78129F994694460D9C109B119EBA071C
:1024000025D4002E4BD19C4200D3BFE001223A409C
:1024100092461F2C00D9B8E00C9A551E302201E0DC
:10242000202C03D001342A55A342F9D85246002A61
:102430000DD0A6420BD9202C44D00C9A551E302228
:1024400001E0202C3ED001342A55B442F9D1FA06DD
:102450004DD57A053FD4002C39D10F9B102B00D1DC
:1024600079E00F9B022B00D18AE030230C9A0124E3
:1024700013704B46002B3FD02D230C9A135501347B
:102480000C9B624600930397434602960194FFF724
:1024900059FF04B0E0BCBA46B146A846F0BD0122DF
:1024A00015003D40AA463A422FD04A46002A02D1A2
:1024B0000C323A4200D0013E9C42BAD21F2CABD91A
:1024C000202E27D92024FA06DAD57A0503D4A34290
:1024D0002DD0A6422BD00F9B102B32D0022B20D018
:1024E000202CCDD030220C9B1B191A700134202CCB
:1024F000C6D04B46002BBFD17B070DD43B07BFD5C1
:1025000020230C9A13550134BAE79C429FD21F2C0A
:1025100000D881E720249AE72B230C9A1355013425
:10252000AEE7202CACD00C9B1B1901343AE0631EA3
:10253000012C92D00F9A102A2AD0022A2FD01C00E8
:10254000D0E7BB060ED4202C9AD00C9B1A1901346C
:1025500078231370C4E7BB060DD478230C9A0124AA
:102560001370BFE7202C00D18AE758220C9B1B195F
:102570001A700134B4E758230C9A01241370B1E7A0
:102580000C9A603301241370ACE7202400265EE728
:10259000023CBA06E9D40C9A12191C00D8E70C9A2E
:1025A0009246534462221A709AE7C04610B500283A
:1025B00000D110BD01F048FBFBE7C0460B0010B591
:1025C000002802D049681B68984710BDF0B5DE4668
:1025D00057464E464546E0B59BB09A46249B8B46EF
:1025E0009946259B0B9098460C9243464A4648468E
:1025F0004146FEF794F9002800D094E101224846B4
:102600004146E04B5242FEF785F9002800D08AE1AE
:10261000012248464146DC4B5242FEF765F900284C
:1026200000D080E10022002348464146FEF75CF9D5
:10263000002800D09BE14A4643460A920993802332
:10264000289ADB001A401192289A1A4201D10623D7
:102650002693CE4B099F9C467800400D6044FEF7C0
:1026600071F9CB4ACB4BFEF7FDF8CB4ACB4BFEF7CB
:10267000E7F83B03CA4A0A9E1B0B1A4304000D00ED
:1026800030001100C74B0022FEF7D1F8C64AC74BF5
:10269000FEF7E8F802000B0020002900FEF7D0F852
:1026A000FEF768F90D90FEF74DF9C14AC14B0400E1
:1026B0000D00FEF7D7F80022BF4BFEF7C1F8FEF77A
:1026C00059F9BE4A0600BE4B20002900FEF7CAF8A1
:1026D000040030000D001096FEF734F9B94ABA4BE9
:1026E000FEF7C0F802000B0020002900FEF79FF85B
:1026F00002000B0006000F00FEF7B4F832000400E1
:102700000D003B0030003900FEF79AF800220E90D1
:102710000F91AE4B20002900FEF79BF80022AC4B36
:10272000FEF78EF802000B0020002900FEF791F85A
:102730000022A84BFEF784F802000B0020002900BD
:10274000FEF787F80D008021040032003B000020D6
:10275000C905FEF76CF802000B0020002900FEF707
:102760006FF802000B000E980F99FEF772F8002226
:102770008B4BFEF765F8984B109C9C4664440022F6
:102780002305FEF76FF806000F0002000B000A9801
:102790000999FEF7A9F800280AD00D9B3000013BEB
:1027A00039000D9300228A4BFEF753F806000F0004
:1027B0000D9DC6242B0063339C42A441289B644298
:1027C00004341B051FD5854A854B0A980999FEF7E5
:1027D00099F8002800D1BFE00022824B0A9809999D
:1027E000FEF782F8002800D1B6E0269B9D4200DA71
:1027F000C4E0002326938023289ADB001A43002399
:10280000002428920D93279B0025A34200D91D1B6D
:102810000223289A1A401092289A134203D0634246
:1028200063415B421D400D9B002B07D00A9809991C
:1028300032003B00FEF70DF80A90099100220023B8
:1028400048464146FEF750F8002805D08020000693
:102850008446099961440991289A634B0B9E134061
:102860000493269B0A9A0293099B03950092019375
:102870005946534630000C9A00F0B8F80500002C79
:1028800062D0289B2A0098061F23C01798436B1C10
:102890009846594653466530B0470D9B0026DA17D7
:1028A0009D18DB0F99465540013C01E0202E13D0C6
:1028B0000AAA94461F23280063440A2101369F195F
:1028C000FDF758FD3031397028000A21FDF752FD1F
:1028D0002F000500092FE9D8052306930023049350
:1028E0000A3303934B460B9F029312AB009342466D
:1028F00053465946380005940196FFF771FD109B29
:102900000500002B20D00C9BC41A279BA3421BD987
:102910001E002A005346594620200134B84701358D
:10292000A642F6D810E0289B4A460493279B5946B6
:102930000393269B0B9802934346009201935346C0
:102940000C9A00F053F8050028001BB0F0BCBB4601
:10295000B246A946A046F0BD269B002B00D152E707
:10296000119B5A1E9341269AD31A26934BE74B4646
:102970000A9380231B064344099360E6581B431EB9
:10298000269338E7FFFFEF7FFFFFEFFF01FCFFFF1C
:10299000FB799F501344D33FB3C8608B288AC63F4E
:1029A0000000F03F0000F83F61436F63A787D23F0C
:1029B00071A379094F930A400000E03F1655B5BB5B
:1029C000B16B0240EF39FAFE422EE63F00002C4088
:1029D0000000244000001840FF0300002D431CEBC2
:1029E000E2361A3F80842E41FFF7FFFFF0B54E46D6
:1029F000DE4657464546E0B597B09946209E219F52
:102A0000229B8346984607910C923B00320030008F
:102A10003900FDF784FF002800D0A9E10122300031
:102A20003900CA4B5242FDF75FFF002800D0E1E0B9
:102A3000012230003900C64B5242FDF76BFF0028DF
:102A400000D0B7E0002230003900C24BFDF762FF32
:102A5000002800D099E0002230003900BE4BFDF77D
:102A600043FF002800D090E000220023300039000E
:102A7000FDF73AFF002800D0B1E000230D93249B1E
:102A80005B0501D40623984608AB9C461722002418
:102A900030234146624404E0013413550139202CAF
:102AA00001D00929F8D8884630003900FDF762FFC7
:102AB0004346DA00A94B05009B181A685B68089228
:102AC0000993FDF73FFF02000B0030003900FDF7CE
:102AD000AEFE089A099BFDF7C5FE0A900B91FDF723
:102AE0006DFF8246FDF72AFF02000B000A980B9942
:102AF000FDF79DFE00229A4B0A900B91FDF70AFF0D
:102B0000002800D1C0E001239C46E2445046FDF776
:102B100015FF02000B0008980999FDF7EBFE00284D
:102B200002D000239A4601354346002B6AD008ABF9
:102B300017269C4608956644554614E001235B42DF
:102B400043440A2128009A46FDF714FC0134303131
:102B50003719397028000A21FDF70CFC092D00D81F
:102B6000D0E0D0460500202CE8D10EAB98460323D8
:102B7000249A1340012B00D196E02023249A01933C
:102B80000392239A434602921EE0249B58460493E4
:102B9000239B00960197039343460C9A029307994F
:102BA0004B46FFF713FD17B0F0BCBB46B246A94633
:102BB000A046F0BD249B5B070ED40322694B2499E9
:102BC0000192039123990291009358464B460C9A27
:102BD0000799FFF7B7FBE6E70422634BEFE73B00FB
:102BE000320000200021FDF722FE012306000F0025
:102BF0000D9344E7249B0393239B029304230193A7
:102C00005A4BE1E72800FDF79DFE02000B00300063
:102C10003900FDF70CFE524B002206000F00FDF7B5
:102C200063FE0EAB984600280AD10022300039001E
:102C30004B4BFDF76FFE002802D1EB0700D50135A5
:102C4000202C94D008AA94461723280063440A2114
:102C500001341E19FDF762FB3031280031700A2162
:102C6000FDF75CFB051EEBD10323249A1340012BD7
:102C70001BD0202C00D180E70D9B002B35D02D22BE
:102C80004146631C0A5579E700220A980B99344B98
:102C9000FDF72AFE002800D046E75346002B51D10D
:102CA00001239C46E2443FE72024239B002BE0D0F5
:102CB0000D9B002B03D1249A0C33134202D0239B8B
:102CC000013B2393239BA342D3D908AB9C461722F5
:102CD00030236244202C00D14FE72399013413554F
:102CE0008C42C6D0202CF8D147E7249B5B0724D424
:102CF000249A2300120700D440E7202241460133E2
:102D00000A553BE75746089D202C00D12DE72200AD
:102D100030214046002F09D00132B154202A00D181
:102D200023E7D3431B191B18002BF5D10EAB984694
:102D30002E234146541C8B5482E72B224146631CB0
:102D40000A551BE7DB0700D4EEE6A9E7FFFFEFFF1C
:102D5000FFFFEF7F65CDCD4165CDCDC100B1001046
:102D60000000E03F04AF001008AF001014AF0010E7
:102D7000249B0393239B029303230193004B23E79C
:102D800010AF0010F0B5DE464E4657464546E0B55A
:102D90009FB01C00289B91460993C94AC94B8B469A
:102DA00008901A60002900D118E2002320789A4682
:102DB000002800D11AE226001D005C460AE02A0025
:102DC0006F1C4B46089D2100A8473D000136307816
:102DD000002870D02528F2D110239B46083B9A4644
:102DE000043B9846023B00219C46721C107816005A
:102DF0000300203BDBB2102B03D8B34F9B00FB58E2
:102E00009F460300303B092B32D900230A932A281E
:102E100068D0002398462E283ED00300683BDBB2E2
:102E2000122B1CD8A94A9B00D3589F46012301327C
:102E30001943DBE7634601321943D7E743460132C2
:102E40001943D3E75B4601321943CFE753460132BA
:102E50001943CBE780235B007078194301360300E8
:102E6000253BDBB2532BAAD8994A9B00D3589F46E7
:102E700000270300B800C01901364000C01833789D
:102E800030381A00303A0700092AF3D90A9018009E
:102E9000002398462E28C0D180237078DB00194388
:102EA0000300303B721C092B00D8A1E12A2800D175
:102EB000B2E11600B1E7A346AA462C00D14503D8DB
:102EC00001235B424B449A464B46524659460020EA
:102ED000089DA84720001FB0F0BCBB46B246A946DB
:102EE000A046F0BD099B40CB0A96002E03DB50782C
:102EF0000993561C8DE72838014370420A900993C4
:102F00005078561C85E7782800D1DFE1582800D199
:102F10004CE26F2800D14FE3622801D100F030FC71
:102F200010230A009A430B92692801D000F0A9FCF3
:102F30000A230C934B0500D5D0E10B9A8023110096
:102F40009B0019408B461A4200D0A1E28023110059
:102F50005B0019408A461A4200D0B6E313005B06B4
:102F600000D5EDE2130009991B0601D400F076FCB0
:102F700008C91BB2D8171A18424092B20991934659
:102F8000DA0F1292002B09D1802310220B99DB005B
:102F90000B4091430B91002B00D0E4E20B9A61238C
:102FA000920600D541230EA91F228C46DBB2624453
:102FB0000A3B5F461395A34655460C9CB2460D93BB
:102FC00016000AE03033DBB201357355A74200D258
:102FD000EDE2202D00D1EAE2070021003800FDF7E4
:102FE000C9F9CBB20929EDD90D9A94466344DBB2F5
:102FF000EAE780239B007078194301362FE7707849
:10300000682800D1CDE180230136194327E7707885
:103010006C2800D1BFE180235B00194301361EE715
:10302000462800D19BE10722099B04910733934373
:103030000A9A19000392424602920CC9089800921B
:10304000019309912A004B462100FFF7CFFC01367E
:103050000500BCE62A006F1C4B46089D2100252078
:10306000A84701363D00B2E68B0700D4ADE1099BCD
:103070002A009A466B1C9846534601CB21009A467B
:10308000089F4B46C0B2B8470A9B9C466544012B3B
:1030900000D886E2089B4746B04626004C46994633
:1030A0003A002300013731002020C847AF42F7D152
:1030B000A1465346340046460993013687E6C0468A
:1030C000852D0010F4AF03201CAF001060AF00107E
:1030D000ACAF0010099B04CB9B4643460992002BE2
:1030E00000D1C6E013789C46002B00D1BDE34346D7
:1030F000013B099A0133D0180A9F130001E0834273
:1031000003D05A780133002AF9D1099A0A979B1AF9
:103110000B9380230A00DB001A400C92194204D062
:103120000B9B434501D943460B9302231A000A40E7
:103130000D920B4200D187E16046002800D168E182
:103140000C9B002B00D10DE1A844C246099B5746B9
:103150005B1B9846089BB2462A0026004C469946BF
:1031600009E023003100551CC8474346585D00283C
:1031700000D126E12A009742F3D1A1463D00340058
:1031800056460D9B002B00D043E15B460136099368
:103190001DE6099B1A0008CA9246002B48D021223E
:1031A00011438B460EA884461F21614409950022D5
:1031B0000F27A4460D0002E0202A0CD00B003C0093
:1031C0001C4020003730092C00D807380132A854A1
:1031D00019090F2BF0D86446099D32E0DC4B2078AA
:1031E000089300239A46002800D0E4E5002465E611
:1031F000434606000A9F9800C0180132400080191B
:103200001678030030003038303B0928F3D93000FD
:10321000984616000A9700E6099B023604CB9046B2
:10322000D2434046D2171040804609933078F4E5E7
:1032300010220800904311321043834600224905B2
:10324000B0D55B46069308230593434604931023A9
:1032500003930023029316AB019200932A004B467E
:1032600021000898FFF7BCF8534605000136099382
:10327000ADE513789C46002B00D1F7E202235B42B8
:1032800037E7202302009A43472A04D180231B01F9
:10329000194302239843452801D1202319430722CB
:1032A000099B0491073393430A9A190003924246FB
:1032B00002920CC908980092019309912A004B468A
:1032C0002100FFF783F90136050080E510230C93F8
:1032D0000C230A009A430B924B0503D501230B9A4A
:1032E0009A430B92692800D127E6642800D124E68E
:1032F0000B9A802311009B0019408B461A4200D084
:1033000066E1802311005B0019408A461A4200D012
:1033100039E213005B0600D53CE113001B0600D424
:10332000A6E2099B04CB1204120C934609935B4658
:10333000002B00D09AE10B9A1033110099430B91A6
:10334000520500D492E100239A460B9B06930A9BF8
:103350000593434604930C9B039300230CE1202325
:10336000194360E6099B0A9A5B1B98464B469146B7
:103370001F00B2462600089C2A003B003100A047EF
:1033800043460135585D0028F6D14A463400B94617
:1033900056460A92F5E6C0239B00B07819430236E0
:1033A0005DE5C023B0781943023658E50C230A00C6
:1033B0009A4314331A43103B0B920C934B058DD454
:1033C00096E7A14634005646DBE60A9A012A00D861
:1033D00053E26B1E9F18089BB04626004C46994648
:1033E0002A002300013531002020C847BD42F7D113
:1033F000A14634004646099B3A0001CB210098467D
:103400007D1C4B46089FC0B2B8474346013609931E
:10341000DDE40B9B0A9AA8469A4200D8B5E694468A
:103420006544ED1A089B4746B04626004C4699462F
:103430003A002300013731002020C847AF42F7D1BE
:10344000A14634004646A0E60B9A0A99531C9142C5
:1034500000D814E24B199B1A1F00089BB2462600A5
:103460004C4699462A002300013531002020C847E8
:10347000BD42F7D10A9BA14601330B93099B34004F
:103480001B7856469C466046002800D058E67CE6ED
:103490000722099B07339343013294469C446246BA
:1034A0005F6809921A68FB1710931193109811998D
:1034B000030053400E930B007B400F9394460E9AEB
:1034C0000F9B121A8B410E920F93FB0F62461293C1
:1034D00000233A439B463DD00B9A6123920600D5C8
:1034E00041230022DBB20EA90A3B8C4692460D9383
:1034F00043461F3262441395159655460E9E0F9F04
:10350000A24690460C9C14930CE03032D2B2434653
:1035100001355A55BB4500D18AE1202D00D18AE101
:1035200006000F002200002330003900FCF768FF7E
:10353000D2B2092AE9D90D9B9C466244D2B2E6E791
:10354000FF23099904C913401A00099117E5C046E1
:10355000412300100B9A1033110099430B9152052F
:10356000BAD500239A460B9B06930A9B05934346C4
:1035700004930C9B0393129B02935346019316AB47
:103580002A00009321004B460898FEF729FF0136D8
:1035900005001CE4FF22099B02CB11408B460993D6
:1035A000C5E65346454609930136FFF710FC5646DB
:1035B0005C46AA46139DD6E708230C930B910B9902
:1035C000642800D084E60B9B5B0500D586E6B4E456
:1035D0000722099B07339343013294469C44624679
:1035E00009921A685B6810009B4613005A46134301
:1035F00007D10B9A1033110099430B91520500D556
:10360000A1E60B9A6123920600D541230022DBB28A
:103610000EA90A3B8C4692460D9343461F326244E4
:103620005F461295A34655460400B24690460C9E4E
:1036300013930DE03032D2B2434601355A55002380
:10364000BB4200D100E1202D00D100E104000F00B9
:103650003200002320003900FCF7D2FED2B2092A42
:10366000E8D90D9B9C466244D2B2E5E70B9A6123F0
:10367000920600D54123DBB20EA90A3B1F228C46DD
:103680000D93230062445C461295170055469B46F5
:10369000B2460C9E08E03033DBB201357B55B442B4
:1036A0000ED3202D0CD0040031002000FCF762FE68
:1036B000CBB20929EFD90D9A94466344DBB2ECE70B
:1036C00056465C46AA46129D3FE6099B1A0008CA68
:1036D000D91713925A184A409246DA0F1292002BC9
:1036E00008D1802310220B99DB000B4091430B91F2
:1036F000002B2BD10B9A6123920600D541230EAAF1
:103700001F279446DBB20A3B0D9567445D4609933B
:10371000A3465446B2460C9E08E03033DBB2013576
:103720007B55B4420ED3202D0CD004003100200074
:10373000FCF720FECBB20929EFD9099A94466344DD
:10374000DBB2ECE756465C46AB460D9D0B9B2A0070
:1037500006930A9B21000593434604930C9B08980B
:103760000393129B013602935B46019316AB0093C1
:103770004B46FEF735FE139B05000993FFF727FB29
:1037800002230C931AE7099B04CB92461293002A5A
:1037900008D1802310220B99DB000B4091430B9141
:1037A000002B2BD10B9A6123920600D541230EAA40
:1037B0001F279446DBB20A3B0D9567445D4609938B
:1037C000A3465446B2460C9E08E03033DBB20135C6
:1037D0007B55B4420ED3202D0CD0040031002000C4
:1037E000FCF7C8FDCBB20929EFD9099A9446634486
:1037F000DBB2ECE756465C46AB460D9D0B9B2A00C0
:1038000006930A9B21000593434604930C9B08985A
:103810000393002302935B46019316AB00934B4640
:10382000FEF7DEFD129B050009930136FFF7CFFA84
:10383000B44200D871E6149B54460E960F97AA46E0
:103840009846159E139D8EE6A64200D8FBE6139B74
:1038500056469846AA465C46129D76E508C9D81792
:103860001A1842400991FFF78AFB00230B9350E49A
:10387000099B04CB9346099359E52F00BBE50B93B5
:1038800001E6063B0C939AE600B585B00391012151
:1038900002900093034813004A4202A9FFF772FA0C
:1038A00005B000BDBD25001010B5094A030014681D
:1038B00084B0002C08D0012200910648524203A98E
:1038C000A047012004B010BD00F0CCF90020F9E7BA
:1038D000F4AF0320AD250010F8B52B4A2B4B2C4933
:1038E0001A602C4A2C4B1A6014008B689C43FBD145
:1038F0002A4D2B4EB54208D2013E761BB60808CDA4
:10390000984723000134B342F9D1FDF74BFD254A16
:10391000214B1A601E4A9368DB43DB01DC09002B54
:10392000F9D14022204B214D214F9A675A671A67DF
:10393000DA66BD420BD20026013F7F1BFF0828003C
:10394000FEF7C2F9083533000136BB42F7D1194EF4
:10395000194DC022A9683000FDF7CAFBAE6000F027
:10396000BDFBFEF731F900F003FE144D144EB542D5
:1039700008D2013E761BB60808CD984723000134D3
:103980009E42F9D1F8BDC046BFCDFFFF00E0004028
:1039900000C00040FE7F3C0000F00040E830002006
:1039A000F8300020FFFFFF0100F00140E030002070
:1039B000E83000200000002000ED00E0F83000209A
:1039C00000310020094A03001068002805D008498A
:1039D000C3188B4207D21360704706480449C318C6
:1039E00010608B42F7D301204042F5E770A9032015
:1039F0000000042048B0032000BEFDE70FB400B56E
:103A0000084883B000F02EF9049B002B07D005A9CD
:103A100018000191FFF748FF034800F023F900BEAA
:103A2000FDE7C04650B10010D0FD001010B50148B0
:103A3000FFF7E4FF60B10010F0B546464F46D646AA
:103A40008046C0B50E00171E3FDD4B1E9946214B28
:103A50000125002400209A460DE04B461B5D0D3BDE
:103A60005A425341325DDBB20A2A0BD02B0001349B
:103A700001359F421ADD002CEFD14346325D1B7C9D
:103A80000A2AF3D1002BF1D1A04204DA4346211ACD
:103A90001B6830189847434650461B6802219847D8
:103AA000013428002B0001359F42E4DC874204DD0D
:103AB0004346391A1B6830189847F619013E337887
:103AC0000D3B5A42534142461374E0BCBA46B146DC
:103AD000A846F0BD6CB10010F8B5CE4647460D00C3
:103AE0000968060080B5802907D04B1C2B606D1833
:103AF0002E71C0BCB946B046F8BD134B1C68002CF3
:103B00001BD0124B98462B1D994602E0E468002C0E
:103B100013D02768002FF9D043461B68002B01D033
:103B20009C42F3D1637C2A68002B09D020004946CF
:103B3000FFF782FFE468002CEBD101230021D5E7D9
:103B400011004846B847E1E764A903206CA90320A7
:103B5000F0B557464546DE464E46D023E0B51B0637
:103B60001C68354B83B007000D00180001A9904672
:103B70009A4607F061F98146002807D1019B9C42D3
:103B800004D0504607F070F9012399466B1C03D10D
:103B9000380006F0CBFF0500284B1C68002C2FD006
:103BA0000A23274E9B4602E0E468002C28D02268B6
:103BB000002AF9D03368002B01D0A342F4D1637CF2
:103BC000002B27D02A0039002000FFF735FF43469D
:103BD000002BE9D06B465A461A71637C002B1DD02E
:103BE000237C002B23D00121236801A898476B4632
:103BF0001B790D3B5A4253412374E468002CD6D103
:103C00004B46002B0FD103B0F0BCBB46B246A946D1
:103C1000A046F0BD290038009047D8E7012123686D
:103C200001A89847C0E7504607F0E6F8EBE7022105
:103C3000044823689847DAE7E030002064A90320AD
:103C40006CA903206CB1001010B582B06B46040063
:103C50000022D81D01210470FFF77AFF200002B076
:103C600010BDC04670B5040006F060FF01220100DF
:103C700005002000FFF76CFF084B1C68002C06D0E5
:103C80006368002B05D09847E468002CF8D1280021
:103C900070BDE468002CF3D1F9E7C04664A90320A5
:103CA0000D4A1368002B13D0834202D109E09842D9
:103CB00008D01A00DB68002BF9D1002900D0D060B1
:103CC00070471A000029FBD1DB68D360C160F7E7B9
:103CD0000029F5D01060F3E764A90320F0B546464B
:103CE000D6464F46D023C0B51B061F68314BA2B045
:103CF00004000D00180001A9984607F09DF8061E63
:103D000006D1019B9F4203D0404607F0ADF8013633
:103D10008422002101A8FDF7E5F92B0022002648A6
:103D200001A9FFF7B1FD019B0700002B15D1234B23
:103D30001C68002C06D06368002B0CD09847E46800
:103D4000002CF8D1002E2FD1380022B0E0BCBA46AA
:103D5000B146A846F0BDE468EBE7184B1D689A46EB
:103D6000002D25D0164B994602E0ED68002D13D0AA
:103D70002C68002CF9D04B461B68002B01D09D42CB
:103D8000F3D16B7C019A002B0AD0280002A9FFF71F
:103D900053FEED68002DEBD1534601951C68C8E732
:103DA000110002A8A047E0E7404607F025F8CBE75E
:103DB0000195C7E7E0300020D93A001064A903203C
:103DC0006CA903200FB400B583B004A901C9019107
:103DD000FFF784FF03B008BC04B0184710B500F02B
:103DE000C1F810BD70B5184C82B006000D0020005F
:103DF00001A907F021F8002808D1D0231B061B6871
:103E0000019A9A421CD0200007F02EF8002000F002
:103E1000EBFE002807D103256D42200006F0ECFFE1
:103E2000280002B070BD002000F0F8FE0028F2D09B
:103E30002A003100002000F0FFFE051EEBD0ECE769
:103E400003256D42ECE7C04618B00320F0B5DE460E
:103E50004F464646C0B5334B82B081460D00180030
:103E600001A99B4606F0E8FF002808D1D0231B06D5
:103E70001B68019A9A424FD0584606F0F5FF002081
:103E800000F0B2FE00283FD00024002D41DD264E78
:103E900011E04B460020191900F05AFF804601F04E
:103EA000ABFB002000F002FF00F09AFD3060716073
:103EB0004444AC422DDA002000F066FF2F1B0200C4
:103EC000B84200DD3A00002AE3D101F095FB002062
:103ED00000F0ECFE002000F087FE002819D0002042
:103EE00000F052FF0028E4D100F07AFD32687368D8
:103EF0000F00002184460D4812184B419F4208D8FC
:103F0000D7D19445D5D904E000200021064B186094
:103F10005960584606F070FF02B0E0BCBB46B1469F
:103F2000A846F0BD18B003202031002020A10700D2
:103F30001F2010B5FDF7BCFCFA200021800010BD49
:103F400010B5074C0021200006F076FF002800D1B4
:103F500010BD01F051FB200006F04EFFF8E7C0460F
:103F600018B0032070B51E4B84B01B7802F042FDE0
:103F70001F201C49FDF7ACFC01211F20FDF786FC2A
:103F80001948FDF7A1FE00F02FFB060000F028FD08
:103F9000FA2204000D000023920012196B4199428D
:103FA00014D811D001210291002101910F49300054
:103FB000009100F01FFB0400631E9C41E4B2002846
:103FC00008D1200004B070BD9042EBD901225242CA
:103FD000D317E7E701210648FFF762FEF1E7C04685
:103FE000BC290510413F001018B00320313F0010DC
:103FF000682700200048704710B200100048704742
:10400000C4B1001030B5002806D1C1241148124BAC
:10401000A4004380048030BD042819D80F4B8000D1
:10402000C5580C480023811C04E001330A8002318A
:10403000132B0AD0EA5CDCB2002AF6D1C02301348B
:10404000E4B264009B001C43E4E7CA24A400E1E757
:104050000020E0E73CA903200904000024B200107E
:10406000F0B583B006000C001500FEF733F9002808
:1040700001D003B0F0BD164F01223B000121009793
:104080000530FDF717F9EBB2320000930121230050
:104090001048FEF727F9210030006943FCF76AF960
:1040A00004000D4B0022009302210420FDF702F9C9
:1040B00023000022012100940520FDF7FBF83B00BE
:1040C0000222002100970620FDF7F4F8D1E7C04650
:1040D000006CDC0200800240001BB7000021044B92
:1040E000044ABFF35F8F02C39342FAD17047C046C0
:1040F000000100D0800100D0044A1078431CDBB2DC
:10410000172B00D9102313707047C0467C2700205E
:1041100000B5054B83B00100009318221F2303480C
:10412000FDF77AF803B000BD38B200100CA90320E7
:1041300083680B4810B5844661446244090112014A
:104140009A18591854684B6801209C4201D802D033
:104150000020C0B210BD12680B689A42F9D8F7E788
:10416000FFFFFF0F40BF002000217047F8B5DE467B
:1041700057464E464546E0B51F000DAB1B7805007F
:104180009B460C9B1600002B45D03F4A0C9B944647
:10419000DBB2AA689A460C9B2C68634494461B01C8
:1041A0000A9A63449A600B9A1E60DA600C9A5F6008
:1041B00094460C9B00225B006344033B98462368B3
:1041C00043449A705A701A70637B9946002B42D010
:1041D00052461900A06863689847226800282BD0CF
:1041E0004B465B004B44033BD1188C464146484646
:1041F00051188870D35C002B42D15346624613702D
:104200004B4663730C9B994527D0F0BCBB46B24626
:10421000A946A046F8BD0268947B002CF5D0116831
:1042200063008C461B196344033B5B789373002B3C
:1042300000D1D3730C94A8E74346D1184B4650469F
:104240005B004B44033BD31898704046125C002A35
:1042500018D14B460B705346637332003B00287DE8
:1042600000F01EFC041E06D05B46002B03D1514615
:104270002868FDF7DFFE0E9B002BC6D01C70C4E73C
:104280004B70BAE75A70E4E7FFFFFF0FF0B5DE4668
:104290004E46574645460023E0B58DB00A936B4B1A
:1042A0008200D3580B90994600239B464B460793B8
:1042B00000F096FB079C06000F006268EFF3108584
:1042C00072B61368002BFCD022000794BFF35F8FF7
:1042D0002468637B9946002B67D092685C4B9046BC
:1042E0004B441B01984443461A685B681000190050
:1042F000801BB94100295FDD0B9800F0D1FB002342
:104300000026984600279A46079C6368BFF35F8F94
:104310005A461A6085F310885346002B08D10028AE
:10432000C6D10DB0F0BCBB46B246A946A046F0BD12
:104330000A9B414618024B461843D0470890099102
:104340006268EFF3108572B61368002BFCD00794F7
:10435000BFF35F8F0899099A002A48DB114303D005
:10436000079B1B69002B5DD1079B1B68D97B00292C
:1043700007D04A00521819688C4649466244033AED
:1043800051704A46DA734B46079A013BD168CA5CC2
:104390000132CA545B46079A13615368BFF35F8FBB
:1043A0005A461A6085F3108882E700230026984653
:1043B00000279A460020A7E7002901D100289BD1B9
:1043C00001212000FDF7B8FD43461E685F689B6829
:1043D000079A9A464346DB689846D3684B44013BAC
:1043E0001B780A931B020343136100208CE72369A7
:1043F000002BB9D033003C005B1A94411A00230013
:10440000A74219D89F421BD059460491012103911C
:104410004946029141460191514607980091FFF7A4
:10442000A5FEB7E700F0DCFA089A099B06000F002A
:1044300092197B419942E5D901225242D317E3E711
:104440009642E1D901225242D317DDE7FCAF0320A7
:10445000FFFFFF0FF8B557464E46DE4645469146EC
:10446000E0B504009A464268EFF3108872B613680C
:10447000002BFCD0BFF35F8F2668B57B002D48D0A2
:104480006F0033687F19033FD9194B78B373002B42
:1044900000D1F373A268344B94464A46EB181B01D3
:1044A00063441A6052465A60304A9A600022DA60C9
:1044B0008A704A700A70737B9B46002B43D02A0097
:1044C0001900B06873689847326800282FD05B469F
:1044D00058465B005B44D719033BB870D118D35CD6
:1044E000002B3FD15B460D7073735D452CD00026C9
:1044F000E3685B19013B19786368BFF35F8F0022A3
:104500001A6088F310880020002E0AD10802284380
:1045100007E06368BFF35F8F1D6088F31088012098
:104520004042F0BCBB46B246A946A046F8BD5B4639
:104530005B005B44033BD3189D70D119D25D002A08
:104540000ED15B460B7075734A465346207D00F0D2
:10455000A7FA061ECBD029002068FDF76BFDC7E740
:104560005A70EEE77B70BDE7FFFFFF0F654100105B
:1045700070B5184C2368002B00D070BD032000F0EC
:1045800023FA032000F0EEFA1349032000F042FA68
:104590001820FDF78DFD0500FFF7AEFD0F4B2A003B
:1045A0009C46604480000E4968601020FDF7CEFBF9
:1045B000102128601020FDF77FFD0121A860102048
:1045C000FDF77AFD03232B75064BE860DD6025605F
:1045D000D3E7C04638A903208D42001040000034C4
:1045E00031410010FCAF0320014B18687047C046F2
:1045F00038A90320F0B5DE464E4645465746E0B59D
:1046000085B0019310AB1B780600039300239B46F3
:10461000984600927268EFF3108A72B61368002B06
:10462000FCD0BFF35F8F3568AC7B002C00D180E0FD
:1046300067002B683F19033FDB195A78AA73002AD9
:1046400000D1EA73B168554A8C4600980199A218C6
:1046500012016244106051600E9991600F99D1600F
:1046600042469A705A701A706B7B9946002B00D1A3
:104670007DE022001900A8686B6898472A68002826
:1046800069D04B4648465B004B44D719033BB87092
:10469000D118D35C002B00D07CE04B460C706B73C0
:1046A0004C4565D0F3681B19013B18787368BFF35C
:1046B0005F8F42461A608AF310885B46002B08D150
:1046C0000002204305B0F0BCBB46B246A946A04656
:1046D000F0BD039B002B5FD00E9B00200F999847E5
:1046E000030004000D000B4356D000290DDA00989A
:1046F000019902000B00121BAB41994213D821D043
:1047000000920193039B9B4684E700F069F9020045
:104710000B00A4185D4100940195A94203D8F1D182
:1047200000998A42EED901235B42DC170093019481
:10473000E8E77368BFF35F8F1C608AF3108801207D
:104740004042BFE700999142DAD901235B42DC176E
:1047500000930194D6E74B465B004B44033BD318D0
:104760009C70D119D25D002A10D14B460B706C732E
:10477000307D009A019B00F093F98346002800D118
:1047800090E721003068FDF755FC8BE75A704B46E7
:104790000B70ECE77B7080E7002093E7FFFFFF0FD3
:1047A00070B542680400EFF3108572B61368002BF1
:1047B000FCD0BFF35F8F2068CEB2437BB3420AD0F8
:1047C000FF230B405A00D318026894466344033B0E
:1047D0009B78002B13D0E268FF2394460B40634480
:1047E000013B0A0A1978D2B291420ED000206368C8
:1047F000BFF35F8F00221A6085F3108870BD2269B5
:104800008A42F3D100202361F1E73100FDF712FC69
:10481000EDE7C046F8B5040000F0E2F8FA22060021
:104820000F002000002300219200FCF767FC801994
:10483000794104000D008F421AD817D0062676421F
:10484000F71736196F41AF4237D90026002700F01D
:10485000C7F832003B00121A8B41002B16DC002BEC
:1048600028D02900200000F0C5F8F8BD8642E5D91F
:1048700007267642F71700F0B3F832003B00121A11
:104880008B4101246442E517002BE8DD0D4B32001B
:1048900018683B00FFF7DEFD0028E2DB39000A4A1A
:1048A000536A994204D8906A8642DAD99942D8D19B
:1048B00020BFF5E7002AD4D0E8E7AF42C7D1A6422F
:1048C000C3D8C4E738A903200040054070B50E4D99
:1048D00002000B00060028680C00FFF7BBFD011E5C
:1048E00003DD20BF2868FFF75BFF084B0020596AF3
:1048F0008C4203D89B6A0130B34200D370BD641A66
:10490000631E9C41E0B2F9E738A90320004005404E
:10491000F0B5D6464F464646C0B5EFF305833F2275
:10492000134018001038EFF3108C72B6204D2A682F
:10493000002AFCD0BFF35F8F0122110081401D4C83
:10494000884661631C4917000E788A463100C140D1
:104950000F400A4209D1BFF35F8F2F608CF310889C
:10496000E0BCBA46B146A846F0BD14498200646A6C
:1049700051588C420FD3124BD25843469E43534654
:104980001E70BFF35F8F00232B608CF31088002A0A
:10499000E6D09047E4E70B4A9B00904643441A68F0
:1049A0001A60BFF35F8F00232B608CF31088D7E76A
:1049B000280100D00040054047B0032020B003206C
:1049C000FCA70320D03F054010B50100024A034870
:1049D000FCF7F6FB10BDC04654B2001045B00320F2
:1049E000034B596A0A00986A596A8A42FAD1704799
:1049F00000400540064A536A9942FCD807D1044B4F
:104A000002E05A6A914202D19A6A8242F9D370470F
:104A10000040054070B504000D00EFF3108672B63B
:104A20001A4A1368002BFCD0BFF35F8F002D1BD0F8
:104A30002000FCF745FF164981420AD02000FCF710
:104A400047FF01212000FCF721FF0123A340114A69
:104A50001360114BA400E550BFF35F8F00220B4B96
:104A60001A6086F3108870BD0B4BA200D55001224E
:104A7000A2400A4920000B7893430B700449FCF7CD
:104A800051FF00212000FCF701FFE5E7280100D0DD
:104A90001149001038600540FCA7032047B00320EF
:104AA000F0B5CE46474680B52A4C616A0D00A66A2D
:104AB000616AA942FAD18B4207D804D00120C0BC58
:104AC000B946B046F0BDB242F8D9EFF3108972B6DC
:104AD000214C21680029FCD0BFF35F8F0125854060
:104AE0001C4C1E4F6563E9B2884639788C464146B6
:104AF000664631433970011D89000A51184980000A
:104B00004350216A002029420BD0616A0800A66A3E
:104B1000616A8142FAD18B4202D80AD1B24208D9E5
:104B20000020BFF35F8F00220B4B1A6089F31088BF
:104B3000C5E7084B42461D625D636346934301200F
:104B40003B70BFF35F8F0022034B1A6089F310881C
:104B5000B5E7C04600400540280100D047B003201B
:104B600020B00320EFF3108C72B60A490B68002BBB
:104B7000FCD0BFF35F8F01238340074A07481362CD
:104B800002789A430270BFF35F8F00230B608CF3AF
:104B900010887047280100D00040054047B003202E
:104BA00010B50248FCF7C0FD10BDC0460CB0032094
:104BB0008023024A9B000343D36270470080054074
:104BC000AA23064A1B0113602F230549D360054B16
:104BD00019605368002BFCDA7047C0460040024061
:104BE00000B0FA000060024010B5040000F09CFC28
:104BF000002801D1002010BD00F09EFC0028F9D152
:104C000060000419230104481C1B2401041901201D
:104C100023791840EFE7C046C8A3032043001B18C0
:104C200010B51801C01A0001024B1030C01800F076
:104C3000B9FA10BDC8A30320F0B544002018040140
:104C4000241A24012600C646174F1036F61900B55F
:104C5000300092B200F014FB0500300000F0AEFA14
:104C60003F2803D8280080BCB846F0BD3B1900207F
:104C7000D978984601F0C6F90028F3D0300000F04A
:104C80009DFA3F280AD994239B00E2184346D21983
:104C9000D9780020402301F00DFAE3E743460020D5
:104CA000D97801F0E1F9DDE7C8A30320F8B547465C
:104CB000CE4680B547003B181C01E41A2401234B63
:104CC00026009846283646440500300000F06AFA6F
:104CD000002804D10020C0BCB946B046F8BDA146AA
:104CE000C1444B460020997801F08CF90028F1D09E
:104CF000A4239B009C46644444443000402221008D
:104D000000F0BEFA061E16D000F00EFC002812D0ED
:104D100000F012FC00280ED14B461B79DB070AD5A8
:104D20004B46220099780020330001F0C3F9002897
:104D3000D0D03000CFE77D192B015D1B2D014544FC
:104D4000A978002001F090F9C4E7C046C8A3032069
:104D500043001B1870B51C01E41A2401094B2834C8
:104D6000E418050092B2200000F04AFB0600200083
:104D700000F018FA3F2801D8300070BD2800FFF776
:104D800095FFF9E7C8A3032043001B1810B51801CD
:104D9000C01A0001024B2830C01800F00FFA10BDF5
:104DA000C8A30320B42270B51A4C82B000212000A1
:104DB0009200FCF797F9FF236371174B8025E3807E
:104DC000012300262100200023816D000733237377
:104DD0002A0040310096073B103000F0A7F921006F
:104DE000200041312A00FF3101230096283000F0D5
:104DF0009DF990239B00E5182800FCF765FF92239E
:104E00009B006562E5182800FCF75EFFE56302B0D1
:104E100070BDC046C8A3032000C2FFFF10B5074CF9
:104E2000052200212000FCF75DF92000103000F081
:104E300065FB2000283000F061FB10BDC8A30320F3
:104E4000F0B54B79060083B0022B02D18B79022B8F
:104E500003D00025280003B0F0BDCB79062BF8D88D
:104E60002F4FBB78002BF4D18B7809253B700C7841
:104E70000C196378242B0BD1082A02D80FE0AA4220
:104E80000DD32378E418ED186378ADB2242BF6D057
:104E9000052B20D0042B02D163790A2B2ED0214C74
:104EA000200000F08BF93F28D4D92600103E0020C6
:104EB000F17801F0A7F80028CCD0200000F07EF9AE
:104EC0003F2816D990239B00E218F1784023002058
:104ED00001F0F0F8BEE72100300001F08FF8002863
:104EE000B7D0A3787B702378ED18E4186378ADB25F
:104EF000D0E7F178002001F0B7F8ABE70A4B27784C
:104F0000019301330093022202233000E11901F0E2
:104F100041F800289DD00E35ED19ADB2BFE7C0466F
:104F2000C8A30320D8A30320CAA3032060230A78C0
:104F300070B513400024202B0BD10B4A4B790D790F
:104F400010781B022B43984203D14B780134202B5D
:104F500001D0200070BD054B002BFAD00020911D20
:104F600000E000BFF5E7C046C8A303200000000032
:104F700060230A7870B513400024202B11D1144A05
:104F80004B790E7915781B0233439D4209D14B783A
:104F9000212B08D81F2B04D90723063201F0C6F8AD
:104FA0000124200070BD222BFBD1CD788B782D02FF
:104FB0001D43157101F0A2F8064B0124002BF0D01F
:104FC00029006A0800202240214000E000BFE8E7F5
:104FD000C8A3032000000000F0B546464F46D64661
:104FE000C0B54D4E9946F37880460D008B4257D19F
:104FF0004B46002B00D188E0484B002B00D175E0D8
:1050000094239B00F418A2463700CA4410372100AD
:10501000380000F0B3F97379FF2B02D02178994260
:1050200043D001345445F2D13D4B002B04D038001D
:1050300000F0B8F800286BD1380000F0BFF83F2826
:1050400037D8103FBB789D4206D001242000E0BC39
:10505000BA46B146A846F0BD324B002B02D0002024
:1050600000E000BF0020FFF721FE0028EDD12E4D0B
:10507000280000F097F80028E7D14B46002BE4D039
:105080009B06E2D1283D4046A97800F0BBFF041EF4
:10509000DBD0002300224046A97801F00BF8D5E7C9
:1050A000B3788B42D8D00024D0E7002000E000BFC6
:1050B000B7E73C00103C0020E17800F0A3FF002897
:1050C00012D0380000F07AF83F2809D990239B00CD
:1050D000FA1800204023E17800F0ECFFA378B2E753
:1050E0000020E17800F0C0FFA378ACE794239B0098
:1050F000F418A24610363700CA44210038000134A3
:1051000000F03CF95445F8D18EE7103637008BE7B4
:10511000002000E000BF8FE7C8A3032000000000CC
:105120000000000000000000F0A30320F0B5C64618
:1051300000B5140006AA1E001378802205000F0097
:105140009846120294422BD8406900281AD00121B7
:10515000494205F079FE4346AC806400A4B22B724C
:10516000631EAB81002368696442EB812F60EE808F
:105170006C812B82002811D005F03EFE012080BCFE
:10518000B846F0BDAC806400A4B22B72631E6442CA
:10519000E8812960EE80AB816C8128820120EEE7F6
:1051A0000020ECE710B5C489018A0200601A80B2C1
:1051B0008C4202D25389C01A80B210BD10B5C48986
:1051C000018A8388621A92B28C4202D24089121AF2
:1051D00092B2981A80B210BDF8B5040040690E0072
:1051E000002803D00121494205F02EFEE189228AE0
:1051F0008FB28D1A93B2ADB2914202D26289AD1ACA
:10520000ADB2A288A189AA4205D2B81A88422BDC85
:1052100080B215002082002D2ED08B4206D96189E4
:105220005B189BB29A4203D89B1A9BB29A42FBD955
:10523000E288216853433000C918FBF759FF012564
:1052400001200126A189228A93B212188A4210DD18
:1052500062899B18ED18ADB260692582002801D0E3
:1052600005F0CAFD3000F8BD60891018381A80B208
:10527000CFE75D19ADB2EFE700200026E3E7C046B7
:10528000F0B5C646040040698846170000B50028FE
:1052900003D00121494205F0D7FDE089218A82B27D
:1052A000461A8BB2B6B2884202D26189761AB6B279
:1052B000A588A089B54207D2531B83422CDC9BB240
:1052C0002E002382238A9BB2002E2CD03A1CB74298
:1052D00027D896B2834202D961895B189BB29D425E
:1052E00003D85B1B9BB29D42FBD99A193700E1881A
:1052F000AA422CDC0A005943236872439C4640466C
:105300006144FBF7F5FE228AA08993B2D21982424A
:105310000FDC9B199BB210E06389EB18D31A9BB288
:10532000CEE7321CD5E70027228A93B2D2198242F7
:10533000EFDD62899B18F3189BB260692382002815
:1053400001D005F059FD300080BCB846F0BDED1A23
:10535000ADB22A004A435943236840469C46614403
:10536000FBF7C6FEE388721B180068435A432168A6
:105370004044FBF7BDFEA089D6E7C046F8B504005F
:1053800040690E00002803D00121494205F05CFD70
:10539000E289218A95B2531A9BB2914202D962895D
:1053A0009B1A9BB2A2889A4226D0A1892B00A942BF
:1053B00006D26389EB189BB29A4203D89B1A9BB220
:1053C0009A42FBD9E28821685343C8183100FBF7A1
:1053D0008FFEA389AB420AD90135ADB260690127BE
:1053E000E581002801D005F007FD3800F8BD63898C
:1053F000ED180135ADB2F1E7277A002FD5D1F4E7EA
:10540000F8B54746CE46040080B515000F00002AC7
:1054100052D04069002803D00121494205F014FD13
:10542000E689237A208AA188B6B280B2002B38D1CF
:10543000331A9BB2864202D262899B1A9BB2CB1A64
:105440001A1C9BB2AB4252D893B298461D00E28818
:10545000A0893300864205DD6389F3189BB201E021
:105460005B1A9BB28B42FBD2581988422ADC534309
:1054700021686A43C8183900FBF73AFEA3897519F9
:105480009D421CDD6389F6184644B6B26069E68128
:10549000002801D005F0B0FC4046C0BCB946B0467B
:1054A000F8BDA846E288A942D2D26D1A5543884673
:1054B0007F19E0810D00CBE700239846ECE74644D6
:1054C000B6B2E3E7C91A89B2894653432168C818BE
:1054D0004B4639005A43FBF70BFE4B46E188EA1A6C
:1054E0004A43594320687918FBF702FEC6E72A1C95
:1054F00093B298461D00E288AAE7C04610B50400A2
:10550000406900280DD00121494205F09DFC00238F
:105510006069E3812382002801D005F06DFC012041
:1055200010BDE0812082FAE7024B5878431E984173
:10553000C0B27047F4A60320024B18784007C00F92
:105540007047C046F4A60320F8B537220021214851
:10555000FBF7C8FD204C2000FCF7B6FB1F4B1C607E
:105560001F4C20001830FCF793F82000FFF7C6FF0F
:105570001C4B1D4E1D4D1C60002E04D0280000E069
:1055800000BF1B4B186000242B78002E19D0194E39
:10559000174F9C420FD319D13300984701342B7811
:1055A000E4B2A342F5D2002000F072FF002000F028
:1055B00049FF0120F8BDE3003A681B1B9B009B5884
:1055C000EBE7FFF7EFFB2B78002BECD000231B68F9
:1055D000FFDEC046F4A60320ACA603202CA70320C0
:1055E0008027002030A703200000000041B00320E6
:1055F000C4A30320A54D0010F0B5DE4657464E4625
:105600004546E0B58BB001F005FA002800D123E152
:10561000B34B07AF9A46B34B9B4653461D68AA69E6
:10562000EFF3108172B61368002BFCD0BFF35F8FCD
:10563000E96128003900FFF7CFFDAA690400EB6992
:10564000BFF35F8F0021116083F31088002800D121
:1056500002E17B78082BE0D85A469B00D3589F463E
:105660007B68002BD9D0B8689847D6E77F22397974
:105670009D4B0A405400C8091B191B18180001252E
:1056800020304479AC43447144790335AC434471D0
:10569000002A00D1E7E0954ADB7C002A06D0944A34
:1056A0001278934200D26FE19B1ADBB2002B00D03C
:1056B000D2E0904C7A793878BB68A047ADE78A4B46
:1056C0000126984642461B780020334313703B78EE
:1056D000994600F093FD60233D792B40602B0DD05F
:1056E000402B00D1DBE0ED06ED0E012D00D156E19F
:1056F000022D00D112E1002D00D1E2E03878002126
:1057000000F0F0FF8021387800F0ECFF85E77A4B5D
:10571000002B82D000E000BF7FE7784B002B00D148
:105720007BE7714B18780007C00F00E000BF74E7FB
:105730006F4D6E4A00242B78002A00D199E0704EFC
:10574000A34209D8A34200D096E00134E4B29C42BF
:1057500000D962E7A342F5D93168E2008C46121BFA
:10576000920062449269002AEFD038789047013461
:105770002B78E4B29C42E3D94FE7372200215A4804
:105780003E78FBF7AFFC1022FF215E48FBF7AAFC36
:1057900055481222FF211330FBF7A4FC00F024FD32
:1057A000534D524A00242B78002A00D170E0564A0B
:1057B0009046534A9146A34245D866D143463000AD
:1057C000984701342B78E4B2A342F4D24F4B002B1C
:1057D00000D122E700E000BF1FE7434B3722984685
:1057E000002118003E78FBF77DFC43461022D81CB0
:1057F000FF21FBF777FC40461222FF211330FBF715
:1058000071FC00F0F1FC3A4D384A00242B78002A54
:1058100035D03B4A91469C420CD336D13A4B3000AE
:10582000984701342B78E4B2A342F4D242463B7944
:105830009370F2E64A461268E30094461B1B9B00F5
:1058400063445B68EBE74A461268E30094461B1B1F
:105850009B0063445B68B2E70BB0F0BCBB46B2464A
:10586000A946A046F0BD7A793878BB6800F0DAFC2A
:10587000D3E6002B00D1D0E600239B69FFDE300089
:10588000FFF7CCFA2B78002BD0D000235B68FFDE2B
:105890003000FFF7C3FA2B78002B97D0F5E71C4BAD
:1058A000002B00D12AE71B48002801D000F0A6FCFD
:1058B000484608A900E000BF0400002C00D0ACE678
:1058C0001CE7202B00D19BE0002B00D016E77B7952
:1058D000092B00D912E7104A9B00D3589F46C046B7
:1058E00030A7032078B20010F4A6032000000000C7
:1058F00041B00320D94F001000000000000000005C
:10590000C4A30320F7A603201D4E001000000000D2
:1059100000000000000000009CB200107F22397AD5
:105920000A400292082A00D9E8E6C8090190002B33
:1059300000D182E0002453000293019A029B944616
:105940004344C94A6344DB7C002A06D0C74A127824
:10595000934200D200E19B1ADBB2002B00D0F2E0B0
:10596000C348C44D00F04AFC4846EB6808A9984774
:10597000002800D1E7E060223B791A4200D04CE6D3
:10598000002000F03BFC48E6DA00D31ABA4A9B003C
:105990001268D318002B00D15EE75C698AE63B7A77
:1059A0000F2B00D9AAE6B04A4344DB78002A05D081
:1059B000AE4A127893425ED39B1ADBB2002B00D022
:1059C0009CE6AB48AB4C00F019FC4846E36808A9DC
:1059D0009847002800D020E6602211003B7919404A
:1059E0001A4200D08AE67B790A2B00D086E606AB05
:1059F0009A1C11700123484608A900F097FB0CE699
:105A00003B7A0F2B00D979E6974A4344DB78002A8A
:105A100006D0964A1278934200D2C7E09B1ADBB2B6
:105A2000002B00D06AE69248924C00F0E7FBE36856
:105A3000484608A9984704003FE77B790393012B68
:105A400000D19DE0032B00D190E0002B00D055E663
:105A50005300019A029394464344634420335B7994
:105A600006AA9B07DB0F023213804846022308A9CF
:105A700000F05CFB61E7804ADC00E31A14689B00DD
:105A8000E418002C00D139E620699CE7FB88012B43
:105A900000D033E6434608221B78934342464846EB
:105AA00008A9137000F02AFBB7E5434602201978D5
:105AB00006AB9A1C8B0689080140DB0F0B43138051
:105AC0004846022308A900F031FBA6E54346BA790F
:105AD00003925B78002B02D1002A00D084E0434679
