:020000041000EA
:1000000000B5324B212058609868022188439860DF
:10001000D860186158612E4B002199600221596106
:100020000121F02299502B49196001219960352056
:1000300000F044F80222904214D00621196600F024
:1000400034F8196E01211966002018661A6600F04E
:100050002CF8196E196E196E052000F02FF8012189
:100060000842F9D1002199601B49196000215960AB
:100070001A491B48016001219960EB211966A021F2
:10008000196600F012F800219960164914480160C1
:100090000121996001BC002800D000471248134993
:1000A000086003C880F30888084703B5996A0420EC
:1000B0000142FBD001200142F8D103BD02B5186610
:1000C0001866FFF7F2FF186E186E02BD00000240BE
:1000D000000000180000070000035F00212200005C
:1000E000F4000018222000A00001001008ED00E03C
:1000F00000000000000000000000000074B24E7A12
:1001000000200420F7010010C3010010C5010010F9
:10011000C1010010C1010010C1010010C101001097
:10012000C1010010C1010010C1010010C701001081
:10013000C1010010C1010010C9010010CB01001065
:10014000CD010010CD010010CD010010CD01001037
:10015000CD010010CD010010CD010010CD01001027
:10016000CD010010CD010010CD010010CD01001017
:10017000CD010010CD010010CD010010CD01001007
:10018000CD010010CD010010CD010010CD010010F7
:10019000CD010010CD010010CD010010CD010010E7
:1001A000CD010010CD010010CD010010CD010010D7
:1001B000CD010010CD010010CD010010CD010010C7
:1001C00000BE00BE00BE00BE00BE00BE00F04BF888
:1001D000103800BEF2EB8871E824001004250010EE
:1001E0003402001090A31AE700202149086006C8D5
:1001F00081F3088810471F48006800282FD10DA4FC
:100200000ECC002902D000F012F8F9E71A491B4A77
:10021000002000E001C19142FCD1194988471949E9
:1002200088471949884700BEFDE701C901C29A42C3
:10023000FBD3704704250010C0000020780B00207D
:10024000BC2F00100000042000000420BC2F001070
:1002500000100420001004200000000070470B482C
:1002600000F0C6F80047EFF30580C0B27047000009
:1002700008ED00E0000000D0780B00204C0F0020BB
:10028000A1100010711A0010C11100105756000083
:1002900006005250ABB36053602400100600525069
:1002A000861C030268240010060052505422A29DAE
:1002B0007024001005005250DE65F468BC2F001059
:1002C000F8B5C04610B5064C2378002B07D1054B76
:1002D000002B02D0044800E000BF0123237010BDB2
:1002E000780D00200000000028240010044B10B5F9
:1002F000002B03D00349044800E000BF10BDC046F6
:10030000000000007C0D002028240010014804217A
:10031000014B1847B002002011040010134A936FDC
:100320009B0813D210665166002905D0FFE7FFE74E
:10033000FFE7516F106F704704B5002801D000200F
:10034000C04302F051F8002104BDC046936F5B0822
:10035000FDD3F0B5946ED56E576F166FFFF7E2FFC1
:100360009466D56657671667F0BD0000000000D0A0
:1003700007B5604601880A0A0230DF2AFAD1C9B2FD
:10038000820804D3028840880004104300E000681B
:10039000014A5050039007BD780B002007B5604616
:1003A00001880A0A0230DF2AFAD1C9B2820804D3CE
:1003B000028840880004104300E00068014A505061
:1003C000039007BD780C002001480421014B184719
:1003D0000803002011040010014B1B68184700009F
:1003E00008030020014B5B68184700000803002049
:1003F000142310B50100188804331B88984710BDDA
:10040000162310B50100188802331B88984710BDC9
:10041000F8B54746CE4680B50F1E19D0142399462D
:10042000043304000025012698464B4618884346AD
:1004300021681B88984701C4431E984101354042FA
:100440000640AF42F1D13000C0BCB946B046F8BD5D
:100450000126F8E7F8B5CE464746914680B5EFF35A
:10046000108C72B6104D2B68002BFCD0BFF35F8F41
:10047000CB08C45CC7180720260001230840C640EB
:100480001A00324033420BD1834023433B70BFF309
:100490005F8F2A608CF31088C0BCB946B046F8BDA7
:1004A000484600F08FFEC0462C0100D030B50C202D
:1004B00083B001F0C1FA00F09DFD00280ED09A4BE8
:1004C0009A4A1A605A609A60DA601A615A619A61AF
:1004D000DA611A62964A5A6203B030BD954CA06741
:1004E00001F0B2FA0122944B1A60636C012BFCD12B
:1004F0000322924B1A608F4A936B012BFCD1C022CE
:100500008F4B92011A608F4B8F491A6010008B68D5
:100510009843031EFAD1022401218C4A8C480633E9
:10052000009400F06FFD05238A4A01218A48009457
:1005300000F068FD894B5A68FF2A02D880225200D9
:100540005A608022784C7D4B21691201834D1A60DC
:10055000002905D06069FFF7E1FE01300138FDD1C7
:10056000E0217E4B02201A681140802252012A436A
:1005700011601968484003210140116004219A6804
:100580001142FCD08022802192012A43090111608E
:10059000802252005A60724B2361724B5968FF29C6
:1005A00000D85A600321644A6E4B116002399A6880
:1005B0001142FCD0E0201A681040802252011A43F8
:1005C000106018684840032101400220116065490D
:1005D0008A681042FCD080229201134380221201CB
:1005E0001A608022604B52004A6063615F4B596819
:1005F000FF2900D85A6080225D4BE16912015B4DF2
:100600001A60002905D06069FFF788FE01300138C3
:10061000FDD1E02255490B681A4080235B012B4332
:100620001A60802380229B012B4312011A608022D2
:100630003E4B52004A60E3614E4B5968FF2900D897
:100640005A6080224C4B216A12014A4D1A600029DF
:1006500005D06069FFF762FE01300138FDD1E0226C
:1006600044490B681A4080235B012B431A608023A6
:1006700080229B012B4312011A60802380225B00A1
:100680004B602A4BD20223623C4B5968914200D204
:100690005A6080223A4B616A1201384D1A60002973
:1006A00005D06069FFF73AFE01300138FDD1E02244
:1006B00032490B681A4080235B012B431A60802368
:1006C00080229B012B4312011A608023DB024B60C6
:1006D000174B63622B4B5A68FF2A02D880225200C4
:1006E0005A608022284BA1691201264D1A60002908
:1006F00005D06069FFF712FE01300138FDD1E0221C
:1007000020490B681A4080235B012B431A60802329
:1007100080229B012B4312011A6080235B004B60F7
:10072000114BA361D8E6C046DC0E0020006CDC0251
:100730001BB70000008000403CB0004030B00040DB
:1007400000E0004000F0004000C00040002F685969
:100750000080024000389C1C00C0024030800040F5
:10076000001BB7003C800040405973075480004094
:1007700054B000406080004060B000406C80004099
:100780006CB000404880004048B00040132370B572
:100790001D78012D10D00BDD1948FFF731FE194CE3
:1007A000010080222000FFF71DFE022D01D070BD48
:1007B000144C154BA364FAE7134B124C236063608F
:1007C000A360E36023616361A361E3612362636209
:1007D000A362E36223636363A363E36323646364E9
:1007E000A364E36423656365A365E36523666366C9
:1007F000A366E36623676367A367E367A364D6E73B
:1008000053440000780B00207103001030B5002520
:1008100089B004000922002101A80095FFF7DCFD42
:100820000922002105A80495FFF7D6FD4B236A464F
:100830006846137004A901F0E7FD15210822200085
:100840006944FFF7CFFD09B030BDC046132310B592
:1008500012481C78FFF7D4FD0100012C0AD003DDFB
:1008600080220F48FFF7BEFD0E48FFF7C1FD0E4B7B
:10087000186010BD0A4C54222000FFF7B3FD0B4B4B
:100880006365A365E36523666366A366E366236722
:100890006367A367E3672362E361E5E7534600000C
:1008A000780C00204C330000340F00209D03001012
:1008B00001238340002904D0034A1360034A1360D4
:1008C0007047034A1360FBE780E200E000E100E0CC
:1008D00080E100E0024B10309B688000C0587047F8
:1008E00000ED00E070B50D00EFF3108672B60F4A10
:1008F0001368002BFCD0BFF35F8F0D4B10309B684B
:1009000084001B590B4A934203D09D4201D000F052
:1009100071FC074B9B681D51BFF35F8FBFF35F8F67
:100920000022024B1A6086F3108870BD240100D0AB
:1009300000ED00E0CD010010F0B5DE4657464E4612
:100940004546E0B50C0083B0EFF3108A72B65E4AFC
:100950001368002BFCD0BFF35F8F102291468144B7
:100960004A465A4B96009B689D59594B98469D4262
:1009700005D0A54216D0574FEB1B2F2B14D9534B44
:100980009B689D51BFF35F8FBFF35F8F00224E4B7B
:100990001A608AF3108803B0F0BCBB46B246A94681
:1009A000A046F0BD1D00EAE7012383409B465A465E
:1009B000494B1B681A4000925A46484B1A60BFF3D5
:1009C0005F8FFFF750FC0190002803D0814501D0D4
:1009D00000F010FC0123290099438B68A34268D0E2
:1009E0000A0007E043001B189B00FB189868A04210
:1009F00011D01A00062010560028F3DA009B002BB5
:100A000005D05A46364B1A60334B1A60B7E75A4640
:100A1000324B1A60B3E706201856002821DB42004B
:100A2000111889007C188846A1689960E179D9710C
:100A300006216156997100292BDBA488F91A6405F7
:100A4000241544440919E0240905490D24022143D1
:100A500099801218234B9200BF181A781870BA7137
:100A6000CCE70198002817D1FF3090711E48908084
:100A70001C4AC91B1078891098718B005B181801EB
:100A80001B1818021B1818041B185B005B18137046
:100A9000B4E7BD210902DBE7144A1549D21A083A26
:100AA0005002400D01439980124952080A43DA80EE
:100AB000A4E7062008560B000028B0DA019A002AA5
:100AC000EAD14546D4E7C046240100D000ED00E05D
:100AD000CD010010C002002000E100E080E100E054
:100AE00080E200E04A0F002000BDFFFFFA02002074
:100AF00000F0FFFF00F8FFFF70B50125040005437B
:100B0000FFF7B1FBEFF3108C72B6244A1368002B89
:100B1000FCD0BFF35F8F224E8000A11B89108A009A
:100B200052181301D2181302D2181304D3181D4AF5
:100B30005B005B1891680958A9421CD00622B25686
:100B40009A421CD01222B256934222D01E22B25692
:100B5000934220D02A22B25603219A4210D0124A40
:100B600011781370A171BFF35F8F00220B4B1A60D5
:100B70008CF3108870BD92680C491150EFE700218A
:100B80004A005218FF219200B218917108499180D1
:100B9000E5E70121F4E70221F2E7C046240100D095
:100BA000C002002000ED00E04A0F0020CD0100103F
:100BB00000BDFFFFF0B500220324FF2780262000A0
:100BC0003D00094B11009C461040C0008540A143E8
:100BD00061440B680132AB43350085402B430B6009
:100BE000202AECD1F0BDC04600E400E0024B9C4658
:100BF00061448900016070474000003410B5040072
:100C000000F004FC01002000FFF7F0FFFF23237138
:100C1000BFF35F8F10BDC04670B50500140016000D
:100C2000002915D00C00002A12D080686B68984704
:100C3000296800280ED073009B196200033B12192B
:100C4000CB18033A9C7088188A5C002A15D106706C
:100C5000200070BD63001B197200033B9219CB1872
:100C6000033A9E7088188A5C002A02D1047034000E
:100C7000EEE75A7004703400EAE75A700670E7E74E
:100C8000F0B5C64605000F0000B510210120160082
:100C900000F0ACF9EBB204000373032147602800B5
:100CA000984600F0A3F9002363730133A37343460E
:100CB000FF21E373FE232060A66029402B4206D06B
:100CC000421CFD3B0133137003328B42FAD34B00BD
:100CD00059180023401803384370200080BCB846E0
:100CE000F0BDC046F8B5CE46474606000C0080B5BC
:100CF000002907D04D0003686D18033D5A19577835
:100D0000002F04D12000C0BCB946B046F8BD790020
:100D1000C9190339884643445978894600215970D6
:100D2000517073683A002100806898473368002842
:100D300014D042469A18947059195B5D002B00D06C
:100D400053700F70270049463000FFF7CBFF390082
:100D500002003000FFF760FF0400D3E7424641463F
:100D60005D19AF709A185B5C002B00D06B7014702B
:100D7000E9E7C046F0B557464546DE464E46E0B583
:100D80000D006B0001685B19DF1E0400C85D83B0B5
:100D90000192CA1900284CD043001B18033BCB1802
:100DA0005E78B446002E16D1019E002E3ED1E67B21
:100DB000002E04D073009B19CB18033B5D70E573C4
:100DC00000282FD10023537003B0F0BCBB46B246BD
:100DD000A946A046F0BD72006244033A89184A78D9
:100DE000904600224A7091465A700100320020005D
:100DF000FFF712FF43468246002B07D05B002168B5
:100E00004344033BCB185A78002A16D14246514638
:100E10002000FFF701FF2168019BCA19002BC6D0F3
:100E20000028CFD043001B18033BCB18002199703A
:100E3000C8E7019B002BC5D1B9E7500080180338E3
:100E40000918487883464846487058704146200043
:100E5000FFF7E2FE594680462000FFF743FF414678
:100E600002002000FFF7D8FE8046CFE7F0B55746D6
:100E70004546DE464E46E0B583B00191457B040011
:100E80006B0000685B19DF1EC15DC21900294ED0DE
:100E90004B005B18033BC3185E78B446002E18D194
:100EA000019E002E40D1E67B002E04D073009B19DA
:100EB000C318033B5D70E573002931D1002328007E
:100EC0005370617303B0F0BCBB46B246A946A0465E
:100ED000F0BD72006244033A8018427890460022C6
:100EE000427091465A7020003200FFF795FE43464B
:100EF0008246002B07D05B0021684344033BCB189C
:100F00005A78002A17D1424651462000FFF784FE46
:100F1000019B01002068C219002BC4D00029CDD04C
:100F20004B005B18033BC31800209870C6E7019B79
:100F3000002BC3D1B7E75000801803380918487850
:100F4000834648464870587041462000FFF764FECB
:100F5000594680462000FFF7C5FE414602002000AA
:100F6000FFF75AFE8046CEE770B5040000292CD06A
:100F7000437B8B422ED00568480040180338281860
:100F80008278002A21D053009B18033BEA5CEE18BC
:100F90008A4202D11BE0002A08D053009B18033B71
:100FA000EB185A788A42F6D142785A700023002210
:100FB000837043702000FFF7DDFE617B020020009C
:100FC000FFF72AFE6073012000E0002070BD437827
:100FD0003370EBE700221900FFF7CCFE60730120AD
:100FE000F4E7C04610B500F0A5FD10BD10B500F047
:100FF00041FD10BD024B18688007C00F7047C04606
:1010000000C00640F0B5C64600B51E0006AB1F780E
:1010100001235B42436000230400836001600C20D5
:101020009046FFF77BF94101091A8D01691AC90041
:10103000091889014046FFF771F9C021231D890174
:1010400019432123A0600B602268002AFCDA0823E0
:101050003F0336043E43E6600B6080BCB846F0BDFB
:1010600010B5002800D110BD00F096F9FBE7C0468E
:1010700010B5094A0300146884B0002C08D001227E
:1010800000910648524203A9A047012004B010BDB8
:1010900000F090F90020F9E7180F0020611000100F
:1010A000F8B52B4A2B4B2C491A602C4A2C4B1A6052
:1010B00014008B689C43FBD12A4D2B4EB54208D2BD
:1010C000013E761BB60808CD984723000134B34291
:1010D000F9D1FFF7EBF9254A214B1A601E4A9368B4
:1010E000DB43DB01DC09002BF9D14022204B214DF1
:1010F000214F9A675A671A67DA66BD420BD20026FB
:10110000013F7F1BFF082800FFF778FD08353300FB
:101110000136BB42F7D1194E194DC022A9683000E3
:10112000FFF760F9AE6000F063F9FFF743FD00F0F0
:1011300007FB144D144EB54208D2013E761BB6088B
:1011400008CD9847230001349E42F9D1F8BDC0462E
:10115000BFCDFFFF00E0004000C00040FE7F3C002C
:1011600000F00040600B0020700B0020FFFFFF012B
:1011700000F00140580B0020600B00200000002010
:1011800000ED00E0700B0020780B0020094A0300FE
:101190001068002805D00849C3188B4207D2136095
:1011A000704706480449C31810608B42F7D30120EA
:1011B0004042F5E7140F0020000004204C0F0020EF
:1011C00000BEFDE70FB400B5084883B000F0F2F8A8
:1011D000049B002B07D005A918000191FFF748FFD9
:1011E000034800F0E7F800BEFDE7C046A024001069
:1011F000B024001010B50148FFF7E4FFB42400103C
:10120000F0B546464F46D6468046C0B50E00171E7E
:101210003FDD4B1E9946214B0125002400209A46B4
:101220000DE04B461B5D0D3B5A425341325DDBB234
:101230000A2A0BD02B00013401359F421ADD002C05
:10124000EFD14346325D1B7C0A2AF3D1002BF1D14A
:10125000A04204DA4346211A1B68301898474346D7
:1012600050461B6802219847013428002B000135A5
:101270009F42E4DC874204DD4346391A1B6830187C
:101280009847F619013E33780D3B5A425341424686
:101290001374E0BCBA46B146A846F0BDC0240010A5
:1012A000F0B557464546DE464E46D023E0B51B0610
:1012B0001C68354B83B007000D00180001A990464B
:1012C0009A4601F099F88146002807D1019B9C427B
:1012D00004D0504601F0A0F8012399466B1C03D1BD
:1012E000380000F015FF0500284B1C68002C2FD09B
:1012F0000A23274E9B4602E0E468002C28D022688F
:10130000002AF9D03368002B01D0A342F4D1637CCA
:10131000002B27D02A0039002000FFF771FF434639
:10132000002BE9D06B465A461A71637C002B1DD006
:10133000237C002B23D00121236801A898476B460A
:101340001B790D3B5A4253412374E468002CD6D1DB
:101350004B46002B0FD103B0F0BCBB46B246A946AA
:10136000A046F0BD290038009047D8E70121236846
:1013700001A89847C0E7504601F02EF8EBE702219C
:10138000044823689847DAE7580B0020080F00202C
:10139000100F0020C024001010B582B06B4604006E
:1013A0000022D81D01210470FFF77AFF200002B04F
:1013B00010BDC04670B5040000F0AAFE0122010075
:1013C00005002000FFF76CFF084B1C68002C06D0BE
:1013D0006368002B05D09847E468002CF8D12800FA
:1013E00070BDE468002CF3D1F9E7C046080F002077
:1013F0000021044B044ABFF35F8F02C39342FAD12A
:101400007047C046000100D0800100D0044A107827
:10141000431CDBB2172B00D9102313707047C04652
:101420001803002083680B4810B584466144624469
:10143000090112019A18591854684B6801209C42FE
:1014400001D802D00020C0B210BD12680B689A42C9
:10145000F9D8F7E7FFFFFF0FF8B5DE4657464E46CF
:101460004546E0B51F000DAB1B7805009B460C9B65
:101470001600002B45D03F4A0C9B9446DBB2AA686D
:101480009A460C9B2C68634494461B010A9A634459
:101490009A600B9A1E60DA600C9A5F6094460C9B0F
:1014A00000225B006344033B9846236843449A70E0
:1014B0005A701A70637B9946002B42D0524619002D
:1014C000A06863689847226800282BD04B465B00D1
:1014D0004B44033BD1188C4641464846511888700E
:1014E000D35C002B42D15346624613704B46637364
:1014F0000C9B994527D0F0BCBB46B246A946A046F6
:10150000F8BD0268947B002CF5D0116863008C460E
:101510001B196344033B5B789373002B00D1D37397
:101520000C94A8E74346D1184B4650465B004B4409
:10153000033BD31898704046125C002A18D14B46E2
:101540000B705346637332003B00287D00F0ECF9CA
:10155000041E06D05B46002B03D151462868FFF7D6
:1015600003FD0E9B002BC6D01C70C4E74B70BAE77E
:101570005A70E4E7FFFFFF0FF0B5DE464E465746D0
:1015800045460023E0B58DB00A936B4B8200D358DB
:101590000B90994600239B464B46079300F074F945
:1015A000079C06000F006268EFF3108572B613689F
:1015B000002BFCD022000794BFF35F8F2468637B6D
:1015C0009946002B67D092685C4B90464B441B01B8
:1015D000984443461A685B6810001900801BB941A3
:1015E00000295FDD0B9800F09FF900230026984644
:1015F00000279A46079C6368BFF35F8F5A461A60BC
:1016000085F310885346002B08D10028C6D10DB0B1
:10161000F0BCBB46B246A946A046F0BD0A9B414677
:1016200018024B461843D047089009916268EFF3BF
:10163000108572B61368002BFCD00794BFF35F8F40
:101640000899099A002A48DB114303D0079B1B69BC
:10165000002B5DD1079B1B68D97B002907D04A006E
:10166000521819688C4649466244033A51704A46FA
:10167000DA734B46079A013BD168CA5C0132CA54FF
:101680005B46079A13615368BFF35F8F5A461A602F
:1016900085F3108882E700230026984600279A46A3
:1016A0000020A7E7002901D100289BD101212000BB
:1016B000FFF7DCFB43461E685F689B68079A9A4603
:1016C0004346DB689846D3684B44013B1B780A933A
:1016D0001B020343136100208CE72369002BB9D060
:1016E00033003C005B1A94411A002300A74219D82A
:1016F0009F421BD059460491012103914946029112
:1017000041460191514607980091FFF7A5FEB7E7C2
:1017100000F0BAF8089A099B06000F0092197B4165
:101720009942E5D901225242D317E3E79642E1D923
:1017300001225242D317DDE71C0F0020FFFFFF0FED
:1017400070B5184C2368002B00D070BD032000F04A
:101750008FF8032000F04AF91349032000F09EF8A7
:101760001820FFF73FFC0500FFF750FE0F4B2A0043
:101770009C46604480000E4968601020FFF780FAA4
:10178000102128601020FFF731FC0121A8601020F3
:10179000FFF72CFC03232B75064BE860DD6025600A
:1017A000D3E7C046040F0020791500104000003434
:1017B000251400101C0F0020F0B5D6464F464646B3
:1017C000C0B5EFF305833F22134018001038EFF344
:1017D000108C72B6204D2A68002AFCD0BFF35F8FB0
:1017E0000122110081401D4C884661631C4917008D
:1017F0000E788A463100C1400F400A4209D1BFF33A
:101800005F8F2F608CF31088E0BCBA46B146A846C3
:10181000F0BD14498200646A51588C420FD3124BB8
:10182000D25843469E4353461E70BFF35F8F00233A
:101830002B608CF31088002AE6D09047E4E70B4A2F
:101840009B00904643441A681A60BFF35F8F0023E1
:101850002B608CF31088D7E7280100D000400540AA
:101860004B0F0020380F0020CC0D0020D03F05404A
:1018700010B50100024A0348FEF7ECFD10BDC0465A
:10188000C4240010490F0020034B596A0A00986ACB
:10189000596A8A42FAD170470040054070B5040089
:1018A0000D00EFF3108672B61A4A1368002BFCD0B5
:1018B000BFF35F8F002D1BD02000FFF70BF81649F8
:1018C00081420AD02000FFF70DF801212000FEF729
:1018D000EFFF0123A340114A1360114BA400E55010
:1018E000BFF35F8F00220B4B1A6086F3108870BD28
:1018F0000B4BA200D5500122A2400A4920000B78D0
:1019000093430B700449FFF717F800212000FEF7FE
:10191000CFFFE5E7280100D0B91700103860054077
:10192000CC0D00204B0F0020F0B5CE46474680B5C9
:101930002A4C616A0D00A66A616AA942FAD18B42FB
:1019400007D804D00120C0BCB946B046F0BDB242B1
:10195000F8D9EFF3108972B6214C21680029FCD028
:10196000BFF35F8F012585401C4C1E4F6563E9B2B4
:10197000884639788C464146664631433970011DA8
:1019800089000A51184980004350216A00202942E9
:101990000BD0616A0800A66A616A8142FAD18B4263
:1019A00002D80AD1B24208D90020BFF35F8F0022CB
:1019B0000B4B1A6089F31088C5E7084B42461D623D
:1019C0005D636346934301203B70BFF35F8F00224A
:1019D000034B1A6089F31088B5E7C0460040054004
:1019E000280100D04B0F0020380F0020EFF3108C9F
:1019F00072B60A490B68002BFCD0BFF35F8F01233E
:101A00008340074A0748136202789A430270BFF383
:101A10005F8F00230B608CF310887047280100D083
:101A2000004005404B0F002010B50248FEF7EEFEC7
:101A300010BDC0462C0F00208023024A9B000343A8
:101A4000D362704700800540AA23064A1B01136039
:101A50002F230549D360054B19605368002BFCDA2E
:101A60007047C0460040024000B0FA0000600240EB
:101A7000FEE7C046030010B50A00034908681900D4
:101A800000F004F810BDC0461C03002070B50B0C1C
:101A90000024150C002B28D1002D37D18BB291B228
:101AA000594300F051F8051E19D00300083B5A684D
:101AB00003239A43043A242A13D80300132A0AD989
:101AC0000460446008331B2A05D98460C460242A5A
:101AD00025D00300103300221A605A609A60280053
:101AE00070BD0021FEF778FCF9E7002D11D1151C1F
:101AF00089B292B24A43ADB29BB26B43110C5B18F0
:101B0000190C06D1190492B21143CAE72B1C0D1C03
:101B1000EEE700F009F80C2300250360DFE703007F
:101B2000046118334461D6E7014B18687047C0461A
:101B30001C03002010B5034B0100186800F004F8E6
:101B400010BDC0461C030020F0B54E464546DE469B
:101B50005746E0B50D000B35060083B0162D22D890
:101B6000102900D9B2E000F0B1FA102518230220A4
:101B7000CC4FFB181A005C68083A944200D1B5E0DB
:101B8000032362689A431300E268A168CA60916007
:101B90000122E318596830000A435A6000F09EFAA7
:101BA0002000083095E007239D4300D58EE0A94230
:101BB00000D98BE000F08AFAFC235B009D4200D242
:101BC000A7E1680A00D18BE0042800D97AE1382324
:101BD0009846A80980443930C100B24F79184C6842
:101BE0000839A1420ED003239C4604E0002ACBDA38
:101BF000E468A14206D06246636893435A1B0F2AE9
:101C0000F4DD40463A003C690832944200D178E065
:101C100003236168994389460B00491B0F2900DDA6
:101C20007BE17A613A610029B2DA80229200914523
:101C300000D30FE15909DA0801238B40D2007968FB
:101C4000D2190B4391687B60E260A1609460CC6024
:101C5000012182109140994259D80B4205D10322AB
:101C60009043490004300B42FBD003239846C30045
:101C70009946B944CC4682466346DC68A44507D100
:101C80002CE1002A00DB35E1E468A44500D125E120
:101C90004246636893435A1B0F2AF2DD01208046B7
:101CA000611905436560A068E5680837C560A860EC
:101CB00040461043F960B9604860CF6030008F60E3
:101CC000E25000F00BFA2000083002E00C23002064
:101CD000336003B0F0BCBB46B246A946A046F0BD97
:101CE00080213F2340209846890076E7DC68023057
:101CF000A34200D044E73A003C690832944200D045
:101D000086E701217B68821091409942A5D903237F
:101D1000BC6862689A439146954203D8531B0F2BC7
:101D200000DD89E023004B445F4A01935F4B9346FB
:101D30001B681268EB18013200D13DE15C4A944601
:101D400063441B0B1B0300933000009900F0CEF995
:101D500003008046013300D1FAE0019B834200D9A1
:101D6000F4E0544B00981A009A4612680300944617
:101D7000514663440B6001991A00414500D151E17D
:101D80005B461B68013300D156E1434601995B1A5B
:101D90009A1853461A600723424641461A40019258
:101DA000194200D112E108239846881A424B009943
:101DB000804441449B1A5B1A1B051B0D00913000A7
:101DC00019009B4600F092F9431C00D150E14346B4
:101DD000C01A03005B440093534652461B6801211E
:101DE0005B44136042464046BA60009A0A43426030
:101DF000BC4200D124E14A460F2A00D822E1072044
:101E00000C3A824360680140052011436160A118CB
:101E1000486088600F2A00D935E14246444652683E
:101E200026490868984200D20B6025490868984204
:101E300000D38FE00B608DE0012229001343114392
:101E4000651961603000BD606B6000F047F92000EB
:101E500008303EE75A0A042A72D9142A00D9C5E08C
:101E600011005C325B31D20008235B429C46BA18F9
:101E7000944463469A6803239846944500D19EE0B3
:101E8000434651689943494502D992689445F7D130
:101E9000D3689C467B686146A260E1608C60D46038
:101EA000D6E6C04648070020500B0020C80D002091
:101EB0000F100000980D002008100000C00D002039
:101EC000C40D0020142852D9542800D996E06E235E
:101ED0009846280B80446F30C1007EE608239B465D
:101EE000073BDC449B46DA4443465246134200D04B
:101EF000C2E64CE00122E318596830000A435A60F8
:101F0000E368A268D3609A6000F0E8F82000083027
:101F1000DFE62B00E80808332AE6012360191D4399
:101F2000656078613861C26082601A004B460A437E
:101F300042603000E15000F0D1F820000830C8E6DF
:101F40009A09110039323831D2008DE7BC4260D095
:101F5000BC68626803239A43531B954202D80F2B37
:101F600000DD69E7300000F0B9F80020B1E65B233E
:101F7000984680445C30C1002FE608235B429C46B3
:101F8000E1444B469B6801384B4500D098E04346FE
:101F90000342F2D17B688B437B604900994200D9B0
:101FA000B5E6002904D1B2E6042294464900E24491
:101FB0000B42F9D050465AE610330093C4E689101C
:101FC000023B8B4079680B437B6064E7009B3000E9
:101FD00043445B421B051B0D19009B4600F086F82D
:101FE000431C00D0F3E600239B46F5E6542A2BD889
:101FF0001A0B11006F326E31D20035E7AA235B0055
:1020000098422BD8DD3B9846E80B80447830C100DD
:10201000E3E52C4B009A9A461B689C465346624463
:102020001A60ADE6090500D0AAE60200BC684A4481
:1020300001310A436260F3E65B4642461A60AAE653
:102040004446EDE641608DE7AA2149008A4224D842
:10205000DA0B110078327731D20005E71A4B98423B
:1020600024D87C239846A80C80447D30C100B4E578
:10207000009A019B94464246083B63449B1A009396
:1020800000239B46A8E621003000083100F0BCF890
:102090005346BC681B686268C2E60B498A420BD88B
:1020A0009A0C11007D327C31D200DDE6FE217E23C8
:1020B0007F209846890090E5FE227E219200D3E69B
:1020C0007B686AE7980D00205405000010B50248AF
:1020D00000F07CF910BDC046940D002010B50248F8
:1020E00000F076F910BDC046940D0020002370B5B5
:1020F000064D040008002B60FFF748F8431C00D091
:1021000070BD2B68002BFBD02360F9E70C0F00207B
:1021100010B583070AD00300032102E001330B420C
:1021200005D01A78002AF9D1181A10BD03001968D1
:102130000C4A0D4C8A188A4322420FD15968094A29
:1021400004338A188A43224208D15968054A043365
:102150008A188A432242F1D000E001331A78002A1B
:10216000FBD1E1E7FFFEFEFE80808080F8B50C0029
:102170000500FFF7ABFF204FBB685E6803239E435B
:102180001E4B341B9C466444240B013C1133240336
:102190009C4207DB00212800FFF7A8FFBB689B19C2
:1021A000984204D02800FFF799FF0020F8BD2800CE
:1021B0006142FFF79BFF431C0DD00122BB68361B19
:1021C00016435E600E4B28001A68141B1C60FFF754
:1021D00085FF0120EAE700212800FFF787FFBA68A2
:1021E000831A0F2BDEDD07490968401A044908608D
:1021F00001210B435360D5E748070020EF0F000093
:10220000980D0020500B0020F0B5C64605000C00CC
:1022100000B500294FD0FFF759FF210008394C685D
:10222000012622000320B2438F187B688343624853
:1022300098468368BB426AD043467B6026421ED1E3
:1022400008239C460C688444091B12198C68644559
:102250004FD0CB68E3609C604346FC18646834420E
:1022600011D1BB68554C4244A34200D17EE0FC68CA
:10227000DC60A360012313434B608A5006E0FC1826
:1022800064683442EDD016434E603A6080239B0070
:102290009A4213D25409D3080122A2404468DB00B9
:1022A0002243426018188368C8608B608160D960DF
:1022B0002800FFF713FF80BCB846F0BD530A042B7B
:1022C0003ED89409260039343836E40004192368CE
:1022D000083C03279C4242D05868B843904202D938
:1022E0009B689C42F8D1DC68CC608B60A160D960AF
:1022F000DEE74346F8184068304257D1FB68B868BB
:1023000042441643C36098604E608A50D0E7130081
:102310004344264206D10A68891A8C689B18CA6809
:10232000E260946001221A434A60254A8160126883
:102330009A42BDD8234B28001968FFF717FFB7E76B
:10234000142B07D9542B1AD8140B26006F346E3671
:10235000E400BBE71E005C335B36DC00B6E701221D
:10236000B610B240466832434260BDE7D96099601A
:10237000CB608B60012313434B608A5098E7AA24FB
:102380006400A34205D8D40B260078347736E400E5
:102390009CE70D4CA34205D8940C26007D347C3676
:1023A000E40093E7FE247E26A4008FE73300134366
:1023B0004B603A607CE7C046480700205007002089
:1023C000540B0020C80D0020540500007047C04683
:1023D0007047C046F8B5C04601B40248844601BC07
:1023E000604700BF6D02002001B40248844601BC72
:1023F000604700BF9502002001B40248844601BC3A
:10240000604700BF2902002001B40248844601BC95
:10241000604700BF3901002001B40248844601BC76
:08242000604700BFDD01002050
:1024280052656C656173650068747470733A2F2F18
:102438006769746875622E636F6D2F72617370625D
:102448006572727970692F7069636F2D6578616D37
:10245800706C657300000000312E302E31000000D2
:102468007069636F000000004175672032312032C7
:102478003032320006005250BBFF3CB668240010D0
:10248800060052509A235618302400100600525065
:10249800D3F07542282400100A2A2A2A2050414ED7
:1024A8004943202A2A2A0A000A0000004861726467
:1024B80020617373657274000D0A000048617264CC
:1024C8007761726520616C61726D20256420616C92
:1024D800726561647920636C61696D6564000000F0
:1024E800B4020010A80200109C0200107C24001006
:0C24F800900200108824001094240010B2
:10250400084810B50378002B0AD180230649074AEE
:102514005B051C68CC5004339342FAD10123037049
:1025240010BDC046480F0020DC0D00100001001053
:1025340010B5024B0133984710BDC046DC0D002096
:10254400034B1A68C0239B009343024A13607047ED
:102554000C8001400C900140054B1A6880239B00BD
:102564005340C02292001340024A13607047C04691
:102574000C8001400C900140F8B5CE464746814698
:1025840080B523480E0000F0A7F80500214800F0AC
:10259400A3F80400204800F09FF88046FFF7B0FF3E
:1025A400A847A047FFF7D8FFC0210D240D22082714
:1025B400022049053D008B6A1D4018420BD0002AB9
:1025C40009D0A31A0D2B1ED84B461B78013A0B6673
:1025D40001239C46E1441300002D0BD12343002B1F
:1025E400E8D1FFF7ADFFC047FFF7A2FFC0BCB94673
:1025F400B046F8BD002CF2D00B6E013C33702300C2
:1026040001361343EBE7002DD4D0002CD2D0F3E7EE
:1026140049460000455800004643000010B50268D2
:102624000024EFF3108172B61368002BFCD0BFF3C3
:102634005F8F03797F2B0BD80368BFF35F8F1C6018
:1026440081F3108820BF0268EFF3108172B6EBE7C4
:10265400D0231B061B6803710368BFF35F8F00223E
:102664001A6081F3108810BD03000068EFF3108C2A
:1026740072B60268002AFCD0BFF35F8F04229A5618
:10268400002A0BDB00290FD000200A601B68BFF36F
:102694005F8F00221A608CF310887047D0221206D4
:1026A400126801201A71F1E70020EFE70268EFF3E6
:1026B400108172B61368002BFCD0BFF35F8FFF2329
:1026C400037140BF0368BFF35F8F00221A6081F378
:1026D400108870477047C04601B40248844601BC64
:1026E400604700BFF103001000000000000000007C
:1026F400503300004C3300005433000052330000C8
:1027040000000000000001000000000000000000C4
:1027140000000200000000000000000000000300B0
:1027240000000000000000000000FF0000000000A6
:1027340000B5486801318E460047704609380149A2
:10274400884700BDF90A00104D5300004D430000B6
:102754005334000043340000100000002003002024
:10276400000000000C06002074060020DC06002097
:102774000000000000000000000000000000000055
:102784000000000000000000000000000000000045
:102794000000000000000000000000000000000035
:1027A4000000000000000000000000000000000025
:1027B4000000000000000000000000000000000015
:1027C4000000000000000000000000000000000005
:1027D40000000000000000000000000000000000F5
:1027E40000000000000000000000000000000000E5
:1027F40000000000000000000000000000000000D5
:1028040000000000000000000100000000000000C3
:102814000E33CDAB34126DE6ECDE05000B00000088
:1028240000000000000000000000000000000000A4
:102834000000000000000000000000000000000094
:102844000000000000000000000000000000000084
:102854000000000000000000000000000000000074
:102B94004807002048070020500700205007002065
:102BA4005807002058070020600700206007002015
:102BB40068070020680700207007002070070020C5
:102BC4007807002078070020800700208007002075
:102BD4008807002088070020900700209007002025
:102BE4009807002098070020A0070020A0070020D5
:102BF400A8070020A8070020B0070020B007002085
:102C0400B8070020B8070020C0070020C007002034
:102C1400C8070020C8070020D0070020D0070020E4
:102C2400D8070020D8070020E0070020E007002094
:102C3400E8070020E8070020F0070020F007002044
:102C4400F8070020F80700200008002000080020F2
:102C540008080020080800201008002010080020A0
:102C64001808002018080020200800202008002050
:102C74002808002028080020300800203008002000
:102C840038080020380800204008002040080020B0
:102C94004808002048080020500800205008002060
:102CA4005808002058080020600800206008002010
:102CB40068080020680800207008002070080020C0
:102CC4007808002078080020800800208008002070
:102CD4008808002088080020900800209008002020
:102CE4009808002098080020A0080020A0080020D0
:102CF400A8080020A8080020B0080020B008002080
:102D0400B8080020B8080020C0080020C00800202F
:102D1400C8080020C8080020D0080020D0080020DF
:102D2400D8080020D8080020E0080020E00800208F
:102D3400E8080020E8080020F0080020F00800203F
:102D4400F8080020F80800200009002000090020ED
:102D5400080900200809002010090020100900209B
:102D6400180900201809002020090020200900204B
:102D740028090020280900203009002030090020FB
:102D840038090020380900204009002040090020AB
:102D9400480900204809002050090020500900205B
:102DA400580900205809002060090020600900200B
:102DB40068090020680900207009002070090020BB
:102DC400780900207809002080090020800900206B
:102DD400880900208809002090090020900900201B
:102DE4009809002098090020A0090020A0090020CB
:102DF400A8090020A8090020B0090020B00900207B
:102E0400B8090020B8090020C0090020C00900202A
:102E1400C8090020C8090020D0090020D0090020DA
:102E2400D8090020D8090020E0090020E00900208A
:102E3400E8090020E8090020F0090020F00900203A
:102E4400F8090020F8090020000A0020000A0020E8
:102E5400080A0020080A0020100A0020100A002096
:102E6400180A0020180A0020200A0020200A002046
:102E7400280A0020280A0020300A0020300A0020F6
:102E8400380A0020380A0020400A0020400A0020A6
:102E9400480A0020480A0020500A0020500A002056
:102EA400580A0020580A0020600A0020600A002006
:102EB400680A0020680A0020700A0020700A0020B6
:102EC400780A0020780A0020800A0020800A002066
:102ED400880A0020880A0020900A0020900A002016
:102EE400980A0020980A0020A00A0020A00A0020C6
:102EF400A80A0020A80A0020B00A0020B00A002076
:102F0400B80A0020B80A0020C00A0020C00A002025
:102F1400C80A0020C80A0020D00A0020D00A0020D5
:102F2400D80A0020D80A0020E00A0020E00A002085
:102F3400E80A0020E80A0020F00A0020F00A002035
:102F4400F80A0020F80A0020000B0020000B0020E3
:102F5400080B0020080B0020100B0020100B002091
:102F6400180B0020180B0020200B0020200B002041
:102F7400280B0020280B0020300B0020300B0020F1
:102F8400380B0020380B0020400B0020400B0020A1
:102F9400FFFFFFFF0000020000000000000000002F
:102FA400C90300100D0300108D0700104D08001018
:082FB400ED020010291A0010C3
:04000005100001E9FD
:00000001FF
