:020000041000EA
:1000000000B5324B212058609868022188439860DF
:10001000D860186158612E4B002199600221596106
:100020000121F02299502B49196001219960352056
:1000300000F044F80222904214D00621196600F024
:1000400034F8196E01211966002018661A6600F04E
:100050002CF8196E196E196E052000F02FF8012189
:100060000842F9D1002199601B49196000215960AB
:100070001A491B48016001219960EB211966A021F2
:10008000196600F012F800219960164914480160C1
:100090000121996001BC002800D000471248134993
:1000A000086003C880F30888084703B5996A0420EC
:1000B0000142FBD001200142F8D103BD02B5186610
:1000C0001866FFF7F2FF186E186E02BD00000240BE
:1000D000000000180000070000035F00212200005C
:1000E000F4000018222000A00001001008ED00E03C
:1000F00000000000000000000000000074B24E7A12
:1001000000200420F7010010C3010010C5010010F9
:10011000C1010010C1010010C1010010C101001097
:10012000C1010010C1010010C1010010C701001081
:10013000C1010010C1010010C9010010CB01001065
:10014000CD010010CD010010CD010010CD01001037
:10015000CD010010CD010010CD010010CD01001027
:10016000CD010010CD010010CD010010CD01001017
:10017000CD010010CD010010CD010010CD01001007
:10018000CD010010CD010010CD010010CD010010F7
:10019000CD010010CD010010CD010010CD010010E7
:1001A000CD010010CD010010CD010010CD010010D7
:1001B000CD010010CD010010CD010010CD010010C7
:1001C00000BE00BE00BE00BE00BE00BE00F04BF888
:1001D000103800BEF2EB88712462001040620010FB
:1001E0003402001090A31AE700202149086006C8D5
:1001F00081F3088810471F48006800282FD10DA4FC
:100200000ECC002902D000F012F8F9E71A491B4A77
:10021000002000E001C19142FCD1194988471949E9
:1002200088471949884700BEFDE701C901C29A42C3
:10023000FBD3704740620010C0000020502F002008
:10024000D09000100000042000000420D090001086
:1002500000100420001004200000000070470B482C
:1002600000F0A0FB0047EFF30580C0B2704700002C
:1002700008ED00E0000000D0502F0020E49403209F
:10028000E91A001035250010091C0010575600000F
:1002900006005250ABB36053684B0010060052503A
:1002A000861C0302704B0010060052505422A29D7F
:1002B000784B001005005250DE65F468D0900010B5
:1002C000F8B5C04610B5064C2378002B07D1054B76
:1002D000002B02D0044800E000BF0123237010BDB2
:1002E0005031002000000000304B0010044B10B5CE
:1002F000002B03D00349044800E000BF10BDC046F6
:100300000000000054310020304B0010014804214F
:10031000014B1847F0250020C5090010144A936FBF
:100320009B0815D29066D166002905D0FFE7FFE74C
:10033000FFE7516F106F704704B580210906C2179F
:100340005140002800D0C84304F0D2FB002104BD76
:10035000936F5B08FDD3F0B5946ED56E576F166F33
:10036000FFF7E0FF9466D56657671667F0BD00009B
:10037000000000D0134A936F9B0813D21066516699
:10038000002905D0FFE7FFE7FFE7516F106F7047C7
:1003900004B5002801D00020C04304F0A9FB0021CF
:1003A00004BDC046936F5B08FDD3F0B5946ED56E67
:1003B000576F166FFFF7E2FF9466D56657671667AB
:1003C000F0BD0000000000D094464E4A926F9208A3
:1003D000624601D230E0C046F0B54A4EB56F6D08B6
:1003E000FCD3346E756E776F366F00F025F8944647
:1003F000444A14665566576716676246F0BDC046A4
:100400009446404A926F9208624601D258E0C04634
:10041000F0B53C4EB56F6D08FCD3346E756E776FDA
:10042000366F00F04DF89446364A146655665767A5
:1004300016676246F0BDC046002B24DB11D00029B0
:100440003EDA00B5C943404200D1013100F038F82E
:10045000C943404200D10131DB43524200D1013354
:1004600000BD002AEBD1002801D1002905D00020D1
:10047000C90FC90701D1C043410800B504F030FBE2
:100480000022002300BD00B500290ADBDB435242F5
:1004900000D1013300F014F8C943404200D10131CA
:1004A00000BDC943404200D10131DB43524200D17B
:1004B000013300F005F8DB43524200D1013300BDA7
:1004C000002923D1002B18D1002A0CD0BC460D4F97
:1004D00038667A6600210023FFE7FFE7FFE77A6FBF
:1004E000386F67467047002801D00748010000B503
:1004F00004F0F6FA0022002300BD02000B000020E9
:1005000000217047000000D0FFFFFFFF002B00D04C
:10051000BDE0130C26D1002AE7D080B4104F396615
:100520007A66FFE7FFE730B4040C7B6F396F1B047A
:1005300023433B66FFE7FFE7FFE7C04684B27B6FDC
:100540003D6F1B0423433B66FFE7FFE7C0460023E4
:100550002C042D0C7A6F386F00196941B0BC7047BC
:10056000000000D0F0B594460025140E01D112020F
:100570000835140F01D112010435940F01D19200F6
:100580000235D40F01D152000135D40B0134254F6F
:100590007C66254C3C660E0C93B2FFE7FFE7FFE755
:1005A0003C6F6643360C7703BE467343DF0B5B0438
:1005B000C01AB941130C7343DB18C91ACE0866433D
:1005C000360CB64493B273431F0F1B01C01AB941D6
:1005D000130C73431F0B1B05C01AB941860D8F0204
:1005E0003E436643360C092D24DB520A7243801ABF
:1005F0007703460A6643360C16235B1BDE40DF405A
:10060000BF1964466643821B7046043506330100F9
:10061000D940A840C01900D30131A24206D200231C
:10062000F0BD0000000000D0FFFFFFFF121B0130F3
:10063000F3D3F1E709277F1BFE406446A2B2724361
:10064000801A00D20139220C7243130C1204821A50
:1006500099410B007046043513370100F940A8405A
:10066000801900D30131002B02D1A2420AD2F0BD81
:10067000013000D30131121BFAD2013BF8D1A24262
:1006800000D2F0BD013000D30131121BF7E7F0B505
:100690001C0C00D080E00CB400251C0A04D11B0205
:1006A000160E3343120208351C0B04D11B01160F22
:1006B0003343120104359C0B04D19B00960F334346
:1006C00092000235DC0B02D192185B4101351C000F
:1006D000971864410134464F7C66464C3C660E0CCC
:1006E000FFE7FFE7FFE7C0463C6F6643360C770342
:1006F000BE4697B27743C01B00D20139C01B00D25F
:1007000001399FB27743C91BC91B170C77437E047D
:10071000FF0B801BB941CE086643360C0C2D33DB32
:10072000B644120B1F053A431B0B97B27743C01B0D
:1007300000D201399FB27743C91B170C77433E049F
:100740003F0C801BB941860D8F023E43664329272B
:100750007F1BFE400C3D7746AF40BF1930BCA2B2B4
:10076000ABB272437343801A9941220C7243130C4B
:100770001204801A994102000B000137001BA941A5
:10078000F9D2781E0021F0BD0C277F1BFE40774672
:100790007F0BAF40FF19E0E700245D1C07D0144F2A
:1007A0007D663966FFE7FFE7FFE7FFE73C6F95B23D
:1007B0009EB265436643401BB141150C1E0C654358
:1007C000664336042F0C3E432D04401BB141994231
:1007D00004D202000B0020000021F0BD01D19042A4
:1007E000F7D3801A994101349942F2D3F6E7000019
:1007F000000000D0FFFFFFFF30B5054DAC6F64086F
:10080000FDD3296E6A6E6B6F2C6F1EC030BD000069
:10081000000000D030B5034D1EC829666A666B67BC
:100820002C6730BD000000D007B5604601880A0A79
:100830000230DF2AFAD1C9B2820804D30288408884
:100840000004104300E00068014A5050039007BDC7
:10085000502F0020484041404840064B5B681847F5
:10086000044B1B681847034BDB681847014B9B6818
:100870001847000050300020491A002808D10846C7
:1008800070470000C10FC90700D54042002817D0AB
:10089000F44603B40B4B1B68984706BC81409E3856
:1008A0004042803107D20B0607D04900490AC005F3
:1008B0001043084360470130F8E7490A8902F5E729
:1008C00070470000C494032041000A0E80231B06D9
:1008D0007E2A0BDD9E3A0BDAC1174002400818430E
:1008E0005242D040490001314843704700207047D0
:1008F000C00FC01801387047C0420DD300B540008A
:100900004008002100F012F8002801D4404200BD48
:100910008020000600BD0000034BDB69FC46184741
:100920001CDF65090010000050300020014B5B6A9D
:10093000184700005030002007B5604601880A0AB9
:100940000230DF2AFAD1C9B2820804D30288408873
:100950000004104300E00068014A5050039007BDB6
:10096000503000200021C2158032803201D0024A6E
:100970001047002070470000CD2A000001480421E4
:10098000014B184748260020C5090010014B1B6881
:100990001847000048260020014B5B6818470000FC
:1009A00048260020142310B50100188804331B8842
:1009B000984710BD162310B50100188802331B8814
:1009C000984710BDF8B54746CE4680B50F1E19D0E2
:1009D00014239946043304000025012698464B460B
:1009E0001888434621681B88984701C4431E9841D4
:1009F000013540420640AF42F1D13000C0BCB9469B
:100A0000B046F8BD0126F8E7EFF3108072B6034A4E
:100A10001368002BFCD0BFF35F8F70472C0100D010
:100A2000BFF35F8F0022024B1A6080F3108870477B
:100A30002C0100D0F8B5CE464746914680B5EFF37D
:100A4000108C72B6104D2B68002BFCD0BFF35F8F5B
:100A5000CB08C45CC7180720260001230840C64005
:100A60001A00324033420BD1834023433B70BFF323
:100A70005F8F2A608CF31088C0BCB946B046F8BDC1
:100A8000484601F0C3F8C0462C0100D0F0B54F46EF
:100A90004646D646C0B51700089A050088469A42D1
:100AA00065D8190E18020023FFF7AAFC314B6C0021
:100AB0009C466419A400644463688146984200D946
:100AC00060602B1FDBB29A46012B2CD9C0238022F9
:100AD000294EAD009B017159234312011A60002970
:100AE00005D07069FFF746FC01300138FDD122685E
:100AF0007F017A40E0278023174052465B01234361
:100B00001F60012A26D9802380229B0123431201E2
:100B10001A604B4601206360089B7351E0BCBA46E3
:100B2000B146A846F0BD4346012BCFD1C0230322D6
:100B30009B0123431A60023AA3681A42FCD0E023C7
:100B400022687F0157401F4080235B0123430A4EE8
:100B50001F60AD0042462168514003220A401A60DE
:100B6000012243469A40A3681A42FCD0CBE70020FA
:100B7000D4E7C046008000406C94032030B50C20C0
:100B800083B001F0BBFC00F059FF00280ED09A4B57
:100B90009A4A1A605A609A60DA601A615A619A61D8
:100BA000DA611A62964A5A6203B030BD954CA0676A
:100BB00001F0ACFC0122944B1A60636C012BFCD158
:100BC0000322924B1A608F4A936B012BFCD1C022F7
:100BD0008F4B92011A608F4B8F491A6010008B68FF
:100BE0009843031EFAD1022401218C4A8C48063313
:100BF000009400F02BFF05238A4A01218A480094C3
:100C000000F024FF894B5A68FF2A02D88022520044
:100C10005A608022784C7D4B21691201834D1A6005
:100C2000002905D06069FFF7A5FB01300138FDD12F
:100C3000E0217E4B02201A681140802252012A4393
:100C400011601968484003210140116004219A682D
:100C50001142FCD08022802192012A4309011160B7
:100C6000802252005A60724B2361724B5968FF29EF
:100C700000D85A600321644A6E4B116002399A68A9
:100C80001142FCD0E0201A681040802252011A4321
:100C90001060186848400321014002201160654936
:100CA0008A681042FCD080229201134380221201F4
:100CB0001A608022604B52004A6063615F4B596842
:100CC000FF2900D85A6080225D4BE16912015B4D1B
:100CD0001A60002905D06069FFF74CFB013001382C
:100CE000FDD1E02255490B681A4080235B012B435C
:100CF0001A60802380229B012B4312011A608022FC
:100D00003E4B52004A60E3614E4B5968FF2900D8C0
:100D10005A6080224C4B216A12014A4D1A60002908
:100D200005D06069FFF726FB01300138FDD1E022D4
:100D300044490B681A4080235B012B431A608023CF
:100D400080229B012B4312011A60802380225B00CA
:100D50004B602A4BD20223623C4B5968914200D22D
:100D60005A6080223A4B616A1201384D1A6000299C
:100D700005D06069FFF7FEFA01300138FDD1E022AD
:100D800032490B681A4080235B012B431A60802391
:100D900080229B012B4312011A608023DB024B60EF
:100DA000174B63622B4B5A68FF2A02D880225200ED
:100DB0005A608022284BA1691201264D1A60002931
:100DC00005D06069FFF7D6FA01300138FDD1E02285
:100DD00020490B681A4080235B012B431A60802353
:100DE00080229B012B4312011A6080235B004B6021
:100DF000114BA361D8E6C0466C940320006CDC0262
:100E00001BB70000008000403CB0004030B0004004
:100E100000E0004000F0004000C00040002F685992
:100E20000080024000389C1C00C00240308000401E
:100E3000001BB7003C8000404059730754800040BD
:100E400054B000406080004060B000406C800040C2
:100E50006CB000404880004048B00040014B80002A
:100E6000C05870476C940320132370B51D78012D72
:100E700010D00BDD1948FFF79DFD194C01008022B1
:100E80002000FFF789FD022D01D070BD144C154BD9
:100E9000A364FAE7134B124C23606360A360E36022
:100EA00023616361A361E36123626362A362E3621E
:100EB00023636363A363E36323646364A364E364FE
:100EC00023656365A365E36523666366A366E366DE
:100ED00023676367A367E367A364D6E7534400000F
:100EE000502F00202908001030B5002589B00400DB
:100EF0000922002101A80095FFF748FD09220021E1
:100F000005A80495FFF742FD4B236A466846137017
:100F100004A903F0FDFD1521082220006944FFF714
:100F20003BFD09B030BDC046132310B512481C78F4
:100F3000FFF740FD0100012C0AD003DD80220F489D
:100F4000FFF72AFD0E48FFF72DFD0E4B186010BD70
:100F50000A4C54222000FFF71FFD0B4B6365A3656D
:100F6000E36523666366A366E36623676367A36737
:100F7000E3672362E361E5E7534600005030002059
:100F80004C330000C494032039090010094A83003F
:100F900094464022634410B51C68C0006240C024DF
:100FA00014408022520113431C60034B9C46604452
:100FB000416010BD04C0014000400140074BC0002B
:100FC0009C466044036809025940C0239B001940B5
:100FD00080235B01184301607047C0460440014014
:100FE00001238340002904D0034A1360034A13609D
:100FF0007047034A1360FBE780E200E000E100E095
:1010000080E100E0024B10309B688000C0587047C0
:1010100000ED00E070B50D00EFF3108672B60F4AD8
:101020001368002BFCD0BFF35F8F0D4B10309B6813
:1010300084001B590B4A934203D09D4201D000F01B
:10104000FDFD074B9B681D51BFF35F8FBFF35F8FA3
:101050000022024B1A6086F3108870BD240100D074
:1010600000ED00E0CD010010F0B5DE4657464E46DB
:101070004546E0B50C0083B0EFF3108A72B65E4AC5
:101080001368002BFCD0BFF35F8F10229146814480
:101090004A465A4B96009B689D59594B98469D422B
:1010A00005D0A54216D0574FEB1B2F2B14D9534B0D
:1010B0009B689D51BFF35F8FBFF35F8F00224E4B44
:1010C0001A608AF3108803B0F0BCBB46B246A9464A
:1010D000A046F0BD1D00EAE7012383409B465A4627
:1010E000494B1B681A4000925A46484B1A60BFF39E
:1010F0005F8FFFF7B8F80190002803D0814501D039
:1011000000F09CFD0123290099438B68A34268D01D
:101110000A0007E043001B189B00FB189868A042D8
:1011200011D01A00062010560028F3DA009B002B7D
:1011300005D05A46364B1A60334B1A60B7E75A4609
:10114000324B1A60B3E706201856002821DB420014
:10115000111889007C188846A1689960E179D971D5
:1011600006216156997100292BDBA488F91A6405C0
:10117000241544440919E0240905490D240221439A
:1011800099801218234B9200BF181A781870BA7100
:10119000CCE70198002817D1FF3090711E4890804D
:1011A0001C4AC91B1078891098718B005B181801B4
:1011B0001B1818021B1818041B185B005B1813700F
:1011C000B4E7BD210902DBE7144A1549D21A083AEF
:1011D0005002400D01439980124952080A43DA80B7
:1011E000A4E7062008560B000028B0DA019A002A6E
:1011F000EAD14546D4E7C046240100D000ED00E026
:10120000CD0100100026002000E100E080E100E0B8
:1012100080E200E0DF94032000BDFFFF3A260020BB
:1012200000F0FFFF00F8FFFF032310B50400074A9A
:1012300018409446C0009C43FC33834064442268B9
:1012400081409A4313000B43236010BD00E400E08B
:1012500070B5012504000543FFF705F8EFF3108C86
:1012600072B6244A1368002BFCD0BFF35F8F224E66
:101270008000A11B89108A0052181301D218130292
:10128000D2181304D3181D4A5B005B1891680958E3
:10129000A9421CD00622B2569A421CD01222B25643
:1012A000934222D01E22B256934220D02A22B25616
:1012B00003219A4210D0124A11781370A171BFF322
:1012C0005F8F00220B4B1A608CF3108870BD926800
:1012D0000C491150EFE700214A005218FF219200FB
:1012E000B218917108499180E5E70121F4E70221E4
:1012F000F2E7C046240100D00026002000ED00E007
:10130000DF940320CD01001000BDFFFFF0B50022E7
:101310000324FF27802620003D00094B11009C4636
:101320001040C0008540A14361440B680132AB43CB
:10133000350085402B430B60202AECD1F0BDC04620
:1013400000E400E0024B9C46614489000160704764
:101350004000003403BDC04610B50400FFF7D6FFBF
:10136000A04710BD8022054B520205491A600B6848
:101370001342FCD0034B1A607047C0460420014062
:10138000040001400430014030B5224A224B87B0AE
:101390009A4201D2012252421300204900245050A7
:1013A000043152501E4A1F49002099501E4A002104
:1013B0009268009001910392184A01219446634477
:1013C00004931A4B00250593D02302911B0602308B
:1013D000002C14D01A6D1042FCD05C6540BF1A6D11
:1013E000114203D120BF1A6D1142FBD09A6DA24267
:1013F0000AD000256C46AA00A458E9E79A6D1A6D38
:101400001142FBD140BFE5E70135052DF2D907B008
:1014100030BDC0460008042000000420F40700008E
:10142000FC0700005913001000ED00E055130010F8
:1014300010B5040000F04CFD01002000FFF782FF12
:10144000FF232371BFF35F8F10BDC04670B5050049
:1014500014001600002915D00C00002A12D0806854
:101460006B689847296800280ED073009B196200AA
:10147000033B1219CB18033A9C7088188A5C002A27
:1014800015D10670200070BD63001B197200033B6C
:101490009219CB18033A9E7088188A5C002A02D1F0
:1014A00004703400EEE75A7004703400EAE75A70B2
:1014B0000670E7E7F0B5C64605000F0000B510213D
:1014C0000120160000F0ACF9EBB204000373032115
:1014D00047602800984600F0A3F9002363730133A6
:1014E000A3734346FF21E373FE232060A6602940D7
:1014F0002B4206D0421CFD3B0133137003328B425A
:10150000FAD34B00591800234018033843702000C9
:1015100080BCB846F0BDC046F8B5CE46474606008A
:101520000C0080B5002907D04D0003686D18033DFD
:101530005A195778002F04D12000C0BCB946B046D4
:10154000F8BD7900C919033988464344597889465A
:1015500000215970517073683A00210080689847E3
:101560003368002814D042469A18947059195B5D6C
:10157000002B00D053700F70270049463000FFF752
:10158000CBFF390002003000FFF760FF0400D3E713
:10159000424641465D19AF709A185B5C002B00D043
:1015A0006B701470E9E7C046F0B557464546DE4615
:1015B0004E46E0B50D006B0001685B19DF1E0400AC
:1015C000C85D83B00192CA1900284CD043001B1893
:1015D000033BCB185E78B446002E16D1019E002E38
:1015E0003ED1E67B002E04D073009B19CB18033B41
:1015F0005D70E57300282FD10023537003B0F0BC59
:10160000BB46B246A946A046F0BD72006244033A0A
:1016100089184A78904600224A7091465A70010013
:1016200032002000FFF712FF43468246002B07D00E
:101630005B0021684344033BCB185A78002A16D13B
:10164000424651462000FFF701FF2168019BCA195D
:10165000002BC6D00028CFD043001B18033BCB186B
:1016600000219970C8E7019B002BC5D1B9E7500054
:1016700080180338091848788346484648705870DF
:1016800041462000FFF7E2FE594680462000FFF762
:1016900043FF414602002000FFF7D8FE8046CFE717
:1016A000F0B557464546DE464E46E0B583B001915B
:1016B000457B04006B0000685B19DF1EC15DC21929
:1016C00000294ED04B005B18033BC3185E78B4462C
:1016D000002E18D1019E002E40D1E67B002E04D0B2
:1016E00073009B19C318033B5D70E573002931D16A
:1016F000002328005370617303B0F0BCBB46B246B0
:10170000A946A046F0BD72006244033A80184278B0
:1017100090460022427091465A7020003200FFF736
:1017200095FE43468246002B07D05B002168434468
:10173000033BCB185A78002A17D142465146200065
:10174000FFF784FE019B01002068C219002BC4D062
:101750000029CDD04B005B18033BC31800209870C4
:10176000C6E7019B002BC3D1B7E7500080180338B0
:10177000091848788346484648705870414620000A
:10178000FFF764FE594680462000FFF7C5FE41463C
:1017900002002000FFF75AFE8046CEE770B5040035
:1017A00000292CD0437B8B422ED00568480040187E
:1017B000033828188278002A21D053009B18033B55
:1017C000EA5CEE188A4202D11BE0002A08D05300DE
:1017D0009B18033BEB185A788A42F6D142785A702C
:1017E00000230022837043702000FFF7DDFE617B41
:1017F00002002000FFF72AFE6073012000E00020B5
:1018000070BD43783370EBE700221900FFF7CCFE80
:1018100060730120F4E7C04610B502F007FD10BD6B
:1018200010B502F0A3FC10BDF0B5D6464F464646B3
:101830008846C0B505240600FFF7E6F843461F7941
:101840001C57284B8146F01843425841264B9A4674
:1018500083009C4653466246985801222023BA4092
:10186000DB1B013A002C32DB9C422DDCA240150030
:10187000104229D1002F1AD043465A781978120203
:10188000114342469B78D2781B040B4312061A433D
:101890009046002241465300C95A4B0B00D109190A
:1018A000131912339B00013299519742F2D85346D3
:1018B000624605439D504846FFF7B2F82000E0BC61
:1018C000BA46B146A846F0BD084800F09FF9002B83
:1018D00002DAF9E7013BF7D315009D401C000542F1
:1018E000F8D1C7E70000D0AF54930320A84B0010F5
:1018F00010B50400FFF788F8094B0021E3185A429D
:101900005341084A9B00995000231A00123292005A
:1019100013510133202BF8D1FFF782F810BDC046D8
:101920000000D0AF54930320F0B54E464546DE4646
:1019300057468A464900E0B50D0080465544ED0003
:1019400045448946290009AC2678DC31741EA6413D
:1019500008687442844614481F26834626405E4425
:10196000052B0CD9A0201F274005D835540104436E
:101970000532053B0C603A402E60052BF6D84946EF
:101980005144C900414452019B0613430A00080018
:10199000DC3213606346D83006601360F0BCBB468F
:1019A000B246A946A046F0BD80E00000F0B5012592
:1019B0008D400468AC434D0004606C18E4000419C9
:1019C0002600C836002B2AD01F68DC3437605F68D9
:1019D00077609F68DB68B76023606D18EB001D00BF
:1019E0008024D035451964012C4380252D062560BF
:1019F0002560114C0D1D8C40846001242700AF40F0
:101A00003D0008318C401F2106680A4035430560BF
:101A100005682C430460C018D8300260F0BD8027F0
:101A20007F023760F8277F027760C027DC343F03EE
:101A3000B7602360D1E7C04601010101024B18687D
:101A40008007C00F7047C04600C00640F0B5C646CC
:101A500000B51E0006AB1F7801235B4243600023E4
:101A60000400836001600C209046FEF783FC410176
:101A7000091A8D01691AC900091889014046FEF743
:101A800079FCC021231D890119432123A0600B602B
:101A90002268002AFCDA08233F0336043E43E6604E
:101AA0000B6080BCB846F0BD10B5002800D110BD59
:101AB00000F096F9FBE7C04610B5094A0300146828
:101AC00084B0002C08D0012200910648524203A99C
:101AD000A047012004B010BD00F090F90020F9E704
:101AE000A8940320A91A0010F8B52B4A2B4B2C49B7
:101AF0001A602C4A2C4B1A6014008B689C43FBD153
:101B00002A4D2B4EB54208D2013E761BB60808CDB1
:101B1000984723000134B342F9D1FFF72FF8254A43
:101B2000214B1A601E4A9368DB43DB01DC09002B62
:101B3000F9D14022204B214D214F9A675A671A67ED
:101B4000DA66BD420BD20026013F7F1BFF0828004A
:101B5000FFF76EFC083533000136BB42F7D1194E52
:101B6000194DC022A9683000FEF716FFAE6000F0E4
:101B7000A1F9FFF7CBFB00F045FB144D144EB54225
:101B800008D2013E761BB60808CD984723000134E1
:101B90009E42F9D1F8BDC046BFCDFFFF00E0004036
:101BA00000C00040FE7F3C0000F00040382F0020C5
:101BB000482F0020FFFFFF0100F00140302F0020E0
:101BC000382F00200000002000ED00E0482F00200A
:101BD000502F0020094A03001068002805D008494A
:101BE000C3188B4207D21360704706480449C318D4
:101BF00010608B42F7D301204042F5E7A494032004
:101C000000000420E494032000BEFDE70FB400B5FB
:101C1000084883B000F0F2F8049B002B07D005A918
:101C200018000191FFF748FF034800F0E7F800BEF5
:101C3000FDE7C046BC4B0010CC4B001010B501486E
:101C4000FFF7E4FFD04B0010F0B546464F46D646AE
:101C50008046C0B50E00171E3FDD4B1E9946214B36
:101C60000125002400209A460DE04B461B5D0D3BEC
:101C70005A425341325DDBB20A2A0BD02B000134A9
:101C800001359F421ADD002CEFD14346325D1B7CAB
:101C90000A2AF3D1002BF1D1A04204DA4346211ADB
:101CA0001B6830189847434650461B6802219847E6
:101CB000013428002B0001359F42E4DC874204DD1B
:101CC0004346391A1B6830189847F619013E337895
:101CD0000D3B5A42534142461374E0BCBA46B146EA
:101CE000A846F0BDDC4B0010F0B557464546DE4631
:101CF0004E46D023E0B51B061C68354B83B0070069
:101D00000D00180001A990469A4602F0F9FE81469E
:101D1000002807D1019B9C4204D0504602F000FFEE
:101D2000012399466B1C03D1380002F06DFD0500BC
:101D3000284B1C68002C2FD00A23274E9B4602E01C
:101D4000E468002C28D02268002AF9D03368002BE0
:101D500001D0A342F4D1637C002B27D02A003900A4
:101D60002000FFF771FF4346002BE9D06B465A462F
:101D70001A71637C002B1DD0237C002B23D0012102
:101D8000236801A898476B461B790D3B5A42534183
:101D90002374E468002CD6D14B46002B0FD103B03E
:101DA000F0BCBB46B246A946A046F0BD29003800AB
:101DB0009047D8E70121236801A89847C0E750461B
:101DC00002F086FEEBE70221044823689847DAE731
:101DD000302F002098940320A0940320DC4B0010A7
:101DE00010B582B06B4604000022D81D012104709A
:101DF000FFF77AFF200002B010BDC04670B50400A6
:101E000002F002FD0122010005002000FFF76CFF37
:101E1000084B1C68002C06D06368002B05D098473F
:101E2000E468002CF8D1280070BDE468002CF3D1E0
:101E3000F9E7C04698940320F0B583B006000C0083
:101E40001500FFF7FBFD002801D003B0F0BD164FD1
:101E500001223B00012100970530FEF717FEEBB28F
:101E600032000093012123001048FFF7EFFD21000D
:101E700030006943FEF77EFA04000D4B0022009308
:101E800002210420FEF702FE23000022012100941B
:101E90000520FEF7FBFD3B000222002100970620F3
:101EA000FEF7F4FDD1E7C046006CDC020080024082
:101EB000001BB7000021044B044ABFF35F8F02C32D
:101EC0009342FAD17047C046000100D0800100D093
:101ED000044A1078431CDBB2172B00D9102313706F
:101EE0007047C0465826002083680B4810B58446CA
:101EF00061446244090112019A18591854684B68E8
:101F000001209C4201D802D00020C0B210BD12684E
:101F10000B689A42F9D8F7E7FFFFFF0FF8B5DE46E6
:101F200057464E464546E0B51F000DAB1B780500F1
:101F30009B460C9B1600002B45D03F4A0C9B9446B9
:101F4000DBB2AA689A460C9B2C68634494461B013A
:101F50000A9A63449A600B9A1E60DA600C9A5F607A
:101F600094460C9B00225B006344033B9846236825
:101F700043449A705A701A70637B9946002B42D082
:101F800052461900A06863689847226800282BD041
:101F90004B465B004B44033BD1188C4641464846B8
:101FA00051188870D35C002B42D15346624613709F
:101FB0004B4663730C9B994527D0F0BCBB46B24699
:101FC000A946A046F8BD0268947B002CF5D01168A4
:101FD00063008C461B196344033B5B789373002BAF
:101FE00000D1D3730C94A8E74346D1184B46504612
:101FF0005B004B44033BD31898704046125C002AA8
:1020000018D14B460B705346637332003B00287D5A
:1020100000F0ECF9041E06D05B46002B03D15146BC
:102020002868FFF7BBFB0E9B002BC6D01C70C4E7D3
:102030004B70BAE75A70E4E7FFFFFF0FF0B5DE46DA
:102040004E46574645460023E0B58DB00A936B4B8C
:102050008200D3580B90994600239B464B4607932A
:1020600000F074F9079C06000F006268EFF310851A
:1020700072B61368002BFCD022000794BFF35F8F69
:102080002468637B9946002B67D092685C4B90462E
:102090004B441B01984443461A685B6810001900C2
:1020A000801BB94100295FDD0B9800F09FF90023E8
:1020B0000026984600279A46079C6368BFF35F8F07
:1020C0005A461A6085F310885346002B08D1002821
:1020D000C6D10DB0F0BCBB46B246A946A046F0BD85
:1020E0000A9B414618024B461843D0470890099175
:1020F0006268EFF3108572B61368002BFCD007946A
:10210000BFF35F8F0899099A002A48DB114303D077
:10211000079B1B69002B5DD1079B1B68D97B00299E
:1021200007D04A00521819688C4649466244033A5F
:1021300051704A46DA734B46079A013BD168CA5C34
:102140000132CA545B46079A13615368BFF35F8F2D
:102150005A461A6085F3108882E7002300269846C5
:1021600000279A460020A7E7002901D100289BD12B
:1021700001212000FFF794FA43461E685F689B68C0
:10218000079A9A464346DB689846D3684B44013B1E
:102190001B780A931B020343136100208CE7236919
:1021A000002BB9D033003C005B1A94411A00230085
:1021B000A74219D89F421BD059460491012103918F
:1021C0004946029141460191514607980091FFF717
:1021D000A5FEB7E700F0BAF8089A099B06000F00C1
:1021E00092197B419942E5D901225242D317E3E784
:1021F0009642E1D901225242D317DDE7AC94032085
:10220000FFFFFF0F70B5184C2368002B00D070BD86
:10221000032000F08FF8032000F04AF9134903204F
:1022200000F09EF81820FFF7F7FA0500FFF750FEC0
:102230000F4B2A009C46604480000E4968601020C5
:10224000FFF738F9102128601020FFF7E9FA012183
:10225000A8601020FFF7E4FA03232B75064BE86013
:10226000DD602560D3E7C046949403203D20001034
:1022700040000034E91E0010AC940320F0B5D646AF
:102280004F464646C0B5EFF305833F221340180082
:102290001038EFF3108C72B6204D2A68002AFCD05B
:1022A000BFF35F8F0122110081401D4C884661639E
:1022B0001C4917000E788A463100C1400F400A427F
:1022C00009D1BFF35F8F2F608CF31088E0BCBA4652
:1022D000B146A846F0BD14498200646A51588C4248
:1022E0000FD3124BD25843469E4353461E70BFF342
:1022F0005F8F00232B608CF31088002AE6D0904774
:10230000E4E70B4A9B00904643441A681A60BFF307
:102310005F8F00232B608CF31088D7E7280100D053
:1023200000400540E0940320C89403205C93032000
:10233000D03F054010B50100024A0348FEF77AFB82
:1023400010BDC046E04B0010DE940320034B596AD9
:102350000A00986A596A8A42FAD1704700400540DB
:1023600070B504000D00EFF3108672B61A4A1368B8
:10237000002BFCD0BFF35F8F002D1BD02000FEF799
:1023800041FE164981420AD02000FEF743FE01219A
:102390002000FEF725FE0123A340114A1360114BD4
:1023A000A400E550BFF35F8F00220B4B1A6086F349
:1023B000108870BD0B4BA200D5500122A2400A49E3
:1023C00020000B7893430B700449FEF74DFE00216B
:1023D0002000FEF705FEE5E7280100D07D22001071
:1023E000386005405C930320E0940320F0B5CE46AE
:1023F000474680B52A4C616A0D00A66A616AA94207
:10240000FAD18B4207D804D00120C0BCB946B046EF
:10241000F0BDB242F8D9EFF3108972B6214C2168B1
:102420000029FCD0BFF35F8F012585401C4C1E4F57
:102430006563E9B2884639788C4641466646314341
:102440003970011D89000A51184980004350216AE2
:10245000002029420BD0616A0800A66A616A8142A5
:10246000FAD18B4202D80AD1B24208D90020BFF378
:102470005F8F00220B4B1A6089F31088C5E7084B69
:1024800042461D625D636346934301203B70BFF388
:102490005F8F0022034B1A6089F31088B5E7C046AE
:1024A00000400540280100D0E0940320C894032098
:1024B000EFF3108C72B60A490B68002BFCD0BFF307
:1024C0005F8F01238340074A0748136202789A43CB
:1024D0000270BFF35F8F00230B608CF3108870478E
:1024E000280100D000400540E094032010B50248C8
:1024F000FEF7FAFC10BDC046BC9403208023024ABC
:102500009B000343D362704700800540AA23064A1C
:102510001B0113602F230549D360054B19605368D5
:10252000002BFCDA7047C0460040024000B0FA00C1
:102530000060024010B50D4C86B00022032102203D
:102540000B4B009401F01CF90423049303930C3308
:102550000293EF3300934022064907480194473B1A
:1025600001F0AAFB002006B010BDC04624520010A6
:102570006C310020044C001070510320A02370B572
:1025800002242A4A2A49DB0519605A60294A9C60BC
:102590001A610022284B29481A60586028489A601E
:1025A0001861284B587800280DD02748274D016026
:1025B00045608460264C04612648274C02604460D4
:1025C0008260264A02619A78002A0FD0244A254860
:1025D00011605060022090602348244C106100205C
:1025E000234A10605460906022481061DB78002B11
:1025F0000FD0214B214A19605A6002229A60204A6A
:1026000020491A610022204B1A6059609A601F4AC3
:102610001A6102221E4B0B201A601E49FEF7FAFCBB
:1026200000210B20FEF700FE70BDC0467800005070
:10263000A8510320F9841F004000005010002050D2
:102640001B0060002867032080000050F800005045
:10265000F9941F00C0000050140020501B9060002F
:102660000001005078010050F9A41F00180020500C
:10267000400100501B20610080010050F801005013
:10268000F9B41F001C002050C00100501BB06100B5
:102690000424005099240020F0B5CE46474680B56A
:1026A00099B05C4808ACFFF723F922005A4B23CBC2
:1026B00023C223CB23C21968584D11609B8855480B
:1026C0009380EE8A564BB21E120213439BB26A46A7
:1026D0002383A3830F2302A913730233537302943A
:1026E000FFF7A2F84F4B1B78002B61D1002420008C
:1026F00006210134FEF74AFC092CF8D15723EB5C84
:10270000002B00D181E0484B00249846002C03D0D8
:10271000464B1B5D002B36D00123002221003D4893
:1027200000930833FFF700F943461E5D404B360522
:102730001B5D1E430796AF8A3800FEF79DF8814661
:102740003800FEF79FF8011C4846FEF786F88721FF
:10275000C905FEF78BF8FEF7E9F8C0B23B040002AA
:102760001843344B04900693002C14D0324A294865
:10277000537A917ADB0109030B4305932100D27A46
:1027800004ABFFF713F90134042CBFD119B0C0BC5E
:10279000B946B046F0BD294B13220593284B0021C2
:1027A0001E431C4804AB07960134FFF7FFF8AFE760
:1027B000214B200098461B7A5A00994643461968D7
:1027C000FEF7EAF843469B7B9C46002B11D041461E
:1027D00000200F314B780A78F31ADF435200FF17BD
:1027E0003B40A75A1B023B430130A35202316045D4
:1027F000F0DB6B464A461A7300236A4602A9054875
:1028000002945373FFF710F870E701210820FEF7D8
:10281000D5FB78E700002050844C0010B4660320FC
:1028200008600000D99403207C260020286703203C
:1028300024670320000006408466032080FD010019
:1028400000200020F0B54E4645465746DE46882318
:10285000E0B55F485F4F418C5F4ECA1E12BA1A4303
:102860003A60848C9C460E3C230425022D0E334096
:102870002B43FF252D022C402343A02423437B60C0
:10288000C023BB6003884034023B1BBA2343FB6078
:10289000078C83B0043F3B043C02240E33402343A7
:1028A000A0242F403B434D4F23433B604C4B1A60C9
:1028B000C28B9846571A3B1F99464C461B0424026C
:1028C000240E334023434C462C402343A02423436F
:1028D000444663605623C35C002B60D064464808BE
:1028E000C31E1BBA1C433F4BA0461C605408271A4A
:1028F000A1463C1FA246270424023740240E27434A
:1029000054462C402743A0243C4301945C60444639
:1029100001325210101A04389C6004043440A2465C
:102920000402240EA34654465F4628403C432043FD
:10293000A0242043D86048466446401A033800BAB1
:1029400020431861081F8146000406404846521A79
:1029500061460002000E06434846033A12BA0A4393
:102960009A614246054004201A62019A35431834A0
:102970005A621D491D4A2C435C61DC6110330860BA
:102980004B601060536000238B60CB609360D3601A
:1029900003B0F0BCBB46B246A946A046F0BD6246B5
:1029A000A0240220033F04393FBA17430A0416400B
:1029B0000A02120E1643294031430A4B0B4A0C43BC
:1029C00009491F605C6008604B6010605360DAE783
:1029D000B4660320887E032000FFFF00847E03206E
:1029E0007C7E0320987E0320A8510320085C0320EE
:1029F000A02102230220274AC90570B58B508B58AD
:102A00001842FCD10123A0208B5001222149C0058E
:102A100043581A42FCD1A024012001261D4AE40596
:102A200031008140A150A3580B42FCD13100431E1C
:102A30009940A150A3581D000D400B42FAD102301D
:102A40000928EDD100210230FEF7CAFA0223124A0A
:102A500012481360124A1349A3500F22036893438C
:102A600003600368E1321343036080230E4A1B06B0
:102A7000136013600D4A15600B600B600C495560C4
:102A80000B600B600B4995600B600B60D560FEF727
:102A90002FFF70BD4404000004340050000020509B
:102AA0000C040000E8102050D0102050686603206D
:102AB0000011205018112050F0B5C646052300B56E
:102AC0006B4C050023705133C35C002B25D1868EDF
:102AD0000134002E05D0200032000021FDF756FF02
:102AE00034192E8F002E05D0200032000521FDF76D
:102AF0004DFFA4196E8F002E05D020003200062154
:102B0000FDF744FFA419AA8F002A03D00521200055
:102B1000FDF73CFF80BCB846F0BD838E01345E08F3
:102B200006D0200032000121FDF730FFAB8E3419B2
:102B3000DB0702D5022323700134EE8E760805D020
:102B4000200032000321FDF721FFA4192E8F002E53
:102B500005D0200032000521FDF718FFA4195823E5
:102B6000EB5C6E8F002B6ED1002E05D02000320062
:102B70000721FDF70BFFA419AE8F002E05D0200012
:102B800032000521FDF702FFA419EF8F7E0806D061
:102B9000200032000321FDF7F9FEEF8FA419012375
:102BA0001A003A403B4202D00333237001344223DF
:102BB0009846EB5A9A1AD60FB618761007D020000E
:102BC00032000121FDF7E2FE4346EB5AA419DB1B5C
:102BD000DB0702D50223237001344423EE5A760822
:102BE00005D0200032000321FDF7D0FEA4194623B2
:102BF000EE5A002E05D0200032000521FDF7C6FE5A
:102C0000A4195823EB5C002B26D04823EE5A002E43
:102C100005D0200032000821FDF7B8FEA4194A2390
:102C2000EE5A002E05D0200032000521FDF7AEFE41
:102C3000A4194C23EA5A520800D16BE70321200063
:102C4000FDF7A4FE66E7002E96D020003200092191
:102C5000FDF79CFEA4198FE74823EE5A002EDED024
:102C6000200032000A21FDF791FEA419D7E7C046E3
:102C7000DC880320F0B5DE464E4645465746040044
:102C8000E0B583B00190FFF7B3FE2000FFF714FF1B
:102C900080229146403A9046FF22FF2712060023E9
:102CA00020251026944656493F0424E0FF200022A8
:102CB000000244461C4200D002001D4200D03A43AC
:102CC0001E4201D0604602430A601A0719D4FF2051
:102CD000002200025C0700D50200980700D53A43A5
:102CE000D80701D5604602434A608022013308318B
:102CF0005200934208D04A461A42D7D0FF22414898
:102D0000D7E7FF223F48E5E7012481320021FF3267
:102D10003D48FDF73BFE019D5C2229003B48FDF745
:102D20003BFE3B4B3B481C60002381463A4A3B49F3
:102D300013603B4F3B4A03703B4B11603800190056
:102D400003229A46FDF728FE002124223748FDF78A
:102D50001DFE4946AB7E364E4B70EB7E03378B70C3
:102D60002B7F3470CB7001239B464B461D5D0322A5
:102D70006900491938005144FDF70EFE002D04D0BA
:102D80005B46A34032781343337001340337042C7D
:102D9000EBD1019B27491A7E274B1A7053009B18D1
:102DA000264A1B019B180A0013CB13C213CB13C274
:102DB00013CB13C213CB13C2FFF76EFCFFF742FD18
:102DC000FFF7DCFB01210B20FEF70AF9A022862386
:102DD0000121D205DB00D1500F2319493278086850
:102DE00013400343F02012020001024013430B6022
:102DF00003B0F0BCBB46B246A946A046F0BDC046F3
:102E0000D8800320FFFF0000BC670320B4660320C6
:102E1000D8880320286703206C510320085C032016
:102E20007866032068660320F04C00102C670320AE
:102E3000D894032084660320D99403202C4D0010DD
:102E40000000205070B500260F4D104CBFF35F8F6F
:102E50002868002806D0012812D0FFF70BFFBFF327
:102E60005F8F2E602368002BF0D09847BFF35F8FF1
:102E70002660BFF35F8F28680028F3D00128ECD1CB
:102E8000FFF7B6FDEBE7C046BC920320A451032038
:102E900000280CD0BFF35F8F064A10601368002B28
:102EA00004D0BFF35F8F1368002BFAD17047013055
:102EB000F0E7C046BC9203200300BFF35F8FC00061
:102EC000C31804489B00C018012322300370BFF3CD
:102ED0005F8F70472C670320F0B5DE464E464546AF
:102EE0005746E0B583B088460CA993460A880DA9D9
:102EF00091460978BFF35F8FC2001418354E0192D6
:102F0000A200B418944622229246A24400275246B8
:102F10001770BFF35F8F62464546B5500E9A6782C1
:102F200062600A0490460A069446424665462A4371
:102F300090460A021143424611434A4622835A46AA
:102F4000A78227842700E160D28A23373A705A4645
:102F50001218527EE3822277042A19D09F08278212
:102F60006383122A34D81C4C9200A2589746591EEB
:102F7000C0239B020B43019A9446604480003018A2
:102F8000836003B0F0BCBB46B246A946A046F0BD84
:102F9000DF08FA1C92102282FF2209031203013B70
:102FA00011405B000B43012167830B43E3E7FF22E2
:102FB000C902D202013B1140194380231B030B437A
:102FC000D9E70649013B5B000B43D4E70123D2E775
:102FD0000023D0E72C670320A44C001000F02F0042
:102FE000BFF35F8F00230380BFF35F8F7047C0463E
:102FF000E423028810B55343C418A1800021E18066
:10300000BFF35F8F01320280BFF35F8F0433C018BC
:1030100010BDC046F0B5002544880F04E3001B1B1B
:103020009B003E0CC2183E4356609560918101881A
:103030001561D18195829561D561BFF35F8F0134B0
:103040004480BFF35F8F0433C018F0BD41618261DB
:10305000BFF35F8F00230374BFF35F8F7047C046D9
:1030600000230374BFF35F8FC1604280BFF35F8FA3
:1030700001330374BFF35F8F7047C046F0B58026FD
:103080000500002308000F2776003A001A40815CF3
:103090001A11825C09025C000A4301332A53B342CD
:1030A000F3D1F0BD10B500240474BFF35F8FC1608D
:1030B00042614380BFF35F8F07230374BFF35F8FC9
:1030C00010BDC04610B5140000220274BFF35F8F1C
:1030D0001A02029B2243C16042614380BFF35F8FAB
:1030E00009230374BFF35F8F10BDC04670B500267F
:1030F00004AC257805AC24780674BFF35F8F426179
:1031000043822202069B2A43C16082614380BFF34F
:103110005F8F0A230374BFF35F8F70BD10B5002467
:103120000474BFF35F8F42614382029A039BC160C4
:1031300082614380BFF35F8F0B230374BFF35F8F04
:1031400010BDC04670B50400080019000023049D9E
:103150002374BFF35F8FE0602088059B8EB2401818
:103160006261A561638066820138FDF7D7F870431C
:1031700020816089290040190138FDF7CFF84543C7
:103180006581BFF35F8F02232374BFF35F8F70BD30
:10319000F0B5DE4657464E4645460023E0B54B7631
:1031A000427D82468B4691B0002A00D190E2DB4BF3
:1031B00051008918595C584682765246927D002A01
:1031C00002D051008918595C5846C2765246D27DC9
:1031D000002A02D051008918595C584602775A7863
:1031E000017694465246547D967D60007200911996
:1031F00007195918DF197F7849789D78B94200DAA4
:103200003900614500DA6146921900199A181818B8
:1032100080789278824200DD0200AA4200DD2A0016
:103220005046C47D600005195D196E788E4200DA43
:103230000E0000191B189C78944200DD14005346C0
:1032400052461B8806939788002F00D11F005346D3
:103250009B68994659681868FDF7FFFA4B469968CC
:10326000FDF7FBFA4B46D968FDF7F7FA4B461B69A9
:10327000079038009846FDF705FB5346DD6804903B
:103280000E955B7E002B30D12800FDF7F5FA414604
:10329000FDF7ECFAA249FDF7E6FA0499FDF7E3FA27
:1032A000A049FDF7DDFAFDF70FFB864200DA40E2A8
:1032B0007E437001801B80008019C000FDF7E2FA98
:1032C0004146FDF7D0FAFC218905FDF7C9FAFDF763
:1032D000FBFAC830854200D915E205000E9053462E
:1032E0001B69AB4201D21D000E930AAB9C460E2611
:1032F0000D23664463440DAF0EA9280001930FAA65
:103300003300009700F082FD5B460E9A0E989A609B
:103310000F9ADA605A46338813823B7893740AAB6B
:103320005B7BD374FDF7A8FA41460390FDF79EFA44
:103330007B49FDF798FA04990590FDF794FA7A49CC
:103340008046FDF78DFAFDF7BFFA0500844200DBE9
:103350000CE20127454601373800FDF793FA011CBE
:10336000061C281CFDF77FFA6F49FDF779FAFDF777
:10337000ABFA8442EFDB05003804000CFDF782FA5B
:10338000BCB208905B4628009C82DD82FDF77AFA89
:103390000799041C0398FDF769FA6149FDF763FA80
:1033A000211CFDF760FA311CFDF75DFA5F49FDF75E
:1033B00057FAFDF789FA07000698B84200DD380091
:1033C000032398435B46211C188080460598FDF72F
:1033D0004AFA311CFDF747FA5449FDF741FAFDF767
:1033E00073FA5B469880DF8043465D434B46039FFC
:1033F0001968381CFDF73AFA4949FDF734FA311CCF
:10340000FDF731FAFC218905FDF72AFAFDF75CFA90
:103410004B4604009968381CFDF728FA4049FDF72F
:1034200022FA311CFDF71FFAFC218905FDF718FA75
:10343000FDF74AFA0700032800DC43E183B2049356
:103440004B4603985968FDF711FA3549FDF70BFA19
:10345000311CFDF708FAFC218905FDF701FAFDF79B
:1034600033FA4B468046D9680398FDF7FFF92C499B
:10347000FDF7F9F9311CFDF7F6F9FC218905FDF797
:10348000EFF9FDF721FA4346E21AD21B121A521B3A
:10349000D30F9B1859104144002A00DA61E1013230
:1034A00053101B18032902DCCB180421043B0C2BFE
:1034B00000DC00E19AB27F18FB1848465D193423FE
:1034C000C05C002802D0EB0700D519E15B461984E7
:1034D0009A8404995246DD8359845346147E5B884E
:1034E000002C25D04A46D18A5A465B00D1859942A4
:1034F00000DDFEE001239943002800D1F0E03623EF
:103500004A46D35C002B00D1EEE04A1016004B1C5B
:103510005B1098B2002C16D0310014E0F04C001073
:1035200000007A44CDCCCC3DCDCC4C3ECDCCCC3E75
:103530004A46D18A5A46D185994200DDCBE000281F
:10354000DDD10A0000235C46618049468E8A91B233
:10355000618705914946A685C98B521A4946098B50
:10356000A18604914946498BE1864C460691D10FCC
:10357000A48B89184910611A8FB259460F874946A2
:10358000098C002A00DAE6E00132521092B28A1A5F
:10359000594692B28A8707924A46528CCA87099244
:1035A000482288524A46528D58469B1A4A46928C67
:1035B0000A921100422281524A46D28C11000B928B
:1035C000442281524946DA0F0C8DD2185210A41AA7
:1035D0004622A4B284528A8D002B00DAB5E0013372
:1035E0005B109BB25946D31A4A228B524B46DA8D56
:1035F0004C230398CA526049FDF738F90899FDF742
:1036000032F92D048046280CFDF73CF9011C404698
:10361000FDF729F95B46051C98623000FDF732F989
:10362000011C281CFDF71FF94A465B46126B186304
:103630001A65534659465A7E5423CA5453461A7E35
:103640005523CA544A46213BD15C584656228154E0
:103650004946213A895C223281544946213A895CA3
:10366000223281544A46D35C002B68D0069A0A99CC
:103670009446049B099A63448C460B9962448C4699
:10368000059962448C460799521062448C465B103F
:103690000133FB189BB2A2189A18624492B25846A2
:1036A0004E2142524022835211B0F0BCBB46B2467A
:1036B000A946A046F0BDC9180D3902293BDB0D22F1
:1036C0000D23F8E6042324180427043C0493B7E6EA
:1036D00000212A4B6FE51900002800D00FE730E7E2
:1036E0000A00002349082EE74A1C4B101E00521006
:1036F0000FE7190001239943002800D0FFE6EFE708
:10370000013D0131E2E6F6197001801B800080194D
:10371000C000FDF7B7F84146FDF7A5F8FC21890583
:10372000FDF79EF8FDF7D0F8C830854200D9D6E500
:10373000D3E50600BCE502210D220D23BBE6049B68
:1037400000220133FB189BB2A9E7591ECB0F5B186F
:103750005B109BB246E7541EE20F1219521092B250
:1037600015E7013AD30F9B185B109AE6FE239B05E1
:10377000012408931E1C05E600007A44F04C00105A
:10378000F0B5D6464F464646C0B5160084B08146D1
:103790000D009846FDF7E6FD9B48FDF7F5FD371C4B
:1037A0000E2E00D90E27FFB22C1C072D00D907249E
:1037B0004B464D46E4B2022B00D90225EDB2A100E2
:1037C000ED002D190C00914BAD00914AEB580234DD
:1037D0008D5AA05AD98A0A1C814200D9021C92B281
:1037E00091463200FD210A3A0A4204D10722494695
:1037F0009143894695433200FD210B3A0A4205D197
:103800000722494695430832914389460022814860
:1038100081498280426142764A46C16012047F49F2
:103820002A430161836002600D2E01D90622427590
:10383000DA8A4946002352088A425B41784C037673
:103840002100FFF7A5FC774E3068FFF7C9FB49461A
:103850003068FFF7CDFB2900FFF7DCFB06000E2FD9
:1038600000D9C2E0704BBF00DB599F460022002107
:10387000FFF7ECFB0C9B01200293002301934B46C6
:103880002200009341462B00FFF726FB0120FFF7A3
:1038900013FBE368E27C5801C01A8000C018A17CC9
:1038A000C000FEF7C9FA2000FFF7F2FA04B0E0BC4E
:1038B000BA46B146A846F0BD5C4B5D499A46180031
:1038C0006F08FFF7DBFB3B00524641463000FFF735
:1038D000E9FB4246574B1A604A46DA6001229D6076
:1038E0001F611A75D5E7EF08FF23002241460097B4
:1038F000FFF7E8FB42464F4B1A604A46DA60032264
:103900009D601F611A75C4E708230735ED10019506
:10391000414630000C9A0093FFF714FCB9E72800E9
:103920000C210B30FCF7FAFC0C230190F0E70F356B
:103930002D1110230195EBE7280018211730FCF713
:10394000EDFC18230190E3E71F356D11202301954D
:10395000DEE7280030212F30FCF7E0FC3023019017
:10396000D6E73F35AD1140230195D1E7FF23019301
:103970000023ED08009302950833414630000C9A6D
:10398000FFF7B4FB4B462900DA0840462B0000F055
:1039900077FB00F09FFB7CE7FF2301930023ED08FA
:1039A000009302951033E8E7214BED086F000C9A65
:1039B0000093414608230197FFF7B0FB4B46DA0816
:1039C0003B002900404600F05BFB00F083FB60E712
:1039D000174BED086F000C9A009341461023019796
:1039E000FFF79CFB4B461A09EAE72A0041463000E4
:1039F000FFF736FB42460F4B1A604A46DA60002258
:103A00009D601D611A7544E7452E00109426002024
:103A1000AC51001088510320C0D40100B01E040036
:103A2000C092032090260020284F0010C07E032063
:103A30008026002070510320F0B5047D052C08D8A5
:103A40009A4DA4002C59A7460469006862434118A6
:103A50008B54F0BD072504696243CC172C406418D1
:103A6000E410141902680D401619426801209049AB
:103A7000AD00495914195A0803408F4607270669B3
:103A8000CC1756433C406418E41005683619AD194C
:103A9000D6173E40B2180669D21072431419426814
:103AA00039401419DA0645D480220A4129780A439C
:103AB0000F212A7022788A4313432370C9E7032514
:103AC00004696243CC172C406418A41014190268CE
:103AD00029401419022900D1CDE0032900D1C5E005
:103AE000012900D1BBE03F2221789B010A4013430A
:103AF0002370AEE7072504696243CC172C40641895
:103B0000E41014190268294014196A4A89005258AD
:103B10009746046900686243CC0F64186410121958
:103B20008218C90713D40F2110781B0101400B43E1
:103B300013708EE780220A4111002A781B018A4304
:103B40002A700F2221780A401343237081E70F2047
:103B5000117881430B4313707BE7012122788A435C
:103B60001343237075E7022122785B008A431343D5
:103B700023706EE7042122789B008A43134323704D
:103B800067E708212278DB008A431343237060E74C
:103B9000102122781B018A431343237059E7202107
:103BA00022785B018A431343237052E74021227835
:103BB0009B018A43134323704BE7012130788843EC
:103BC0000343337023788B431A43227041E7022565
:103BD00031785B00A9430B43337023785200AB4329
:103BE0001A43227035E7042531789B00A9430B4323
:103BF000337023789200AB431A43227029E70825DB
:103C00003178DB00A9430B4333702378D200AB43F8
:103C10001A4322701DE7102531781B01A9430B437D
:103C2000337023781201AB431A43227011E7202529
:103C300031785B01A9430B43337023785201AB43C6
:103C40001A43227005E7402531789B01A9430B43B5
:103C5000337023789201AB431A432270F9E6302186
:103C600022781B018A4313432370F2E622788A43A9
:103C700013432370EDE60C2122789B008A43134303
:103C80002370E6E67F213578DB010D402B4333704E
:103C90002378D201194011432170DAE67F2221787E
:103CA000DB010A4013432370D3E6C046CC51001019
:103CB000E451001004520010F0B55746DE464E465F
:103CC0004546E0B58FB00D9318AB1B780700009305
:103CD0001B9B0692002B00D18BE01C9B002B00D17C
:103CE00087E01B9B002B00DA8AE0029301239B46AE
:103CF000012305931C9B002B04DA5B421C930123D8
:103D00005B4205930B784A1C002B72D01B99C900AB
:103D10000C911A9900296CDD59460B92029A013ACE
:103D20005143059A03911C994A430A92199A944661
:103D3000634408931A9B09930D9B0793089B1A7879
:103D40000133FF3308931C9B04920193079B9A460F
:103D5000069B049E9946082398460BE01B9B9C46B5
:103D6000E14401235B429C46E04443467600F6B2C0
:103D7000002B20D073B2002BF0DA53464C46B246EB
:103D80001E00029DBB68A34208D9FB689E4205D273
:103D9000320021003800009BFFF74EFE013D5C44DD
:103DA000002DEFD13300039A56469A464B46914672
:103DB0005B449944D5E7059B9C46019BE244013B4B
:103DC0000193002BC4D10A9A079B9446634407933E
:103DD000099B013B0993002BB0D10C9A069B94469A
:103DE000634406930B9B01330B93013B1B78002B21
:103DF0009CD10FB0F0BCBB46B246A946A046F0BD70
:103E00005B42029301235B429B4671E7F0B5DE46BD
:103E10004E4657464546E0B587B0009004208A4696
:103E200091460493FDF71AF8FA218900FCF7A2FAEB
:103E30000023514684468E4A0B60830063449446B7
:103E40009B01634402934B46A025D1469A46894E76
:103E500005906D00884A029B94461C00874A644482
:103E6000934200D9DDE0062303959846B4E041462D
:103E700020006943FCF77EFA009BC31ADA179B18EF
:103E80005340B3420CD24A46106052461E001460A2
:103E90000399049A1180109A01991170119A177060
:103EA0007B1EDBB29B46002B00D191E01900200065
:103EB0006943FCF75FFA009BC31ADA179B1853405B
:103EC000B3420DD24A461060524603991460049AD8
:103ED0001E001180109A019911705946119A1170A3
:103EE000BB1EDBB29B46002B72D019002000694339
:103EF000FCF740FA009BC31ADA179B1853409E4206
:103F00000DD94A461060524603991460049A1E0067
:103F10001180109A019911705946119A1170FB1E67
:103F2000DBB29B46002B53D0190020006943FCF7FD
:103F300021FA009BC31ADA179B1853409E420DD9F1
:103F40004A461060524603991460049A1E0011807C
:103F5000109A019911705946119A11703B1FDBB2EA
:103F60009B46002B34D0190020006943FCF702FA6D
:103F7000009BC31ADA179B1853409E420DD94A463C
:103F80001060524603991460049A1E001180109A22
:103F9000019911705946119A1170052F18D02900F6
:103FA0002000FCF7E7F9009BC31ADA179B1853406F
:103FB0009E420DD94A461060524603991460049AF5
:103FC0001E001180109A019911700121119A11702F
:103FD00001235B429C46E0444346DFB27B1CDAB2DD
:103FE00043465D1C2900200069430192FCF7C2F999
:103FF000009BC31AD9175B184B409E420CD9494607
:10400000086051461E000C6003980499019A0880CC
:1040100010990A7011990A704346002B00D026E7C8
:10402000039D029B059A013D9B1AADB202930F2D91
:1040300000D00FE75346CA4699465346009A1B687C
:1040400000209A420DD1109B119A1B78107858438A
:10405000009B434318004B461B68C01A434258411B
:10406000C0B207B0F0BCBB46B246A946A046F0BD00
:1040700080E5F9FFA0860100801A0600804F12003B
:1040800010B50C4C20600C4801600C4849000260DF
:104090000B4A0C481360002202600B4802600122A8
:1040A000994200DC0022094B1A700F22084B1A704B
:1040B00010BDC046C0800320C8800320C4800320F8
:1040C000CC800320D0800320D4800320DB94032005
:1040D000DA940320F0B54F46D6464646C0B51B4B92
:1040E0001B4F1D783B68002B25DD1A4B0026994697
:1040F000194B20209846194B194C9C464A4643467A
:1041000012681B6892466246734312685344002A41
:1041100004DC10E0013A0133002A08D0187021783D
:104120000029F7D1013A5D700233002AF6D13B68CD
:104130000136B342E2DC00230A4A13600A4A1360E4
:10414000E0BCBA46B146A846F0BDC046DA940320AA
:10415000C4800320C0800320CC800320C8800320BB
:10416000DB940320D0800320D4800320030010B50B
:104170000A0003490868190000F004F810BDC046A1
:10418000F426002070B50B0C0024150C002B28D150
:10419000002D37D18BB291B2594300F051F8051E72
:1041A00019D00300083B5A6803239A43043A242A8F
:1041B00013D80300132A0AD90460446008331B2A69
:1041C00005D98460C460242A25D00300103300225E
:1041D0001A605A609A60280070BD0021FCF7D6FB77
:1041E000F9E7002D11D1151C89B292B24A43ADB244
:1041F0009BB26B43110C5B18190C06D1190492B2D7
:104200001143CAE72B1C0D1CEEE700F009F80C2344
:1042100000250360DFE70300046118334461D6E73B
:10422000014B18687047C046F426002010B5034BB8
:104230000100186800F004F810BDC046F426002004
:10424000F0B54E464546DE465746E0B50D000B3507
:10425000060083B0162D22D8102900D9B2E000F054
:10426000B1FA102518230220CC4FFB181A005C6805
:10427000083A944200D1B5E0032362689A431300E0
:10428000E268A168CA6091600122E31859683000B1
:104290000A435A6000F09EFA2000083095E0072398
:1042A0009D4300D58EE0A94200D98BE000F08AFA48
:1042B000FC235B009D4200D2A7E1680A00D18BE09D
:1042C000042800D97AE138239846A8098044393077
:1042D000C100B24F79184C680839A1420ED00323AF
:1042E0009C4604E0002ACBDAE468A14206D062468C
:1042F000636893435A1B0F2AF4DD40463A003C6939
:104300000832944200D178E00323616899438946DA
:104310000B00491B0F2900DD7BE17A613A6100291E
:10432000B2DA80229200914500D30FE15909DA08F0
:1043300001238B40D2007968D2190B4391687B60CE
:10434000E260A1609460CC600121821091409942AA
:1043500059D80B4205D103229043490004300B4247
:10436000FBD003239846C3009946B944CC46824605
:104370006346DC68A44507D12CE1002A00DB35E167
:10438000E468A44500D125E14246636893435A1B83
:104390000F2AF2DD01208046611905436560A0689F
:1043A000E5680837C560A86040461043F960B96009
:1043B0004860CF6030008F60E25000F00BFA2000C0
:1043C000083002E00C230020336003B0F0BCBB4691
:1043D000B246A946A046F0BD80213F234020984622
:1043E000890076E7DC680230A34200D044E73A0057
:1043F0003C690832944200D086E701217B68821034
:1044000091409942A5D90323BC6862689A439146BA
:10441000954203D8531B0F2B00DD89E023004B444A
:104420005F4A01935F4B93461B681268EB18013299
:1044300000D13DE15C4A944663441B0B1B0300938F
:104440003000009900F0CEF903008046013300D11E
:10445000FAE0019B834200D9F4E0544B00981A0023
:104460009A46126803009446514663440B600199D2
:104470001A00414500D151E15B461B68013300D170
:1044800056E1434601995B1A9A1853461A6007236E
:10449000424641461A400192194200D112E10823D6
:1044A0009846881A424B0099804441449B1A5B1AF3
:1044B0001B051B0D0091300019009B4600F092F97E
:1044C000431C00D150E14346C01A03005B440093F3
:1044D000534652461B6801215B44136042464046E6
:1044E000BA60009A0A434260BC4200D124E14A46C5
:1044F0000F2A00D822E107200C3A8243606801406D
:10450000052011436160A118486088600F2A00D916
:1045100035E142464446526826490868984200D22E
:104520000B6025490868984200D38FE00B608DE04E
:104530000122290013431143651961603000BD60F9
:104540006B6000F047F9200008303EE75A0A042A61
:1045500072D9142A00D9C5E011005C325B31D20057
:1045600008235B429C46BA18944463469A68032326
:104570009846944500D19EE0434651689943494589
:1045800002D992689445F7D1D3689C467B6861460E
:10459000A260E1608C60D460D6E6C046202B00208B
:1045A000282F0020509303200F1000002093032099
:1045B00008100000489303204C930320142852D97C
:1045C000542800D996E06E239846280B80446F301B
:1045D000C1007EE608239B46073BDC449B46DA4449
:1045E00043465246134200D0C2E64CE00122E31893
:1045F000596830000A435A60E368A268D3609A6041
:1046000000F0E8F820000830DFE62B00E808083367
:104610002AE6012360191D43656078613861C26034
:1046200082601A004B460A4342603000E15000F0BD
:10463000D1F820000830C8E69A0911003932383123
:10464000D2008DE7BC4260D0BC68626803239A4305
:10465000531B954202D80F2B00DD69E7300000F0B4
:10466000B9F80020B1E65B23984680445C30C10075
:104670002FE608235B429C46E1444B469B68013889
:104680004B4500D098E043460342F2D17B688B4310
:104690007B604900994200D9B5E6002904D1B2E611
:1046A000042294464900E2440B42F9D050465AE6AF
:1046B00010330093C4E68910023B8B4079680B43AA
:1046C0007B6064E7009B300043445B421B051B0D8D
:1046D00019009B4600F086F8431C00D0F3E6002347
:1046E0009B46F5E6542A2BD81A0B11006F326E3117
:1046F000D20035E7AA235B0098422BD8DD3B9846D1
:10470000E80B80447830C100E3E52C4B009A9A46D0
:104710001B689C46534662441A60ADE6090500D00A
:10472000AAE60200BC684A4401310A436260F3E62B
:104730005B4642461A60AAE64446EDE641608DE7D4
:10474000AA2149008A4224D8DA0B11007832773145
:10475000D20005E71A4B984224D87C239846A80C2F
:1047600080447D30C100B4E5009A019B94464246E6
:10477000083B63449B1A009300239B46A8E6210054
:104780003000083100F0BCF85346BC681B68626812
:10479000C2E60B498A420BD89A0C11007D327C315B
:1047A000D200DDE6FE217E237F209846890090E539
:1047B000FE227E219200D3E67B686AE720930320E5
:1047C0005405000010B5024800F07CF910BDC04649
:1047D0001C93032010B5024800F076F910BDC046C6
:1047E0001C930320002370B5064D040008002B60C5
:1047F000FDF7F0F9431C00D070BD2B68002BFBD0F7
:104800002360F9E79C94032010B583070AD00300C6
:10481000032102E001330B4205D01A78002AF9D1B6
:10482000181A10BD030019680C4A0D4C8A188A43E7
:1048300022420FD15968094A04338A188A43224216
:1048400008D15968054A04338A188A432242F1D0B4
:1048500000E001331A78002AFBD1E1E7FFFEFEFEFB
:1048600080808080F8B50C000500FFF7ABFF204F7B
:10487000BB685E6803239E431E4B341B9C46644406
:10488000240B013C113324039C4207DB0021280048
:10489000FFF7A8FFBB689B19984204D02800FFF7D8
:1048A00099FF0020F8BD28006142FFF79BFF431CE1
:1048B0000DD00122BB68361B16435E600E4B2800EC
:1048C0001A68141B1C60FFF785FF0120EAE700212E
:1048D0002800FFF787FFBA68831A0F2BDEDD074930
:1048E0000968401A0449086001210B435360D5E769
:1048F000202B0020EF0F000020930320282F002002
:10490000F0B5C64605000C0000B500294FD0FFF7F2
:1049100059FF210008394C68012622000320B243C8
:104920008F187B688343624898468368BB426AD08D
:1049300043467B6026421ED108239C460C68844473
:10494000091B12198C6864454FD0CB68E3609C60EA
:104950004346FC186468344211D1BB68554C42444C
:10496000A34200D17EE0FC68DC60A3600123134316
:104970004B608A5006E0FC1864683442EDD0164360
:104980004E603A6080239B009A4213D25409D308A8
:104990000122A2404468DB00224342601818836869
:1049A000C8608B608160D9602800FFF713FF80BC6E
:1049B000B846F0BD530A042B3ED89409260039347A
:1049C0003836E40004192368083C03279C4242D08F
:1049D0005868B843904202D99B689C42F8D1DC6881
:1049E000CC608B60A160D960DEE74346F818406870
:1049F000304257D1FB68B86842441643C3609860A0
:104A00004E608A50D0E713004344264206D10A681C
:104A1000891A8C689B18CA68E260946001221A4364
:104A20004A60254A816012689A42BDD8234B28000B
:104A30001968FFF717FFB7E7142B07D9542B1AD8BB
:104A4000140B26006F346E36E400BBE71E005C33A7
:104A50005B36DC00B6E70122B610B240466832434E
:104A60004260BDE7D9609960CB608B60012313433E
:104A70004B608A5098E7AA246400A34205D8D40B5F
:104A8000260078347736E4009CE70D4CA34205D825
:104A9000940C26007D347C36E40093E7FE247E26C9
:104AA000A4008FE7330013434B603A607CE7C046B5
:104AB000202B0020282B00202C2F00205093032097
:104AC000540500007047C0467047C046F8B5C04660
:104AD00001B40248844601BC604700BFB51F0020F6
:104AE00001B40248844601BC604700BFB5250020E0
:104AF00001B40248844601BC604700BFB5250020D0
:104B000001B40248844601BC604700BF711F002009
:104B100001B40248844601BC604700BF811E0020EA
:104B200001B40248844601BC604700BF251F002035
:104B300052656C656173650068747470733A2F2FE9
:104B40006769746875622E636F6D2F72617370622E
:104B50006572727970692F7069636F2D6578616D08
:104B6000706C657300000000312E302E31000000A3
:104B70007069636F000000004A756C203136203286
:104B80003032320006005250BBFF3CB6704B001072
:104B9000060052509A235618384B00100600525007
:104BA000D3F07542304B00104E6F2070726F6772F9
:104BB000616D207370616365000000000A2A2A2A73
:104BC0002050414E4943202A2A2A0A000A000000A8
:104BD0004861726420617373657274000D0A00008D
:104BE000486172647761726520616C61726D202525
:104BF0006420616C726561647920636C61696D65C4
:104C00006400000048656C6C6F20446F756721007C
:104C1000BA200020D6200020F220002038200020DA
:104C2000B6200020D62300206E2300206E23002013
:104C30006E230020DE220020DE220020DE22002063
:104C40002623002026230020262300209623002050
:104C50009623002096230020FE2400200C2500200F
:104C60001C2500202C250020302500204025002078
:104C70004E250020602500207C250020D024002027
:104C8000FA2400203B704110A57033600860450095
:104C9000A56044C07B6004C5A5603B6008604C0013
:104CA00008600000D02F0010AE2F00106E2F0010F3
:104CB0006E2F0010D02F0010C22F0010CC2F00102C
:104CC000AE2F00106E2F00106E2F0010AE2F0010B0
:104CD0006E2F00106E2F0010AE2F00106E2F0010E0
:104CE0006E2F0010AE2F00106E2F00106E2F0010D0
:104CF00000021101062502042203042304042304F4
:104D000002210503200106250204220304230106D3
:104D1000250204220304230106250204220304239E
:104D20000106250204220304230000007C4E00102B
:104D30004C4E00100F0A0E020202020C020E02007C
:104D40000000000000000000000000000000000063
:104D50000000000000000000000000009C4E001059
:104D6000544E00100D000C000102010B0600000063
:104D70000000000000000000000000000000000033
:104D8000000000000000000000000000FC4E0010C9
:104D90006C4E00100B000A0001020208040A030016
:104DA0000000000000000000000000000000000003
:104DB000000000000000000000000000144F001080
:104DC000744E00100A0009000102010904000000ED
:104DD00000000000000000000000000000000000D3
:104DE000000000000000000000000000DC4E001089
:104DF000644E001010000F000102020C040F0200AC
:104E000000000000000000000000000000000000A2
:104E1000000000000000000000000000B84E00107C
:104E20005C4E0010110C100001020705010603077B
:104E30000209020B030E0210030000000000000034
:104E40000000000000000000000000007C4E001088
:104E50000F1100009C4E00100D000000B84E001015
:104E600011000000DC4E001010000000FC4E00108D
:104E70000B000000144F00100A0000003B704110AE
:104E8000A570336008604500A56044C07B6004C520
:104E9000A5603B6008604C0008600000A0804420D2
:104EA0002D60430048602B60C1A02860AA000B0061
:104EB00001A026A046000000A86044202062430014
:104EC0000C0045000C0001A0486001A0890001A071
:104ED0002860A86008604E0008600000A0804420A0
:104EE0002C604300C8604B6021602E0021602B00C5
:104EF0000C0006A08800000008608E00A0804420FE
:104F000030604300306048606A0002A04500000045
:104F100045000000A08044203060430030604860BD
:104F20008800090002A04500EA390010B8380010D6
:104F3000E6380010083900101E3900102E39001014
:104F40003839001048390010523900106239001009
:104F50006C39001098390010A8390010D0390010B1
:104F60006C38001048442020200000005645534172
:104F700020000000584741202000000053564741C0
:104F800020000000564741202000000045474120F6
:104F9000200000004E545343700000004E54534311
:104FA0002000000050414C702000000050414C2077
:104FB00020000000F438FE410FB4223FC30D7440BE
:104FC000C30DF43FBF60CB41C1019001020000005E
:104FD000230090010C000000000000000000000011
:104FE000000000008C4F001000000000B0439A4108
:104FF00058AD663F2713C43FB9B41B4003AD6641AB
:10500000D803C003030000001400C0030100000027
:10501000000000000000000000000000644F0010CD
:105020000000000029397E420000C03F66669640BD
:10503000000090400D203C420D02E00106000600F9
:105040000C00F00001000700060005000D00F00054
:10505000010006009C4F00100100000029397E422B
:105060000000C03F66669640000090400D203C4224
:105070000601F000030000000F00F0000400000033
:10508000000000000000000000000600944F001027
:1050900000000000000080423333D33F6666964034
:1050A0006666B640A4703D427102400205000500EC
:1050B0002900F00018000500050004002900F00098
:1050C00018000600AC4F00100100010000008042F3
:1050D0003333D33F666696406666B640A4703D4261
:1050E00038012001020000002B00F0001B0000002E
:1050F000000000000000000000000000A44F0010AD
:10510000000001003333D3410000803FCDCC4C4040
:10511000CDCC0C400000A0417402580204000000F5
:10512000170058020100000000000000000000000D
:10513000000000007C4F001000010000F438FE4128
:105140000FB4223FC30D7440C30DF43FBF60CB4189
:105150000D02E001020000002100E0010A00000051
:10516000000000000000000000000000844F00105C
:1051700000000000556AA541B70BBD3E68E8054038
:10518000DF891D40C50F7C41260300030600000097
:105190001D000003030000000000000000000000EC
:1051A00000000000744F0010000000000001C0006B
:1051B0004001C8004001F000000290018002E001BF
:1051C00020035802000400030005C003483A001001
:1051D000123B0010BE3A0010F43A0010543A00108E
:1051E0007C3A0010843C0010463C00102E3C00101D
:1051F000163C0010FE3B0010E63B0010CE3B0010BA
:10520000BA3B00109C3C0010AC3B00109E3B0010D1
:10521000903B0010823B0010743B0010663B001076
:105220005A3B0010005500FF000000000000000085
:10523000000000000000101000001010000010100E
:10524000000010100000000000000000000000003E
:10525000000000000000000000000000000000004E
:10526000000000000000000000000000000000003E
:10527000000000000000000000000000000000002E
:10528000000000000000000000000000000000001E
:10529000000000000000000000000000000000000E
:1052A00000000000000FF0FF000FF0FF000FF0FF04
:1052B000000FF0FFFFFFEFEFFFFFEFEFFFFFEFEF5C
:1052C000FFFFEFEFFFFFFFFFFFFFFFFFFFFFFFFF0E
:1052D000FFFFFFFFFFFFFFFFFFFFFFFFFFFFFFFFDE
:1052E000FFFFFFFFFFFFFFFFFFFFFFFFFFFFFFFFCE
:1052F000FFFFFFFFFFFFFFFFFFFFFFFFFFFFFFFFBE
:10530000FFFFFFFFFFFFFFFFFFFFFFFFFFFFFFFFAD
:10531000FFFFFFFFFFFFFFFFFFFFFFFFFFFFFFFF9D
:10532000FFFFFFFF00AA00FF0000000000000000D8
:10533000000000000000101000001010000010100D
:105340000000101000000000180000000000000025
:10535000000000000000000000000000000000004D
:10536000000000000000000000000000000000003D
:10537000000000000000000000000000000000002D
:1053800000001000300000000000000000000000DD
:10539000000000000000000000000000000000000D
:1053A00000000000000FF0FF000FF0FF000FF0FF03
:1053B000000FF0FFFFFFEFEFFFFFEFEFFFFFEFEF5B
:1053C000FFFFEFEFFFFFFFFFE7FFFFFFFFFFFFFF25
:1053D000FFFFFFFFFFFFFFFFFFFFFFFFFFFFFFFFDD
:1053E000FFFFFFFFFFFFFFFFFFFFFFFFFFFFFFFFCD
:1053F000FFFFFFFFFFFFFFFFFFFFFFFFFFFFFFFFBD
:10540000FFFFEFFFCFFFFFFFFFFFFFFFFFFFFFFFEC
:10541000FFFFFFFFFFFFFFFFFFFFFFFFFFFFFFFF9C
:10542000FFFFFFFF005500FF00000000000000002C
:10543000000000000000101000001010000010100C
:10544000000010100000660018000030000000008E
:10545000000000000000000000000000000000004C
:10546000000000000000000000000000000000003C
:10547000000000000000000000000000000000002C
:1054800000003800300000000000000000000000B4
:10549000000000000000000000000000000000000C
:1054A00000000000000FF0FF000FF0FF000FF0FF02
:1054B000000FF0FFFFFFEFEFFFFFEFEFFFFFEFEF5A
:1054C000FFFFEFEFFFFF99FFE7FFFFCFFFFFFFFFBA
:1054D000FFFFFFFFFFFFFFFFFFFFFFFFFFFFFFFFDC
:1054E000FFFFFFFFFFFFFFFFFFFFFFFFFFFFFFFFCC
:1054F000FFFFFFFFFFFFFFFFFFFFFFFFFFFFFFFFBC
:10550000FFFFC7FFCFFFFFFFFFFFFFFFFFFFFFFF13
:10551000FFFFFFFFFFFFFFFFFFFFFFFFFFFFFFFF9B
:10552000FFFFFFFF00AA00FF000018183C3C3038C6
:10553000000000000000101000001010000010100B
:10554000000010100018666C7C0038300C30000031
:10555000000000027C187C7C0CFE38FE7C7C000085
:105560000600607C7C10FC3CF8FEFE3CC63C1EE65F
:10557000F0C6C638FC7CFC7C7EC6C6C6C666FE3C51
:10558000803C6C001800E0001C003800E01806E0C9
:105590003800000000000000100000000000000EB5
:1055A00018707600000FF0FF000FF0FF000FF0FF03
:1055B000000FF0FFFFFFEFEFFFFFEFEFFFFFEFEF59
:1055C000FFFFEFEFFFE7999383FFC7CFF3CFFFFF15
:1055D000FFFFFFFD83E78383F301C7018383FFFFA1
:1055E000F9FF9F8383EF03C3070101C339C3E119A7
:1055F0000F3939C70383038381393939399901C395
:105600007FC393FFE7FF1FFFE3FFC7FF1FE7F91FFC
:10561000C7FFFFFFFFFFFFFFEFFFFFFFFFFFFFF1F0
:10562000E78F89FF005518E76C103C3C427E283814
:10563000103844440000101000001010000010103A
:1056400000001010003C666CC6006C30181800009A
:1056500000000006C638C6C61CC060C6C6C61818FC
:105660000C0030C6C63866666C666666C6180C6680
:1056700060EEE66C66C666C67EC6C6C6C666C63040
:10568000C00CC600000060000C006C0060180660D2
:1056900018000000000000003000000000000018AA
:1056A0001818DC3C000FF0FF000FF0FF000FF0FFB8
:1056B000000FF0FFFFFFEFEFFFFFEFEFFFFFEFEF58
:1056C000FFFFEFEFFFC3999339FF93CFE7E7FFFFAA
:1056D000FFFFFFF939C73939E33F9F393939E7E728
:1056E000F3FFCF3939C799999399999939E7F39984
:1056F0009F1119939939993981393939399939CFA4
:105700003FF339FFFFFF9FFFF3FF93FF9FE7F99FF1
:10571000E7FFFFFFFFFFFFFFCFFFFFFFFFFFFFE7F9
:10572000E7E723C300AA24DBFE383C7E81FF243850
:10573000547C2838000010100000101000001010D9
:1057400000001010003C24FEC2C26C60300C6618D1
:105750000000000CCE7806063CC0C006C6C618186D
:10576000180018C6C66C66C2666262C2C6180C6CA7
:1057700060FEF6C666C666C65AC6C6C66C668C307D
:10578000E00C0000000060000C006400600000609D
:1057900018000000000000003000000000000018A9
:1057A00018180042000FF0FF000FF0FF000FF0FF8D
:1057B000000FF0FFFFFFEFEFFFFFEFEFFFFFEFEF57
:1057C000FFFFEFEFFFC3DB013D3D939FCFF399E771
:1057D000FFFFFFF33187F9F9C33F3FF93939E7E7B5
:1057E000E7FFE7393993993D999D9D3D39E7F3935B
:1057F0009F01093999399939A5393939939973CF65
:105800001FF3FFFFFFFF9FFFF3FF9BFF9FFFFF9F24
:10581000E7FFFFFFFFFFFFFFCFFFFFFFFFFFFFE7F8
:10582000E7E7FFBD005542BDFE7CE7FFA5DB241086
:1058300038FE7CFE00001010000010100000101058
:1058400000001010003C006CC0C63800300C3C1842
:1058500000000018DE180C066CC0C00CC6C60000A4
:10586000307E0C0CDEC666C0666868C0C6180C6C5C
:1058700060FEFEC666C6666018C6C6C638661830C4
:10588000700C00000078787C3C7C60766C380E668A
:1058900018ECDC7CDC76DC7CFCCC66C6C6C6FE186C
:1058A00018180099000FF0FF000FF0FF000FF0FF35
:1058B000000FF0FFFFFFEFEFFFFFEFEFFFFFEFEF56
:1058C000FFFFEFEFFFC3FF933F39C7FFCFF3C3E7FE
:1058D000FFFFFFE721E7F3F9933F3FF33939FFFF7C
:1058E000CF81F3F32139993F9997973F39E7F393A4
:1058F0009F0101399939999FE7393939C799E7CF1C
:105900008FF3FFFFFF878783C3839F8993C7F19935
:10591000E71323832389238303339939393901E733
:10592000E7E7FF6600AA42BDFEFEE7FF81FF247C99
:10593000EED6D65418F010F01FFF1FFF10F010F035
:105940001FFF1FFF0018006C7C0C7600300CFF7EE0
:1059500000FE0030F618183CCCFCFC187C7E0000E1
:1059600060000618DEC67CC0667878C0FE180C7829
:1059700060D6DEC67CC67C3818C6C6D6383C303009
:10598000380C0000000C6CC66CC6F0CC7618066CA7
:1059900018FE66C666CC76C630CC66C66CC6CC70C1
:1059A000000E00A1000FF0FF000FF0FF000FF0FF4E
:1059B000000FF0FFE70FEF0FE000E000EF0FEF0F39
:1059C000E000E000FFE7FF9383F389FFCFF300815E
:1059D000FF01FFCF09E7E7C3330303E78381FFFF3D
:1059E0009FFFF9E72139833F9987873F01E7F387D5
:1059F0009F292139833983C7E7393929C7C3CFCFD5
:105A0000C7F3FFFFFFF3933993390F3389E7F99316
:105A1000E701993999338939CF3399399339338FDC
:105A2000FFF1FF5E005542BDFE7CE77EA5DB28103E
:105A300038FEFE7C1800000000000000101010105E
:105A4000101010100018006C0618DC00300C3C1808
:105A500000000060E6183006FE06C630C6060000EC
:105A600030000C18DEFE66C0666868DEC6180C6C76
:105A700060C6CEC660D66C0C18C6C6D63818603064
:105A80001C0C0000007C66C0CCFE60CC661806785A
:105A900018D666C666CC667030CC66D638C618187E
:105AA000181800A1000000000F0F0F0FF0F0F0F029
:105AB000FFFFFFFFE7FFFFFFFFFFFFFFEFEFEFEF4E
:105AC000EFEFEFEFFFE7FF93F9E723FFCFF3C3E734
:105AD000FFFFFF9F19E7CFF901F939CF39F9FFFF30
