:020000041000EA
:1000000000B5324B212058609868022188439860DF
:10001000D860186158612E4B002199600221596106
:100020000121F02299502B49196001219960352056
:1000300000F044F80222904214D00621196600F024
:1000400034F8196E01211966002018661A6600F04E
:100050002CF8196E196E196E052000F02FF8012189
:100060000842F9D1002199601B49196000215960AB
:100070001A491B48016001219960EB211966A021F2
:10008000196600F012F800219960164914480160C1
:100090000121996001BC002800D000471248134993
:1000A000086003C880F30888084703B5996A0420EC
:1000B0000142FBD001200142F8D103BD02B5186610
:1000C0001866FFF7F2FF186E186E02BD00000240BE
:1000D000000000180000070000035F00212200005C
:1000E000F4000018222000A00001001008ED00E03C
:1000F00000000000000000000000000074B24E7A12
:1001000000200420F7010010C3010010C5010010F9
:10011000C1010010C1010010C1010010C101001097
:10012000C1010010C1010010C1010010C701001081
:10013000C1010010C1010010C9010010CB01001065
:10014000CD010010CD010010CD010010CD01001037
:10015000CD010010CD010010CD010010CD01001027
:10016000CD010010CD010010CD010010CD01001017
:10017000CD010010CD010010CD010010CD01001007
:10018000CD010010CD010010CD010010CD010010F7
:10019000CD010010CD010010CD010010CD010010E7
:1001A000CD010010CD010010CD010010CD010010D7
:1001B000CD010010CD010010CD010010CD010010C7
:1001C00000BE00BE00BE00BE00BE00BE00F04BF888
:1001D000103800BEF2EB88715C2D0010782D0010F5
:1001E0003402001090A31AE700202149086006C8D5
:1001F00081F3088810471F48006800282FD10DA4FC
:100200000ECC002902D000F012F8F9E71A491B4A77
:10021000002000E001C19142FCD1194988471949E9
:1002200088471949884700BEFDE701C901C29A42C3
:10023000FBD37047782D0010C000002080A0002064
:1002400038CD0010000004200000042038CD00103C
:1002500000100420001004200000000070470B482C
:1002600000F0DEFA0047EFF30580C0B270470000EF
:1002700008ED00E0000000D080A0002058A400207D
:10028000FD150010152200101D1700105756000014
:1002900006005250ABB36053A02C00100600525021
:1002A000861C0302A82C0010060052505422A29D66
:1002B000B02C001005005250DE65F46838CD0010F7
:1002C000F8B5C04610B5064C2378002B07D1054B76
:1002D000002B02D0044800E000BF0123237010BDB2
:1002E00080A2002000000000682C0010044B10B514
:1002F000002B03D00349044800E000BF10BDC046F6
:100300000000000084A20020682C00100148042195
:10031000014B1847B002002041080010134A936FA8
:100320009B0813D210665166002905D0FFE7FFE74E
:10033000FFE7516F106F704704B5002801D000200F
:10034000C04302F071FC002104BDC046936F5B08FE
:10035000FDD3F0B5946ED56E576F166FFFF7E2FFC1
:100360009466D56657671667F0BD0000000000D0A0
:1003700094464E4A926F9208624601D230E0C046DF
:10038000F0B54A4EB56F6D08FCD3346E756E776F5D
:10039000366F00F025F89446444A14665566576750
:1003A00016676246F0BDC0469446404A926F920876
:1003B000624601D258E0C046F0B53C4EB56F6D08BC
:1003C000FCD3346E756E776F366F00F04DF894463F
:1003D000364A14665566576716676246F0BDC046D2
:1003E000002B24DB11D000293EDA00B5C94340427E
:1003F00000D1013100F038F8C943404200D1013149
:10040000DB43524200D1013300BD002AEBD100286A
:1004100001D1002905D00020C90FC90701D1C0436F
:10042000410800B502F0F8FB0022002300BD00B532
:1004300000290ADBDB43524200D1013300F014F8FB
:10044000C943404200D1013100BDC943404200D1FF
:100450000131DB43524200D1013300F005F8DB43A8
:10046000524200D1013300BD002923D1002B18D105
:10047000002A0CD0BC460D4F38667A660021002356
:10048000FFE7FFE7FFE77A6F386F6746704700289E
:1004900001D00748010000B502F0BEFB0022002396
:1004A00000BD02000B00002000217047000000D0BA
:1004B000FFFFFFFF002B00D0BDE0130C26D1002A68
:1004C000E7D080B4104F39667A66FFE7FFE730B4B3
:1004D000040C7B6F396F1B0423433B66FFE7FFE788
:1004E000FFE7C04684B27B6F3D6F1B0423433B662E
:1004F000FFE7FFE7C04600232C042D0C7A6F386F0E
:1005000000196941B0BC7047000000D0F0B59446B6
:100510000025140E01D112020835140F01D1120169
:100520000435940F01D192000235D40F01D152004D
:100530000135D40B0134254F7C66254C3C660E0CEE
:1005400093B2FFE7FFE7FFE73C6F6643360C7703A4
:10055000BE467343DF0B5B04C01AB941130C7343EF
:10056000DB18C91ACE086643360CB64493B27343FF
:100570001F0F1B01C01AB941130C73431F0B1B053E
:10058000C01AB941860D8F023E436643360C092DD1
:1005900024DB520A7243801A7703460A6643360CFC
:1005A00016235B1BDE40DF40BF1964466643821B97
:1005B0007046043506330100D940A840C01900D365
:1005C0000131A24206D20023F0BD0000000000D09D
:1005D000FFFFFFFF121B0130F3D3F1E709277F1B59
:1005E000FE406446A2B27243801A00D20139220C46
:1005F0007243130C1204821A99410B0070460435A1
:1006000013370100F940A840801900D30131002BB5
:1006100002D1A2420AD2F0BD013000D30131121B37
:10062000FAD2013BF8D1A24200D2F0BD013000D392
:100630000131121BF7E7F0B51C0C00D080E00CB4C0
:1006400000251C0A04D11B02160E33431202083582
:100650001C0B04D11B01160F3343120104359C0BF4
:1006600004D19B00960F334392000235DC0B02D17C
:1006700092185B4101351C00971864410134464FC4
:100680007C66464C3C660E0CFFE7FFE7FFE7C04682
:100690003C6F6643360C7703BE4697B27743C01B68
:1006A00000D20139C01B00D201399FB27743C91B68
:1006B000C91B170C77437E04FF0B801BB941CE0882
:1006C0006643360C0C2D33DBB644120B1F053A4340
:1006D0001B0B97B27743C01B00D201399FB27743FF
:1006E000C91B170C77433E043F0C801BB941860D94
:1006F0008F023E43664329277F1BFE400C3D774611
:10070000AF40BF1930BCA2B2ABB272437343801A80
:100710009941220C7243130C1204801A9941020071
:100720000B000137001BA941F9D2781E0021F0BD52
:100730000C277F1BFE4077467F0BAF40FF19E0E799
:1007400000245D1C07D0144F7D663966FFE7FFE784
:10075000FFE7FFE73C6F95B29EB265436643401BDF
:10076000B141150C1E0C6543664336042F0C3E4305
:100770002D04401BB141994204D202000B0020001D
:100780000021F0BD01D19042F7D3801A9941013484
:100790009942F2D3F6E70000000000D0FFFFFFFF10
:1007A00007B5604601880A0A0230DF2AFAD1C9B2C9
:1007B000820804D3028840880004104300E00068E7
:1007C000014A5050039007BD80A0002007B5604645
:1007D00001880A0A0230DF2AFAD1C9B2820804D39A
:1007E000028840880004104300E00068014A50502D
:1007F000039007BD80A1002001480421014B184748
:100800000803002041080010014B1B681847000036
:1008100008030020014B5B68184700000803002014
:10082000142310B50100188804331B88984710BDA5
:10083000162310B50100188802331B88984710BD95
:10084000F8B54746CE4680B50F1E19D014239946F9
:10085000043304000025012698464B461888434679
:1008600021681B88984701C4431E984101354042C6
:100870000640AF42F1D13000C0BCB946B046F8BD29
:100880000126F8E7F8B5CE464746914680B5EFF326
:10089000108C72B6104D2B68002BFCD0BFF35F8F0D
:1008A000CB08C45CC7180720260001230840C640B7
:1008B0001A00324033420BD1834023433B70BFF3D5
:1008C0005F8F2A608CF31088C0BCB946B046F8BD73
:1008D000484600F025FFC0462C0100D0F0B54F4639
:1008E0004646D646C0B51700089A050088469A4283
:1008F00065D8190E18020023FFF756FD314B6C0026
:100900009C466419A400644463688146984200D9F7
:1009100060602B1FDBB29A46012B2CD9C0238022AA
:10092000294EAD009B017159234312011A60002921
:1009300005D07069FFF7F2FC01300138FDD1226863
:100940007F017A40E0278023174052465B01234312
:100950001F60012A26D9802380229B012343120194
:100960001A604B4601206360089B7351E0BCBA4695
:10097000B146A846F0BD4346012BCFD1C023032288
:100980009B0123431A60023AA3681A42FCD0E02379
:1009900022687F0157401F4080235B0123430A4E9A
:1009A0001F60AD0042462168514003220A401A6090
:1009B000012243469A40A3681A42FCD0CBE70020AC
:1009C000D4E7C04600800040E4A3002030B50C20EE
:1009D00083B001F0DBFB00F0BBFD00280ED09A4B8A
:1009E0009A4A1A605A609A60DA601A615A619A618A
:1009F000DA611A62964A5A6203B030BD954CA0671C
:100A000001F0CCFB0122944B1A60636C012BFCD1EA
:100A10000322924B1A608F4A936B012BFCD1C022A8
:100A20008F4B92011A608F4B8F491A6010008B68B0
:100A30009843031EFAD1022401218C4A8C480633C4
:100A4000009400F08DFD05238A4A01218A48009414
:100A500000F086FD894B5A68FF2A02D88022520096
:100A60005A608022784C7D4B21691201834D1A60B7
:100A7000002905D06069FFF751FC01300138FDD134
:100A8000E0217E4B02201A681140802252012A4345
:100A900011601968484003210140116004219A68DF
:100AA0001142FCD08022802192012A430901116069
:100AB000802252005A60724B2361724B5968FF29A1
:100AC00000D85A600321644A6E4B116002399A685B
:100AD0001142FCD0E0201A681040802252011A43D3
:100AE00010601868484003210140022011606549E8
:100AF0008A681042FCD080229201134380221201A6
:100B00001A608022604B52004A6063615F4B5968F3
:100B1000FF2900D85A6080225D4BE16912015B4DCC
:100B20001A60002905D06069FFF7F8FB0130013831
:100B3000FDD1E02255490B681A4080235B012B430D
:100B40001A60802380229B012B4312011A608022AD
:100B50003E4B52004A60E3614E4B5968FF2900D872
:100B60005A6080224C4B216A12014A4D1A600029BA
:100B700005D06069FFF7D2FB01300138FDD1E022DA
:100B800044490B681A4080235B012B431A60802381
:100B900080229B012B4312011A60802380225B007C
:100BA0004B602A4BD20223623C4B5968914200D2DF
:100BB0005A6080223A4B616A1201384D1A6000294E
:100BC00005D06069FFF7AAFB01300138FDD1E022B2
:100BD00032490B681A4080235B012B431A60802343
:100BE00080229B012B4312011A608023DB024B60A1
:100BF000174B63622B4B5A68FF2A02D8802252009F
:100C00005A608022284BA1691201264D1A600029E2
:100C100005D06069FFF782FB01300138FDD1E02289
:100C200020490B681A4080235B012B431A60802304
:100C300080229B012B4312011A6080235B004B60D2
:100C4000114BA361D8E6C046E4A30020006CDC028F
:100C50001BB70000008000403CB0004030B00040B6
:100C600000E0004000F0004000C00040002F685944
:100C70000080024000389C1C00C0024030800040D0
:100C8000001BB7003C80004040597307548000406F
:100C900054B000406080004060B000406C80004074
:100CA0006CB000404880004048B00040014B8000DC
:100CB000C0587047E4A30020132370B51D78012DA0
:100CC00010D00BDD1948FFF7B3FD194C010080224D
:100CD0002000FFF79FFD022D01D070BD144C154B75
:100CE000A364FAE7134B124C23606360A360E360D4
:100CF00023616361A361E36123626362A362E362D0
:100D000023636363A363E36323646364A364E364AF
:100D100023656365A365E36523666366A366E3668F
:100D200023676367A367E367A364D6E753440000C0
:100D300080A00020A107001030B5002589B0040074
:100D40000922002101A80095FFF75EFD092200217C
:100D500005A80495FFF758FD4B236A4668461370B3
:100D600004A901F071FF1521082220006944FFF752
:100D700051FD09B030BDC046132310B512481C7890
:100D8000FFF756FD0100012C0AD003DD80220F4839
:100D9000FFF740FD0E48FFF743FD0E4B186010BDF6
:100DA0000A4C54222000FFF735FD0B4B6365A36509
:100DB000E36523666366A366E36623676367A367E9
:100DC000E3672362E361E5E75346000080A100206A
:100DD0004C3300003CA40020CD070010094A8300DA
:100DE00094464022634410B51C68C0006240C02491
:100DF00014408022520113431C60034B9C46604404
:100E0000416010BD04C00140004001400123834007
:100E1000002904D0034A1360034A13607047034A51
:100E20001360FBE780E200E000E100E080E100E029
:100E3000024B10309B688000C058704700ED00E006
:100E400070B50D00EFF3108672B60F4A1368002BD1
:100E5000FCD0BFF35F8F0D4B10309B6884001B5993
:100E60000B4A934203D09D4201D000F071FC074B26
:100E70009B681D51BFF35F8FBFF35F8F0022024B52
:100E80001A6086F3108870BD240100D000ED00E0E8
:100E9000CD010010F0B5DE4657464E464546E0B55A
:100EA0000C0083B0EFF3108A72B65E4A1368002B11
:100EB000FCD0BFF35F8F1022914681444A465A4BC3
:100EC00096009B689D59594B98469D4205D0A54276
:100ED00016D0574FEB1B2F2B14D9534B9B689D51AA
:100EE000BFF35F8FBFF35F8F00224E4B1A608AF310
:100EF000108803B0F0BCBB46B246A946A046F0BD80
:100F00001D00EAE7012383409B465A46494B1B6874
:100F10001A4000925A46484B1A60BFF35F8FFFF7A2
:100F2000A2F90190002803D0814501D000F010FC07
:100F30000123290099438B68A34268D00A0007E087
:100F400043001B189B00FB189868A04211D01A00A0
:100F5000062010560028F3DA009B002B05D05A46D5
:100F6000364B1A60334B1A60B7E75A46324B1A6059
:100F7000B3E706201856002821DB4200111889002B
:100F80007C188846A1689960E179D971062161567B
:100F9000997100292BDBA488F91A640524154444AF
:100FA0000919E0240905490D2402214399801218EA
:100FB000234B9200BF181A781870BA71CCE70198C9
:100FC000002817D1FF3090711E4890801C4AC91B21
:100FD0001078891098718B005B1818011B18180283
:100FE0001B1818041B185B005B181370B4E7BD21B5
:100FF0000902DBE7144A1549D21A083A5002400D9B
:1010000001439980124952080A43DA80A4E7062076
:1010100008560B000028B0DA019A002AEAD14546AA
:10102000D4E7C046240100D000ED00E0CD0100105F
:10103000C002002000E100E080E100E080E200E08A
:1010400056A4002000BDFFFFFA02002000F0FFFFC1
:1010500000F8FFFF70B5012504000543FFF703F911
:10106000EFF3108C72B6244A1368002BFCD0BFF348
:101070005F8F224E8000A11B89108A005218130135
:10108000D2181302D2181304D3181D4A5B005B1840
:1010900091680958A9421CD00622B2569A421CD027
:1010A0001222B256934222D01E22B256934220D030
:1010B0002A22B25603219A4210D0124A1178137094
:1010C000A171BFF35F8F00220B4B1A608CF3108865
:1010D00070BD92680C491150EFE700214A00521888
:1010E000FF219200B218917108499180E5E7012132
:1010F000F4E70221F2E7C046240100D0C00200203C
:1011000000ED00E056A40020CD01001000BDFFFF5F
:10111000F0B500220324FF27802620003D00094B64
:1011200011009C461040C0008540A14361440B68FB
:101130000132AB43350085402B430B60202AECD1B4
:10114000F0BDC04600E400E0024B9C4661448900CB
:10115000016070474000003410B5040000F000FD4D
:1011600001002000FFF7F0FFFF232371BFF35F8F23
:1011700010BDC04670B5050014001600002915D03A
:101180000C00002A12D080686B68984729680028F4
:101190000ED073009B196200033B1219CB18033A5F
:1011A0009C7088188A5C002A15D10670200070BDDA
:1011B00063001B197200033B9219CB18033A9E700F
:1011C00088188A5C002A02D104703400EEE75A7055
:1011D00004703400EAE75A700670E7E7F0B5C646D7
:1011E00005000F0000B510210120160000F0ACF939
:1011F000EBB204000373032147602800984600F017
:10120000A3F9002363730133A3734346FF21E37300
:10121000FE232060A66029402B4206D0421CFD3BE5
:101220000133137003328B42FAD34B005918002359
:10123000401803384370200080BCB846F0BDC0465B
:10124000F8B5CE46474606000C0080B5002907D009
:101250004D0003686D18033D5A195778002F04D1CB
:101260002000C0BCB946B046F8BD7900C9190339A1
:1012700088464344597889460021597051707368F3
:101280003A002100806898473368002814D042460D
:101290009A18947059195B5D002B00D053700F7031
:1012A000270049463000FFF7CBFF3900020030002D
:1012B000FFF760FF0400D3E7424641465D19AF7077
:1012C0009A185B5C002B00D06B701470E9E7C04685
:1012D000F0B557464546DE464E46E0B50D006B007C
:1012E00001685B19DF1E0400C85D83B00192CA1952
:1012F00000284CD043001B18033BCB185E78B44643
:10130000002E16D1019E002E3ED1E67B002E04D089
:1013100073009B19CB18033B5D70E57300282FD138
:101320000023537003B0F0BCBB46B246A946A046AA
:10133000F0BD72006244033A89184A789046002250
:101340004A7091465A70010032002000FFF712FFE8
:1013500043468246002B07D05B0021684344033B91
:10136000CB185A78002A16D1424651462000FFF782
:1013700001FF2168019BCA19002BC6D00028CFD0DD
:1013800043001B18033BCB1800219970C8E7019B51
:10139000002BC5D1B9E750008018033809184878E8
:1013A000834648464870587041462000FFF7E2FEE9
:1013B000594680462000FFF743FF414602002000C7
:1013C000FFF7D8FE8046CFE7F0B557464546DE46E4
:1013D0004E46E0B583B00191457B04006B00006888
:1013E0005B19DF1EC15DC21900294ED04B005B188E
:1013F000033BC3185E78B446002E18D1019E002E20
:1014000040D1E67B002E04D073009B19C318033B28
:101410005D70E573002931D100232800537061739A
:1014200003B0F0BCBB46B246A946A046F0BD720070
:101430006244033A801842789046002242709146F6
:101440005A7020003200FFF795FE43468246002B7B
:1014500007D05B0021684344033BCB185A78002A2D
:1014600017D1424651462000FFF784FE019B010040
:101470002068C219002BC4D00029CDD04B005B18C6
:10148000033BC31800209870C6E7019B002BC3D113
:10149000B7E7500080180338091848788346484653
:1014A0004870587041462000FFF764FE5946804658
:1014B0002000FFF7C5FE414602002000FFF75AFE5C
:1014C0008046CEE770B5040000292CD0437B8B42C8
:1014D0002ED0056848004018033828188278002A62
:1014E00021D053009B18033BEA5CEE188A4202D1DC
:1014F0001BE0002A08D053009B18033BEB185A78D6
:101500008A42F6D142785A700023002283704370D9
:101510002000FFF7DDFE617B02002000FFF72AFEBE
:101520006073012000E0002070BD43783370EBE76A
:1015300000221900FFF7CCFE60730120F4E7C046DB
:1015400010B500F00FFF10BD10B500F0ABFE10BDE0
:10155000024B18688007C00F7047C04600C00640A5
:10156000F0B5C64600B51E0006AB1F7801235B42EE
:10157000436000230400836001600C209046FEF766
:10158000CDFE4101091A8D01691AC90009188901A6
:101590004046FEF7C3FEC021231D890119432123C4
:1015A000A0600B602268002AFCDA08233F0336049F
:1015B0003E43E6600B6080BCB846F0BD10B5002825
:1015C00000D110BD00F096F9FBE7C04610B5094AFE
:1015D0000300146884B0002C08D001220091064852
:1015E000524203A9A047012004B010BD00F090F9B9
:1015F0000020F9E720A40020BD150010F8B52B4A03
:101600002B4B2C491A602C4A2C4B1A6014008B6807
:101610009C43FBD12A4D2B4EB54208D2013E761B8E
:10162000B60808CD984723000134B342F9D1FFF73B
:10163000CDF9254A214B1A601E4A9368DB43DB0132
:10164000DC09002BF9D14022204B214D214F9A6714
:101650005A671A67DA66BD420BD20026013F7F1B2C
:10166000FF082800FFF778FD083533000136BB423C
:10167000F7D1194E194DC022A9683000FFF7CAF8FA
:10168000AE6000F05FFAFFF743FD00F003FC144D7D
:10169000144EB54208D2013E761BB60808CD9847D5
:1016A000230001349E42F9D1F8BDC046BFCDFFFFF3
:1016B00000E0004000C00040FE7F3C0000F0004021
:1016C00068A0002078A00020FFFFFF0100F001408B
:1016D00060A0002068A000200000002000ED00E0D5
:1016E00078A0002080A00020094A0300106800288C
:1016F00005D00849C3188B4207D2136070470648CB
:101700000449C31810608B42F7D301204042F5E72B
:101710001CA400200000042058A4002000BEFDE707
:101720000FB400B5084883B000F0F2F8049B002B1A
:1017300007D005A918000191FFF748FF034800F002
:10174000E7F800BEFDE7C046E02C0010F02C0010CA
:1017500010B50148FFF7E4FFF42C0010F0B5464641
:101760004F46D6468046C0B50E00171E3FDD4B1EC5
:101770009946214B0125002400209A460DE04B4656
:101780001B5D0D3B5A425341325DDBB20A2A0BD03E
:101790002B00013401359F421ADD002CEFD1434666
:1017A000325D1B7C0A2AF3D1002BF1D1A04204DA6E
:1017B0004346211A1B6830189847434650461B6819
:1017C00002219847013428002B0001359F42E4DCB8
:1017D000874204DD4346391A1B6830189847F619CA
:1017E000013E33780D3B5A42534142461374E0BCEC
:1017F000BA46B146A846F0BD002D0010F0B55746D8
:101800004546DE464E46D023E0B51B061C68354BE8
:1018100083B007000D00180001A990469A4601F018
:101820000BFA8146002807D1019B9C4204D0504608
:1018300001F012FA012399466B1C03D1380001F024
:101840007FF80500284B1C68002C2FD00A23274E58
:101850009B4602E0E468002C28D02268002AF9D0D8
:101860003368002B01D0A342F4D1637C002B27D036
:101870002A0039002000FFF771FF4346002BE9D012
:101880006B465A461A71637C002B1DD0237C002BBB
:1018900023D00121236801A898476B461B790D3B93
:1018A0005A4253412374E468002CD6D14B46002B96
:1018B0000FD103B0F0BCBB46B246A946A046F0BD6E
:1018C000290038009047D8E70121236801A89847EC
:1018D000C0E7504601F098F9EBE70221044823687D
:1018E0009847DAE760A0002010A4002018A4002088
:1018F000002D001010B582B06B4604000022D81DE8
:1019000001210470FFF77AFF200002B010BDC0462D
:1019100070B5040001F014F8012201000500200058
:10192000FFF76CFF084B1C68002C06D06368002B87
:1019300005D09847E468002CF8D1280070BDE46811
:10194000002CF3D1F9E7C04610A400207047C04630
:10195000F0B583B006000C001500FFF7F9FD002874
:1019600001D003B0F0BD164F01223B0001210097CA
:101970000530FEF7B3FFEBB23200009301212300E4
:101980001048FFF7EDFD210030006943FEF7C6FC6B
:1019900004000D4B0022009302210420FEF79EFF5D
:1019A00023000022012100940520FEF797FF3B0051
:1019B0000222002100970620FEF790FFD1E7C046E3
:1019C000006CDC0200800240001BB700F0B5DE4670
:1019D00057464E464546E0B5070085B004200393C0
:1019E00001910292FFF762F9FA218900FEF796FC55
:1019F00032238246FF33994686005644B6014F4B48
:101A00004F4AF318072493420ED901235B429C46A8
:101A10005346E144F61A4B46002BF0D100205DE01E
:101A2000002900D186E00624210030006143FEF742
:101A300075FC874242D0631E9846012CE5D01D00FC
:101A4000654330002900FEF769FC87424DD0A31E94
:101A50009B46022C4FD02D1B29003000FEF75EFC68
:101A600087424AD0E31E9B46032C61D02D1B2900E0
:101A70003000FEF753FC874243D0231F9B46042CC3
:101A800045D02D1B29003000FEF748FC874240D08E
:101A9000631F9B46052C42D02D1B29003000FEF70A
:101AA0003DFC87423DD04346052B3FD03000E91F27
:101AB000FEF734FC8742B3D00624B5E70029BAD13B
:101AC000A0464246012073019B1B9B009E19019B6F
:101AD000F6001E60029B1C60039B1A6005B0F0BC00
:101AE000BB46B246A946A046F0BD0029E9D0A31ED8
:101AF0009B46022CAFD1012496E70029B2D1D846EB
:101B0000DFE70029FBD0231F9B46042CB9D1032417
:101B10008AE70029F3D0631F9B46052CBCD104241F
:101B200082E70029EBD04346052BBFD105247BE794
:101B3000022479E701239846C3E7C04680E5F9FF10
:101B4000804F12000021044B044ABFF35F8F02C391
:101B50009342FAD17047C046000100D0800100D006
:101B6000044A1078431CDBB2172B00D910231370E2
:101B70007047C0461803002083680B4810B58446A0
:101B800061446244090112019A18591854684B685B
:101B900001209C4201D802D00020C0B210BD1268C2
:101BA0000B689A42F9D8F7E7FFFFFF0FF8B5DE465A
:101BB00057464E464546E0B51F000DAB1B78050065
:101BC0009B460C9B1600002B45D03F4A0C9B94462D
:101BD000DBB2AA689A460C9B2C68634494461B01AE
:101BE0000A9A63449A600B9A1E60DA600C9A5F60EE
:101BF00094460C9B00225B006344033B9846236899
:101C000043449A705A701A70637B9946002B42D0F5
:101C100052461900A06863689847226800282BD0B4
:101C20004B465B004B44033BD1188C46414648462B
:101C300051188870D35C002B42D153466246137012
:101C40004B4663730C9B994527D0F0BCBB46B2460C
:101C5000A946A046F8BD0268947B002CF5D0116817
:101C600063008C461B196344033B5B789373002B22
:101C700000D1D3730C94A8E74346D1184B46504685
:101C80005B004B44033BD31898704046125C002A1B
:101C900018D14B460B705346637332003B00287DCE
:101CA00000F0ECF9041E06D05B46002B03D1514630
:101CB0002868FFF707FC0E9B002BC6D01C70C4E7FA
:101CC0004B70BAE75A70E4E7FFFFFF0FF0B5DE464E
:101CD0004E46574645460023E0B58DB00A936B4B00
:101CE0008200D3580B90994600239B464B4607939E
:101CF00000F074F9079C06000F006268EFF310858E
:101D000072B61368002BFCD022000794BFF35F8FDC
:101D10002468637B9946002B67D092685C4B9046A1
:101D20004B441B01984443461A685B681000190035
:101D3000801BB94100295FDD0B9800F09FF900235B
:101D40000026984600279A46079C6368BFF35F8F7A
:101D50005A461A6085F310885346002B08D1002894
:101D6000C6D10DB0F0BCBB46B246A946A046F0BDF8
:101D70000A9B414618024B461843D04708900991E8
:101D80006268EFF3108572B61368002BFCD00794DD
:101D9000BFF35F8F0899099A002A48DB114303D0EB
:101DA000079B1B69002B5DD1079B1B68D97B002912
:101DB00007D04A00521819688C4649466244033AD3
:101DC00051704A46DA734B46079A013BD168CA5CA8
:101DD0000132CA545B46079A13615368BFF35F8FA1
:101DE0005A461A6085F3108882E700230026984639
:101DF00000279A460020A7E7002901D100289BD19F
:101E000001212000FFF7E0FA43461E685F689B68E7
:101E1000079A9A464346DB689846D3684B44013B91
:101E20001B780A931B020343136100208CE723698C
:101E3000002BB9D033003C005B1A94411A002300F8
:101E4000A74219D89F421BD0594604910121039102
:101E50004946029141460191514607980091FFF78A
:101E6000A5FEB7E700F0BAF8089A099B06000F0034
:101E700092197B419942E5D901225242D317E3E7F7
:101E80009642E1D901225242D317DDE724A4002073
:101E9000FFFFFF0F70B5184C2368002B00D070BDFA
:101EA000032000F08FF8032000F04AF913490320C3
:101EB00000F09EF81820FFF743FB0500FFF750FEE7
:101EC0000F4B2A009C46604480000E496860102039
:101ED000FFF784F9102128601020FFF735FB01215E
:101EE000A8601020FFF730FB03232B75064BE8603A
:101EF000DD602560D3E7C0460CA40020CD1C001097
:101F000040000034791B001024A40020F0B5D64610
:101F10004F464646C0B5EFF305833F2213401800F5
:101F20001038EFF3108C72B6204D2A68002AFCD0CE
:101F3000BFF35F8F0122110081401D4C8846616311
:101F40001C4917000E788A463100C1400F400A42F2
:101F500009D1BFF35F8F2F608CF31088E0BCBA46C5
:101F6000B146A846F0BD14498200646A51588C42BB
:101F70000FD3124BD25843469E4353461E70BFF3B5
:101F80005F8F00232B608CF31088002AE6D09047E7
:101F9000E4E70B4A9B00904643441A681A60BFF37B
:101FA0005F8F00232B608CF31088D7E7280100D0C7
:101FB0000040054057A4002040A40020D4A20020E7
:101FC000D03F054010B50100024A0348FEF75AFC15
:101FD00010BDC046042D001055A40020034B596AC3
:101FE0000A00986A596A8A42FAD17047004005404F
:101FF00070B504000D00EFF3108672B61A4A13682C
:10200000002BFCD0BFF35F8F002D1BD02000FEF70C
:102010000FFF164981420AD02000FEF711FF01216F
:102020002000FEF7F3FE0123A340114A1360114B79
:10203000A400E550BFF35F8F00220B4B1A6086F3BC
:10204000108870BD0B4BA200D5500122A2400A4956
:1020500020000B7893430B700449FEF71BFF00210F
:102060002000FEF7D3FEE5E7280100D00D1F001089
:1020700038600540D4A2002057A40020F0B5CE4619
:10208000474680B52A4C616A0D00A66A616AA9427A
:10209000FAD18B4207D804D00120C0BCB946B04663
:1020A000F0BDB242F8D9EFF3108972B6214C216825
:1020B0000029FCD0BFF35F8F012585401C4C1E4FCB
:1020C0006563E9B2884639788C46414666463143B5
:1020D0003970011D89000A51184980004350216A56
:1020E000002029420BD0616A0800A66A616A814219
:1020F000FAD18B4202D80AD1B24208D90020BFF3EC
:102100005F8F00220B4B1A6089F31088C5E7084BDC
:1021100042461D625D636346934301203B70BFF3FB
:102120005F8F0022034B1A6089F31088B5E7C04621
:1021300000400540280100D057A4002040A4002002
:10214000EFF3108C72B60A490B68002BFCD0BFF37A
:102150005F8F01238340074A0748136202789A433E
:102160000270BFF35F8F00230B608CF31088704701
:10217000280100D00040054057A4002010B50248B7
:10218000FEF7DAFD10BDC04634A400208023024AC9
:102190009B000343D362704700800540AA23064A90
:1021A0001B0113602F230549D360054B1960536849
:1021B000002BFCDA7047C0460040024000B0FA0035
:1021C00000600240A42302210C4A0D4810B5D150F2
:1021D00001680C4B99420DDC0B4B0C4A1C68CB1070
:1021E000D35C0B4A1B0463401B0C1B0401311360BE
:1021F000016010BD00230360FBE7C04600000540FE
:1022000050A4002036A80400200005401C03002034
:102210002010054010B584B0FFF798FB1A4803ABB7
:1022200002AA01A9FFF7D2FB002803D116491748DB
:10223000FFF776FA039A02990198FFF789FB0421C8
:102240001320FEF7CBFD0223A422114C0420A3503F
:10225000104A11491360FEF7F3FD01210420FEF737
:10226000D5FD00236361E3612362FA3363627A3B45
:10227000A3617F3B6361094B094A1B681B0C1B046C
:10228000136030BFFDE7C04680AF0200282D00106C
:1022900000000540A8200540C52100102000054091
:1022A00020100540030010B50A0003490868190012
:1022B00000F004F810BDC0462498002070B50B0C47
:1022C0000024150C002B28D1002D37D18BB291B2F0
:1022D000594300F051F8051E19D00300083B5A6815
:1022E00003239A43043A242A13D80300132A0AD951
:1022F0000460446008331B2A05D98460C460242A22
:1023000025D00300103300221A605A609A6028001A
:1023100070BD0021FEF778FAF9E7002D11D1151CE8
:1023200089B292B24A43ADB29BB26B43110C5B18B7
:10233000190C06D1190492B21143CAE72B1C0D1CCB
:10234000EEE700F009F80C2300250360DFE7030047
:10235000046118334461D6E7014B18687047C046E2
:102360002498002010B5034B0100186800F004F811
:1023700010BDC04624980020F0B54E464546DE46C6
:102380005746E0B50D000B35060083B0162D22D858
:10239000102900D9B2E000F0B1FA1025182302206C
:1023A000CC4FFB181A005C68083A944200D1B5E0A3
:1023B000032362689A431300E268A168CA609160CF
:1023C0000122E318596830000A435A6000F09EFA6F
:1023D0002000083095E007239D4300D58EE0A942F8
:1023E00000D98BE000F08AFAFC235B009D4200D20A
:1023F000A7E1680A00D18BE0042800D97AE13823EC
:102400009846A80980443930C100B24F79184C6809
:102410000839A1420ED003239C4604E0002ACBDAFF
:10242000E468A14206D06246636893435A1B0F2AB0
:10243000F4DD40463A003C690832944200D178E02D
:1024400003236168994389460B00491B0F2900DD6E
:102450007BE17A613A610029B2DA802292009145EB
:1024600000D30FE15909DA0801238B40D2007968C3
:10247000D2190B4391687B60E260A1609460CC60EC
:10248000012182109140994259D80B4205D1032273
:102490009043490004300B42FBD003239846C3000D
:1024A0009946B944CC4682466346DC68A44507D1C8
:1024B0002CE1002A00DB35E1E468A44500D125E1E8
:1024C0004246636893435A1B0F2AF2DD012080467F
:1024D000611905436560A068E5680837C560A860B4
:1024E00040461043F960B9604860CF6030008F60AB
:1024F000E25000F00BFA2000083002E00C2300202C
:10250000336003B0F0BCBB46B246A946A046F0BD5E
:1025100080213F2340209846890076E7DC6802301E
:10252000A34200D044E73A003C690832944200D00C
:1025300086E701217B68821091409942A5D9032347
:10254000BC6862689A439146954203D8531B0F2B8F
:1025500000DD89E023004B445F4A01935F4B9346C3
:102560001B681268EB18013200D13DE15C4A9446C9
:1025700063441B0B1B0300933000009900F0CEF95D
:1025800003008046013300D1FAE0019B834200D969
:10259000F4E0544B00981A009A46126803009446DF
:1025A000514663440B6001991A00414500D151E145
:1025B0005B461B68013300D156E1434601995B1A23
:1025C0009A1853461A600723424641461A40019220
:1025D000194200D112E108239846881A424B00990B
:1025E000804441449B1A5B1A1B051B0D009130006F
:1025F00019009B4600F092F9431C00D150E143467C
:10260000C01A03005B440093534652461B680121E5
:102610005B44136042464046BA60009A0A434260F7
:10262000BC4200D124E14A460F2A00D822E107200B
:102630000C3A824360680140052011436160A11893
:10264000486088600F2A00D935E142464446526806
:1026500026490868984200D20B60254908689842CC
:1026600000D38FE00B608DE001222900134311435A
:10267000651961603000BD606B6000F047F92000B3
:1026800008303EE75A0A042A72D9142A00D9C5E054
:1026900011005C325B31D20008235B429C46BA18C1
:1026A000944463469A6803239846944500D19EE07B
:1026B000434651689943494502D992689445F7D1F8
:1026C000D3689C467B686146A260E1608C60D46000
:1026D000D6E6C046509C002058A00020D0A2002082
:1026E0000F100000A0A2002008100000C8A20020C7
:1026F000CCA20020142852D9542800D996E06E2389
:102700009846280B80446F30C1007EE608239B4624
:10271000073BDC449B46DA4443465246134200D012
:10272000C2E64CE00122E318596830000A435A60BF
:10273000E368A268D3609A6000F0E8F820000830EF
:10274000DFE62B00E80808332AE6012360191D4361
:10275000656078613861C26082601A004B460A4346
:1027600042603000E15000F0D1F820000830C8E6A7
:102770009A09110039323831D2008DE7BC4260D05D
:10278000BC68626803239A43531B954202D80F2BFF
:1027900000DD69E7300000F0B9F80020B1E65B2306
:1027A000984680445C30C1002FE608235B429C467B
:1027B000E1444B469B6801384B4500D098E04346C6
:1027C0000342F2D17B688B437B604900994200D978
:1027D000B5E6002904D1B2E6042294464900E24459
:1027E0000B42F9D050465AE610330093C4E68910E4
:1027F000023B8B4079680B437B6064E7009B3000B1
:1028000043445B421B051B0D19009B4600F086F8F4
:10281000431C00D0F3E600239B46F5E6542A2BD850
:102820001A0B11006F326E31D20035E7AA235B001C
:1028300098422BD8DD3B9846E80B80447830C100A5
:10284000E3E52C4B009A9A461B689C46534662442B
:102850001A60ADE6090500D0AAE60200BC684A4449
:1028600001310A436260F3E65B4642461A60AAE61B
:102870004446EDE641608DE7AA2149008A4224D80A
:10288000DA0B110078327731D20005E71A4B984203
:1028900024D87C239846A80C80447D30C100B4E540
:1028A000009A019B94464246083B63449B1A00935E
:1028B00000239B46A8E621003000083100F0BCF858
:1028C0005346BC681B686268C2E60B498A420BD853
:1028D0009A0C11007D327C31D200DDE6FE217E2390
:1028E0007F209846890090E5FE227E219200D3E663
:1028F0007B686AE7A0A200205405000010B50248DA
:1029000000F07CF910BDC0469CA2002010B5024822
:1029100000F076F910BDC0469CA20020002370B5DF
:10292000064D040008002B60FEF7DEFE431C00D0BD
:1029300070BD2B68002BFBD02360F9E714A40020A6
:1029400010B583070AD00300032102E001330B42D4
:1029500005D01A78002AF9D1181A10BD0300196899
:102960000C4A0D4C8A188A4322420FD15968094AF1
:1029700004338A188A43224208D15968054A04332D
:102980008A188A432242F1D000E001331A78002AE3
:10299000FBD1E1E7FFFEFEFE80808080F8B50C00F1
:1029A0000500FFF7ABFF204FBB685E6803239E4323
:1029B0001E4B341B9C466444240B013C11332403FE
:1029C0009C4207DB00212800FFF7A8FFBB689B198A
:1029D000984204D02800FFF799FF0020F8BD280096
:1029E0006142FFF79BFF431C0DD00122BB68361BE1
:1029F00016435E600E4B28001A68141B1C60FFF71C
:102A000085FF0120EAE700212800FFF787FFBA6869
:102A1000831A0F2BDEDD07490968401A0449086054
:102A200001210B435360D5E7509C0020EF0F0000BD
:102A3000A0A2002058A00020F0B5C64605000C005A
:102A400000B500294FD0FFF759FF210008394C6825
:102A5000012622000320B2438F187B68834362481B
:102A600098468368BB426AD043467B6026421ED1AB
:102A700008239C460C688444091B12198C68644521
:102A80004FD0CB68E3609C604346FC1864683442D6
:102A900011D1BB68554C4244A34200D17EE0FC6892
:102AA000DC60A360012313434B608A5006E0FC18EE
:102AB00064683442EDD016434E603A6080239B0038
:102AC0009A4213D25409D3080122A2404468DB0081
:102AD0002243426018188368C8608B608160D960A7
:102AE0002800FFF713FF80BCB846F0BD530A042B43
:102AF0003ED89409260039343836E4000419236896
:102B0000083C03279C4242D05868B843904202D9FF
:102B10009B689C42F8D1DC68CC608B60A160D96076
:102B2000DEE74346F8184068304257D1FB68B86882
:102B300042441643C36098604E608A50D0E7130049
:102B40004344264206D10A68891A8C689B18CA68D1
:102B5000E260946001221A434A60254A816012684B
:102B60009A42BDD8234B28001968FFF717FFB7E733
:102B7000142B07D9542B1AD8140B26006F346E3639
:102B8000E400BBE71E005C335B36DC00B6E70122E5
:102B9000B610B240466832434260BDE7D9609960E2
:102BA000CB608B60012313434B608A5098E7AA24C3
:102BB0006400A34205D8D40B260078347736E400AD
:102BC0009CE70D4CA34205D8940C26007D347C363E
:102BD000E40093E7FE247E26A4008FE7330013432E
:102BE0004B603A607CE7C046509C0020589C002017
:102BF0005CA00020D0A20020540500007047C04611
:102C00007047C046F8B5C04601B40248844601BCCE
:102C1000604700BF6D02002001B40248844601BC39
:102C2000604700BF9502002001B40248844601BC01
:102C3000604700BF9502002001B40248844601BCF1
:102C4000604700BF2902002001B40248844601BC4D
:102C5000604700BF3901002001B40248844601BC2E
:082C6000604700BFDD01002008
:102C680052656C656173650068747470733A2F2FD0
:102C78006769746875622E636F6D2F726173706215
:102C88006572727970692F7069636F2D6578616DEF
:102C9800706C657300000000312E302E310000008A
:102CA8007069636F00000000417567203230203280
:102CB8003032320006005250BBFF3CB6A82C001040
:102CC800060052509A235618702C001006005250D5
:102CD800D3F07542682C00100A2A2A2A2050414E47
:102CE8004943202A2A2A0A000A000000486172641F
:102CF80020617373657274000D0A00004861726484
:102D08007761726520616C61726D20256420616C49
:102D1800726561647920636C61696D6564000000A7
:102D280053797374656D20636C6F636B206F6620D5
:102D38002575206B487A2063616E6E6F742062651A
:102D48002065786163746C7920616368696576656C
:042D58006400000013
:102D5C00B4020010A80200109C020010BC2C001041
:0C2D6C0090020010C82C0010D42C0010A5
:102D7800084810B50378002B0AD180230649074A72
:102D88005B051C68CC5004339342FAD101230370CD
:102D980010BDC04654A40020E4A200100001001099
:102DA80010B5024B0133984710BDC046E4A200207D
:102DB800034B1A68C0239B009343024A1360704771
:102DC8000C8001400C900140054B1A6880239B0041
:102DD8005340C02292001340024A13607047C04615
:102DE8000C8001400C900140F8B5CE46474681461C
:102DF80080B523480E0000F0A7F80500214800F030
:102E0800A3F80400204800F09FF88046FFF7B0FFC1
:102E1800A847A047FFF7D8FFC0210D240D22082797
:102E2800022049053D008B6A1D4018420BD0002A3C
:102E380009D0A31A0D2B1ED84B461B78013A0B66F6
:102E480001239C46E1441300002D0BD12343002BA2
:102E5800E8D1FFF7ADFFC047FFF7A2FFC0BCB946F6
:102E6800B046F8BD002CF2D00B6E013C3370230045
:102E780001361343EBE7002DD4D0002CD2D0F3E772
:102E880049460000455800004643000010B5026856
:102E98000024EFF3108172B61368002BFCD0BFF347
:102EA8005F8F03797F2B0BD80368BFF35F8F1C609C
:102EB80081F3108820BF0268EFF3108172B6EBE748
:102EC800D0231B061B6803710368BFF35F8F0022C2
:102ED8001A6081F3108810BD03000068EFF3108CAE
:102EE80072B60268002AFCD0BFF35F8F04229A569C
:102EF800002A0BDB00290FD000200A601B68BFF3F3
:102F08005F8F00221A608CF310887047D022120657
:102F1800126801201A71F1E70020EFE70268EFF369
:102F2800108172B61368002BFCD0BFF35F8FFF23AC
:102F3800037140BF0368BFF35F8F00221A6081F3FB
:102F4800108870477047C04601B40248844601BCE7
:102F5800604700BF210800100000000000000000CA
:102F6800503300004C33000054330000523300004B
:102F78000000000000000100000000000000000048
:102F88000000020000000000000000000000030034
:102F980000000000000000000000FF00000000002A
:102FA80000B5486801318E46004770460938014926
:102FB800884700BD551000104D5300004D430000D8
:102FC8005334000043340000100000009797969097
:102FD80098A4A2928D9B9D89717696B6C1B8A49546
:102FE80094999F9F988E858081878D8A8072676467
:102FF8006A778AA3BDD3E1E6E0D0BBA288715D50B1
:103008004A4E596A7E93A6B6C0C3C1B8AA988572BB
:10301800625752535A64728292A0ACB4B8B7B2A93C
:103028009F94897F76706D6D6F747C858E979EA452
:10303800A7A7A49E958A7E7368605B5A5C626A74CF
:103048007F8B959DA3A6A6A39E98918A837D797769
:1030580077797C828890979DA2A6A6A5A09990854D
:103068007A6F655E5A5A5D636C76818C959DA2A5D0
:10307800A5A29E98918A847E7A79787A7E838990AF
:10308800969CA1A4A4A29D968D83786E655E5B5BD9
:103098005E656D77828C969DA2A5A4A29D97908A65
:1030A800847F7B7A7A7C80858A91979CA0A2A2A053
:1030B8009B948B81776D645E5B5B5F656E78838DB7
:1030C800969DA2A4A4A19C96908A84807C7B7B7DFB
:1030D80081868B91979C9FA1A19E99938A80766CFB
:1030E800645E5C5C60666F79838D969CA1A3A3A0E7
:1030F8009B96908A84807D7C7D7F82878C92979B2B
:103108009EA09F9D9891897F756C645F5C5D6167E7
:103118007079838D959CA0A2A29F9B95908A8581AA
:103128007E7E7E8084888D92979B9E9F9E9B9690A4
:10313800877E756C645F5D5E6268707A838D959B2F
:103148009FA1A19E9A958F8A8582807F808285899A
:103158008E92979A9D9E9D9A958F877E746C6560D6
:103168005E5F6269717A838C949A9EA0A09D9994FF
:103178008F8A868381808183868A8E92969A9C9D87
:103188009C99948E867D746C65605F606369717AC2
:10319800838C94999D9F9F9C99948F8B878482811F
:1031A8008284878B8F9396999B9C9B98938D867D21
:1031B800756D66615F60646A727A838C93999C9E70
:1031C8009E9B98948F8B878583838485888C8F9327
:1031D80096999B9B9A97938D857D756D66626061C4
:1031E800656A727A838B92989B9D9D9B97938F8B30
:1031F800888584848587898C909396999A9A9997DB
:10320800928C857D756E67636162656B727A838B5C
:1032180092979A9C9C9A97938F8C898685858688A5
:103228008A8D909396989A9A9996928C857D766EC7
:1032380068646263666B727A838A9196999B9B999C
:103248009793908C8987868687898B8E9193969899
:1032580099999896918C857E766F69646363666C9C
:10326800727A828A9095999A9A999693908D8A887B
:103278008787888A8C8E9193969899999895918C3E
:10328800867E77706A656364676C727A82898F94C8
:1032980098999A989693908D8B898888898A8C8F2B
:1032A8009194969798989795918C867F77706A668F
:1032B8006465676C737A81898F93979999989693C7
:1032C800908E8B8A89898A8B8D8F919496979898FE
:1032D8009795918C867F78716B676565686C737A52
:1032E80081888E93969898979593918E8C8B8A8ADD
:1032F8008B8C8E909294959798989795918C8680C0
:1033080079726C686666686D737981878D92959716
:1033180098979593918F8D8B8B8B8C8D8E909294A3
:10332800959797979794918D878079736D6966675C
:10333800696D737980878D91949697969593918FFF
:103348008D8C8C8C8D8E8F9192949597979796945F
:10335800918D87817A746E6A6767696D73798086E3
:103368008C9094969696959391908E8D8D8D8D8E4A
:1033780090919394959697979694918D88827B7562
:103388006F6A68686A6D73797F868B909395969655
:10339800949391908F8E8D8D8E8F90919394959616
:1033A80097979694928D88827C75706B69686A6D20
:1033B80072797F858A8F92949595949392908F8E47
:1033C8008E8E8F9091929394959697979695928ECC
:1033D80089837D76716C69696A6E72787E848A8E5B
:1033E8009193959594939291908F8F8F8F909192BE
:1033F8009394959697979695928E8A847E77726D18
:103408006A696B6E72787E84898D90939494949394
:10341800929190908F90909192939394959697977C
:103428009695928F8A857F78736E6B6A6B6E7277CA
:103438007D83888C9092939494939292919090909B
:10344800919192939495959696979695938F8B854F
:103458008079746F6C6B6B6E72777D82888C8F91BC
:10346800939393939292919191919192939394952E
:1034780095969696969593908B86807A75706D6BD7
:103488006C6E72777C82878B8E91929393939392D2
:1034980092919191929293949495959696969695E9
:1034A80093908C87817B76716D6C6C6E72777C8162
:1034B800868A8E90929393939392929292929293F9
:1034C8009394949596969696969593908C87827CED
:1034D80076726E6C6D6F72777C81868A8D8F919211
:1034E800939393939392929393939494959596969A
:1034F8009696969593908C89837D77726F6D6B6C99
:1035080071787E83878A8C8F91929393929191920E
:1035180092929292919192939496989A9B9B999653
:10352800918A837C756F6A68696B70757C82878CF9
:103538008F9192939291908F8F8F8F909192949573
:10354800979898999999989694908C87817C767297
:103558006E6D6D6F73787D82868A8C8E8F90909059
:103568009090909091929394959697979898989810
:10357800979694918D88837D7874706F6F71747845
:103588007D8286898C8E8F90909090909191919267
:1035980093949596979898989898979694918D89DA
:1035A800847E7974716F6F7174787D8186898C8D52
:1035B8008F909090909191919293949596979798D7
:1035C80098999998989694918E89847F7A75727053
:1035D800707174787D8185898B8D8F8F9090919192
:1035E8009192929394959697979899999998989774
:1035F80095928E8A847F7A767271707275797D81E0
:1036080085888B8D8E8F90909191929293939495BB
:103618009697989899999999989795928E8A85806E
:103628007B767371717275797D8185888B8D8E8FAC
:10363800909191929293939494959697989899993A
:103648009999989795928E8A85807B777372717312
:1036580075797D8185888B8D8E8F909191929293CB
:1036680093949596969798989999999998979592E9
:103678008E8A85807B777472727376797D8185886E
:103688008A8C8E8F90919292939394949596969714
:10369800989899999999989795928E8A85807B7729
:1036A80074737274767A7E8184888B8D8E8F9193F1
:1036B800939292929394959696979798999A9A9AA4
:1036C80099979593908C87827D78747170707376D2
:1036D8007B8085898C8F92939495959494939393FA
:1036E8009394959698999A9B9C9C9B9997938F8A6B
:1036F800847F7A7673727274777B7F83878A8C8EE5
:103708009091929293939393949495969798999A6B
:103718009B9B9B9B9A9896928E89847F7A767473EA
:103728007375787C808387898C8D8F909192939321
:103738009494949495969798999A9B9B9B9B9A9806
:1037480095928D88837E7A7674737476797C80847A
:1037580087898C8E8F91929393949494949595964F
:103768009798999A9A9B9B9A999795918D88837E19
:10377800797674737476797D8084878A8C8E90913B
:1037880092939495959595959596979899999A9ACF
:103798009A9A999794908C87827D797674747577C4
:1037A8007A7E8184878A8C8E90929394959595954C
:1037B80095959696979898999A9A9A999896939093
:1037C8008B86817D7976747476787B7E8285888A0B
:1037D8008C8F91929495969696969696969697989B
:1037E8009899999A9A999896938F8B86817C7976ED
:1037F800757576797C7F8285888A8D8F919394966A
:10380800969797969696969697979899999999993B
:103818009795928E8A85807C7976757677797C8083
:103828008386888B8D8F9193959697979797979680
:10383800969797979898999999989795928E898538
:10384800807C79777676787A7D808386888B8D9070
:1038580092949697979898979796979797979899F5
:10386800999997969594918D8984807C79787778C1
:10387800797B7E8185888A8D8F9092939495959592
:10388800969697989899999A9A9A9A9998979592B4
:103898008F8B87837F7C7A79797A7B7E8082858615
:1038A800888A8C8F919395979899999999999998CD
:1038B800989898989797979694928F8C8884807DFB
:1038C8007B7A797A7B7D80828486888B8D8F9294AF
:1038D8009698999999999999989898979797979662
:1038E800969594928F8C8884807D7B7A7A7A7C7E78
:1038F80080828486888B8D909294969899999A9ACA
:1039080099999998989797979696969593918F8B5A
:103918008884817E7B7A7A7B7C7E80828486888B91
:103928008D9092949798999A9A9A9A999998989723
:1039380097969696959493918E8B8884817E7C7BBE
:103948007B7B7D7F81838586888B8D9092959798E8
:10395800999A9A9A9A9A99999897979696959594E2
:1039680093918E8B8884817E7C7B7B7C7D7F818319
:103978008586888B8D9092959798999A9A9A9A9A13
:103988009999989797969695959493918E8B888503
:10399800817F7D7C7C7C7D7F81838586888A8D90F4
:1039A800929597989A9A9B9B9B9A9A99989897968A
:1039B8009695959493918E8C8885827F7D7C7C7D6D
:1039C8007E7F81838486888A8D8F929497989A9A2D
:1039D8009B9B9B9B9A99999897969695949493916B
:1039E8008F8C898682807E7D7C7D7E7F81838486A4
:1039F800888A8C8F929496989A9A9B9B9B9B9A9A6A
:103A0800999897969695959492918F8D89868381AA
:103A18007F7D7C7C7D7F81838486878A8C8F92944E
:103A280096989A9B9B9C9E9E9D9A97969594949304
:103A380092929292918F8D8A878381807F7F8080F6
:103A4800818182828385888B8F94979B9D9FA0A07C
:103A58009F9E9C9A989695939393939394949391FD
:103A68008F8C898582807E7D7C7D7E7F818486891E
:103A78008C8F9396989A9C9C9D9C9C9B9A999897BE
:103A8800969595959595959594928F8C8886827F35
:103A9800787B78707C827B7D8890969EA6A499908E
:103AA8009098A7B6C2C6C2B7AA9D95918E8D8C89EB
:103AB800857D74695E554E4B4B4D50555A5E61631A
:103AC800646666686B71777D848D969DA2A8ADB497
:103AD800B9BEC0C2C3C3C4C6C8CACCCED0D2D3D460
:103AE800D3D1CECBC6C2BDB8B4B0ADAAA8A6A4A344
:103AF800A3A2A19F9D9995908A847D77716A65603C
:103B08005C595655555454545351504E4D4C4C4C89
:103B18004E505255595E63696F767D858D959DA48B
:103B2800AAB0B5BABEC1C4C6C8CACCCED0D3D5D83F
:103B3800D9DAD9D8D5D1CDC8C3BFBAB6B2AEABA839
:103B4800A5A2A09D9B9A99979593908D88837E783E
:103B5800736D68635E5B58565555555555545352A9
:103B680051504F4F4F505254585C60666B72798079
:103B7800889098A0A7AEB3B8BCBFC2C5C7C9CBCD03
:103B8800CFD2D4D6D8D9DAD9D6D3CFCAC5BFBAB549
:103B9800B0ACA8A5A29F9D9A9897959493918F8C65
:103BA80088837E79746E6965615D5B59585758588A
:103BB800585858575654535352525355575B5F648D
:103BC8006A70767C848C949CA4ABB0B5BABEC1C430
:103BD800C7C9CACDD0D2D3D5D7DADBDBD8D4D0CBBE
:103BE800C6C1BBB6B1ACA8A4A19F9C989593908F71
:103BF8008E8D8D8C8986827D78726D67625E5B584A
:103C0800575757595A5B5C5C5C5B5A585655555523
:103C180056595C61676D737B828A929AA2A9AFB488
:103C2800B9BCBFC2C4C6C9CBCDD0D2D4D7D8DADAD2
:103C3800D9D7D3CFC9C3BDB7B0ABA6A29E9B99971E
:103C4800959391908F8D8C8A8784807B76716C6830
:103C580064625F5D5C5C5C5C5D5E5E5E5E5D5C5A82
:103C680059575757585A5E62676D737980878F978F
:103C78009EA5ACB2B7BABDC1C3C5C7CACDD1D4D54C
:103C8800D7D7D8D9D8D7D4CFCAC4BEB7B1ACA6A1D4
:103C98009D99969493929190908F8D8B8884807A39
:103CA80075706B676462605F5F5F5F6060616161D0
:103CB800605F5D5B59585757595B5E63686D737AEF
:103CC80080878D949BA2A9AEB3B7BBBEC1C4C7CA37
:103CD800CDD0D2D4D6D7D8D8D7D5D2CECAC4BEB8EC
:103CE800B2ACA7A29F9B99969492908E8C8B898751
:103CF80085837F7B77736F6B6866646362616060DE
:103D08006061616161605F5E5D5C5B5B5B5D6063C0
:103D1800686D73787F858C9299A0A7ADB2B7BABD4C
:103D2800C0C3C6C9CCCFD1D3D5D6D6D6D6D4D2CE99
:103D3800CAC5BFB9B3ADA8A39F9C99969492908E1B
:103D48008C8A89878683807C7874706D6A686664DB
:103D58006362626262626262626261605F5E5D5D4E
:103D68005D5F6164696D73787E848B91989FA6AC62
:103D7800B2B6B9BCBFC2C5C8CBCED0D2D3D4D5D5C4
:103D8800D5D3D1CDCAC5BFB9B3AEA9A4A09C9895C7
:103D98009291908E8C8B8B8A8884807C7875716DDB
:103DA8006A686766676767666565656565656362AE
:103DB800605E5C5B5A5C5E62676D737A81878D9426
:103DC8009AA0A5AAAFB3B6B9BCC0C3C7CBCED1D34E
:103DD800D5D6D6D6D4D2CFCBC7C1BCB6B1ACA7A3A3
:103DE800A09D9B989694928F8D8C8A888684817EDC
:103DF8007A7774716E6C6B6A696867666665656404
:103E080064636261605F5E5E5F6163676B6F747954
:103E18007E848A90969DA3A9AEB2B6BABEC1C4C725
:103E2800CBCDCFD1D3D3D3D3D2D0CCC9C5C1BCB7D6
:103E3800B2ACA7A4A09D9A989593918F8D8C8A89EE
:103E48008784827F7C79767472706E6D6B69676621
:103E58006564636362626160605F5F60616264673A
:103E68006B6F73787D82888F959CA3A9AEB3B7BB1F
:103E7800BEC1C4C6C9CBCCCECFCFD0CFCFCDCBC897
:103E8800C4BFBAB5B1ACA8A4A09D9A9895939190D7
:103E98008F8E8D8C8B898683807C797673706E6B20
:103EA800696867666565656464636261605F5F5FD2
:103EB800606264676B6F73787E848A91979EA4AA08
:103EC800AFB3B7BABDC0C3C5C7C9CACBCCCDCDCDBA
:103ED800CCCBC8C5C1BDB8B4AFABA7A4A19E9B99B4
:103EE800979594939291908F8E8C8986837F7C7816
:103EF80075716E6C6A686766656564636261605F48
:103F08005F5F5F5F616365686C70757A80868C93AC
:103F180099A0A5ABAFB3B7BABDBFC1C3C4C6C7C824
:103F2800C9CACACAC9C7C5C2BEBAB6B2AEABA7A4C7
:103F3800A29F9D9B9998979695959594918E8B881D
:103F480085817D7976726E6A686868676563626183
:103F5800605E5D5D5D5F60616365676A6D71757BFD
:103F680081888F979FA6ABB0B3B5B7B8B8B8B9BAC0
:103F7800BCBEC1C4C6C8CACAC9C7C4C0BBB7B2AE32
:103F8800AAA7A5A3A2A1A0A0A0A09F9F9D9C9A9725
:103F980094908D8985817C7874706E6B696867658B
:103FA8006462615F5E5D5C5B5C5C5E606266696EFC
:103FB80072787D83898F94999EA2A7AAAEB1B4B670
:103FC800B8B9BBBCBEBFC1C2C3C3C3C2C0BEBCB903
:103FD800B6B3B2B0AEACA9A7A6A4A3A3A3A4A5A444
:103FE800A3A09D9996928E8A86817D77716F6F6B5B
:103FF800635F605F5852545E6669655F5C5C5F62D0
:10400800646566686C737B82878A8C8F949BA5AF86
:10401800BAC5CDD2D3D0CBC5BEB7B1ADABABADB1C0
:10402800B6BBC0C4C6C5C3BEB7B0A79F9893908F90
:104038009093969A9DA0A2A2A19D9890887F766E53
:1040480067615C59585858595B5D5F61626262618B
:10405800605E5C5B5A5B5D61676F77818A939CA445
:10406800AAB0B4B6B8B8B7B6B4B4B3B4B5B7BABCF6
:10407800BFC1C3C5C6C6C5C2BFBBB6B0AAA49F9BB5
:10408800989798999B9EA1A3A4A5A4A29F9A948D62
:10409800857E766F6A6764615E5D5E5F606262639B
:1040A8006363636261605E5D5D5E61676D757D859A
:1040B8008E959DA3A9AEB2B5B7B7B7B7B6B6B6B623
:1040C800B7B8BABBBDBFC0C2C3C3C2C1BFBBB7B21A
:1040D800ADA8A29E9B9A9A9B9D9FA1A3A5A6A5A3C6
:1040E800A09C968F878079726C686562615F5F5F5C
:1040F800616262636465646363626261616162658F
:104108006C747D868F979FA6ADB2B5B6B6B5B4B2BE
:10411800B2B2B2B3B5B7B9BBBEC0C1C3C3C3C2BFE5
:10412800BCB9B4AFAAA5A19D9B9A9B9C9EA1A3A430
:10413800A5A5A4A29F9A938D857E78726D69666401
:104148006261616162626363646464636362616142
:10415800616265696F767E868E969EA4AAAFB2B4B8
:10416800B5B5B4B3B3B3B3B4B5B7B8BABCBEBFC0D2
:10417800C0C0BFBEBBB8B4B0ABA7A29F9D9C9B9C60
:104188009EA0A1A3A4A4A2A09E99948D867F7872D4
:104198006E6A6765646363636364646465666666C0
:1041A800656566666566696D737A828991989FA56B
:1041B800AAAEB1B3B4B4B4B4B4B4B5B5B6B6B7B7BF
:1041C800B8B8B9BABABABAB9B8B6B2AEAAA5A09CC4
:1041D80099979798999B9D9FA1A2A2A19E9A958F26
:1041E80089827C77726E6B696767666667686869DB
:1041F8006A6A6A6A6A69686867686A6E73798088D1
:1042080090979FA5ABB0B3B5B6B6B5B5B4B3B3B4D4
:10421800B4B5B7B8B9BABBBBBBBBBAB8B6B3AFAB2A
:10422800A6A29D9A97969596989A9C9EA0A1A1A0C1
:104238009D99958F89837D7873706D6B6A696969BB
:1042480069696A6B6B6B6A6B6B6B6A6969696B6EC0
:10425800737980878F969EA5ABAFB3B5B6B6B6B661
:10426800B5B6B6B7B8B9BABABBBBBABABAB9B7B6BF
:10427800B4B1AEAAA6A19D99969493939495979953
:104288009B9C9C9C9A98948F8A857F7A76726F6D96
:104298006C6B6A6A6A6A6B6C6D6D6E6E6D6D6C6B59
:1042A8006A6B6B6E72777D848C949CA3AAAFB2B54F
:1042B800B7B9BABAB9B8B8B8B9B9B9BABAB9B8B869
:1042C800B9BABAB9B6B2AEAAA6A19C97938F8D8D8A
:1042D8008D8F919394969797979694918E89857FD1
:1042E8007A75716E6B6A6968696A6C6E70727373DD
:1042F8007372706E6C6B6B6B6E72787F879098A020
:10430800A8AEB3B7BABBBCBCBBBAB9B9B8B8B9B92F
:10431800BABBBBBCBCBCBBB9B7B4AFAAA59F999488
:104328008F8B898888898C8F919496969695928F91
:104338008C88837E7A7673716F6F6F6F6F7071720E
:1043480073747575757473716E6D6C6D6F73787F3A
:10435800858D969EA5ABB0B5B9BCBEBFC0BFBEBE6D
:10436800BDBCBABBBCBDBEBEBEBDBCBBB8B5B0AAA9
:10437800A39C96908B878482818284878A8D909271
:104388009392908D8985817E7A7774727171727338
:10439800747677797A7A7B7A7977757371706F70BA
:1043A80072757A7F868D949CA3A9AEB3B6B9BBBC4F
:1043B800BDBEBFBFBFBFBFBFBFBFBFBFBEBDBCB914
:1043C800B6B3AEA9A49E98928C8885828181828397
:1043D8008587898A8A8A8988868482807E7C7A7998
:1043E800787777777778797A7B7B7C7C7B7A797733
:1043F8007674737375777A7F858B92989EA4A9AF2C
:10440800B3B6B9BBBCBEBFC0C1C1C1C1C0C0BFBFCC
:10441800BEBDBCBAB8B4B0ABA69F99938D88848250
:104428008080808183848586878787868482807F51
:104438007D7C7B7A7A79797A7A7A7B7C7D7D7E7DC0
:104448007D7C7B7A7877767677787C80858A8F957D
:104458009BA0A6AAAFB2B5B8BABCBEC0C1C2C2C101
:10446800C1C1C1C0BFBEBCB9B6B3B0ABA5A09A9517
:104478008F8A8683828182838382828384858584EE
:1044880082817F7F7E7E7E7D7D7C7C7B7B7C7C7C4D
:104498007D7D7D7E7D7D7C7C7B7A79797A7B7D8153
:1044A800858A8F94999EA3A8ACB0B3B6B8BBBDBE9D
:1044B800C0C1C2C2C2C2C1C0BFBDBBB8B6B3AFAB38
:1044C800A6A29C97928E8A87848382828282828324
:1044D80083838382828181807F7F7F7E7E7E7E7DD3
:1044E8007D7E7D7D7E7E7E7E7F7F7E7D7C7B7A7AF3
:1044F8007A7B7D8185898E92989CA0A4A8ACB0B463
:10450800B7BABDBFC0C0C0C0C1C1C1C0C0BEBDBABE
:10451800B7B4B2AEA8A29D9995918D8A87868583F6
:10452800838282828283838383838382807E7D7C6D
:104538007A7978797A7C7D7E7F808081807F7C7AA9
:104548007876757576777A7D82868D919A98A3A903
:10455800A2A4C0B39BA9B3D3C8A9A3A3A1ABC7E323
:10456800E4CFB6997E6C6E8096A7B6BDB6A2886D6C
:104578005849454B5A6D7F8C92918B80766D69684E
:104588006A6E7275777777777778797B7C7D7E7DB1
:104598007C7B797775737170707174797E848A9079
:1045A80095989CA1A5A9ADB1B5B8BABBBCBDBFC211
:1045B800C5C8CACCCCCBCAC8C5C2BEBBB7B2AEA9E7
:1045C800A49F9B9795949597989897959492908F78
:1045D8008F8E8D8B89868382818182838485848373
:1045E800817F7D7B79787877777674737374767A40
:1045F8007F858A8F93979B9EA2A7ACB1B5B9BCBEA5
:10460800BFC1C2C4C6C8CACBCCCBCAC8C5C2BFBC4E
:10461800B9B6B2AEA8A39E9A989798999998989780
:1046280096949291919291908E8C8A8785838383B8
:104638008281807F7E7D7C7B7978787776747271D1
:10464800707174797F858B909396999C9FA2A6AB85
:10465800B0B5B9BCBFC1C3C5C7C9C9CACAC8C6C431
:10466800C2BFBDBAB7B5B2AFABA7A39F9D9C9B9C79
:104678009C9B9A99989897979797979593908D89D7
:1046880086848382828281807F7D7B7A7877777641
:1046980075747371717274777C81878B9094989C10
:1046A800A0A4A8ADB1B5B9BBBCBDBFC0C2C3C5C786
:1046B800C7C6C4C3C1BFBDBBB9B7B4B0ABA7A3A07D
:1046C8009E9E9F9F9F9F9E9D9D9D9C9C9A9997961D
:1046D80094928F8B888584838282807F7C7A777599
:1046E8007473737372717171717376797E84898F43
:1046F80093989C9FA3A7ABAFB3B6B8B9BABABBBCE3
:10470800BDBFC1C3C3C4C3C1BFBDBAB8B5B3B0ADE3
:10471800A9A6A3A1A0A1A1A3A4A5A5A5A3A2A09F62
:104728009E9C9B9997938F8C8986848382817F7DB9
:104738007B79767472717070707070717274777B37
:1047480080868C9196999DA0A3A6AAADB0B3B5B664
:10475800B7B7B8B9BABBBCBEBFBFBFBDBBB8B5B3AE
:10476800B1AFADABA9A6A4A3A3A4A5A6A7A9A9A8C0
:10477800A7A5A3A2A09F9D9A97938F8B88858381D5
:10478800807F7D7C7A78767371706F6E6E6F6F71D3
:1047980073767A80868C92979B9FA1A4A6A8AAACD0
:1047A800AEB0B1B2B2B3B4B5B6B8BABBBBBBB9B7A9
:1047B800B5B3B0AEADABAAA9A7A6A5A5A6A7A9AA49
:1047C800ACACACACAAA8A6A3A19E9C9996928E8BE1
:1047D80088858381807F7D7B79777472706F6E6E38
:1047E8006F707274777A7D82888E94989B9D9FA251
:1047F800A4A7A9ABACADAEAFB0B0B1B2B3B4B5B6C7
:10480800B7B7B6B5B3B1AFADABAAA9A8A7A6A6A6C8
:10481800A7A8AAADAFB0AFAEACAAA7A4A19E9B971C
:1048280094908C89868381807F7E7C7B7977757272
:10483800706F6E6E6F707173767A7E83898F9499BC
:104848009DA0A3A4A6A7A7A8A9AAAAABABABACADE9
:10485800AFB1B3B4B6B6B5B4B2AFADABAAA9A9A857
:10486800A8A7A8A9ABADAEB0B2B2B1AFADAAA7A484
:10487800A09D9A97928E8986838281807F7E7D7B98
:10488800797673716F6F6F6F717477797B7E8286BB
:104898008C91969B9EA1A3A5A6A8A9A9AAABADAEEB
:1048A800AEAEAEAFAFAFB0B1B1B1B0B0AEADABAA16
:1048B800A9A9A9A9A8A8A8A9A9AAABACADAEAEAE4A
:1048C800ACABA8A6A29F9B9894908C888582807E8A
:1048D8007E7D7C7C7A79777573727272737476795F
:1048E8007C8084898E93989DA1A4A7A9ABABACAC1E
:1048F800ACACACABABAAAAAAABACAEAFB1B1B2B1DF
:10490800B0AEACAAA8A6A6A5A5A6A6A7A8A9AAAB14
:10491800ADAEAEAEADABA9A5A29E9A96928E8A8692
:10492800827F7D7C7C7C7C7B7A78777674727172EE
:104938007375777A7D81858A8F93989DA1A5A8AB99
:10494800ACADAEAEAEAEAEADADADADADAEAFB0B181
:10495800B1B1B1B0AEACAAA8A7A5A5A4A4A4A4A5BA
:10496800A5A6A7A8A9AAAAAAA9A8A6A4A19D9A96F5
:10497800928D8985827F7C7B7A7979797978777647
:10498800757473737476787A7D81858A8F94999D0E
:10499800A2A6ABAEAFB0B1B1B1B1B0AEACABABAB40
:1049A800ABABACADAFB1B2B1B0AFADABAAA8A6A43A
:1049B800A3A1A0A0A1A2A3A4A6A8A9AAA9A8A7A4A4
:1049C800A19D9995918C87837F7C7A78787879797D
:1049D8007A7A7A79787776757576787A7D81858A24
:1049E80090959AA0A5A9ADAFB1B2B3B3B2B2B1B028
:1049F800AFAEADACADADAEAFB0B1B2B2B1AFADAAC6
:104A0800A7A5A3A1A09F9E9E9FA0A1A2A4A5A7A77A
:104A1800A7A6A4A29F9B97938F8B87827F7C7A7986
:104A2800787878797A7B7B7B7A7A797877777779EF
:104A38007B7F84898E93999FA4A9ADB0B4B6B7B78C
:104A4800B6B5B4B2B1B0AEADADADAEB0B2B3B4B44C
:104A5800B3B1AEABA8A6A3A1A09F9E9D9D9D9FA00C
:104A6800A1A3A3A4A4A3A19F9D9995918D898581B4
:104A78007D7A777675757677797A7B7B7B7C7B799F
:104A88007A7B7D7D7D7F83868B9199A0A4A9ACAE2E
:104A9800B1B4B7B9BABAB9B8B4B1ADABA9A9A9ADEF
:104AA800AFB3B4B6B5B4B1AEA9A7A6A29995939180
:104AB8009D9AA49AA0929998A3A08C8F73ADB9A13E
:104AC8008891AC9B8B92997C4E436B9A9E6F434125
:104AD80069867B4B21152C577F9595877D7E8DA206
:104AE800B1B5AFA49DA4B8D2E2E0CCB5A8ABB8C626
:104AF800CBC6B8AAA19EA2A8ADAA9D8C8796B1C91B
:104B0800D2CCBEB0A69F9C9CA0A7AEB2B3B2B0B0A8
:104B1800AEA89B88766A696D72736D60524642448E
:104B2800494E4D453B36415871818887827E7A7758
:104B3800777B8493A3B2BDC4CACFD1D0C9C1B9B65B
:104B4800B8BCBFBFBAB4AEABABADAEAAA1948780B8
:104B58008594A5B2B8BAB6B0A69C918A898D96A05C
:104B6800A6A9A9A7A29B90847A7473716B635A54FF
:104B780052545759564F453B332F34425566747E2D
:104B88008385827C767478828F9EACB7C0C7CACA88
:104B9800C6C0BCBBBDBFBCB6AFAAAAADB2B4B2AAB0
:104BA8009F948B84858E9CA9B1B6B6B1A89B8E853F
:104BB80080838991989C9EA09E9A91867C77757334
:104BC8006D6359535153585C5C564E463F3A3E4AC2
:104BD8005A6A7781878886807A7678818D9AA6B096
:104BE800B8C0C5C6C3BDB9B8BBBDBCB6AFABAAAD2E
:104BF800B2B5B5AEA3988D86868D9AA6AFB5B6B276
:104C0800AA9F938A85868B92979A9C9D9C9890845C
:104C18007B7574736F68605B5A5D6265655F554B41
:104C2800433D3E49596A77828A8D8B87817C7B8098
:104C38008A959FA9B0B6BBBEBEBCB8B8BBBDBCB652
:104C4800AFAAAAAEB5BAB9B1A5988D85848C9AA831
:104C5800B1B7B9B6AEA4978C8685898E929496978B
:104C6800989590877F7A7978746C635D5A5C6165F2
:104C7800656058504943434C5B6B7882898C8B87BD
:104C8800817B7A7F88939CA4ABB3B9BCBDB9B6B518
:104C9800B7BAB9B5AFABAAADB2B6B6B1A89D948B49
:104CA800888D98A4ADB2B4B3ADA4998E8785878C4E
:104CB8009091929394938F88807B7978746C645DDB
:104CC8005A5C616667645D554E4949515F6E7982E9
:104CD800888C8B89847F7E828A949CA4AAB0B6BA79
:104CE800BBB8B4B3B4B7B7B4AEAAA9ADB2B7B8B489
:104CF800ABA1988F8B8D97A2AAAFB1B0ACA59C92AF
:104D08008B898C8F9293939495938E867F797777FE
:104D1800746E665F5D5F64686B68625A544E4C518E
:104D28005D6A757D84888988848180858D969EA535
:104D3800AAAFB3B6B6B3AEACADB1B2B0ABA8A8AD7E
:104D4800B4BABCB9B0A59B918B8C949EA6ABAEAF00
:104D5800ADA9A299939191939594939293928E87EA
:104D6800807A787877726B656264696D6F6C655C60
:104D7800544D4A4D5866727B82888B8B8884838613
:104D88008B939A9FA3A8ADB1B2B0ADABADB1B3B29E
:104D9800AEAAAAADB3B8BAB7AFA49A918B8B939DBC
:104DA800A4A9ACADABA7A199949293959696949229
:104DB80092928F89817B797A7B77706A67686D7147
:104DC80074716A6158524D4F5966727B82878A8B1B
:104DD8008A8786888D959BA0A3A7ACB0B1AFACABF2
:104DE800ACB0B2B1ADA9A7AAB1B6B9B6AFA69D94F9
:104DF8008C8A8E969DA3A8ABABAAA59E98959597ED
:104E0800989897969696938D857F7B7C7C79736D21
:104E18006A6C707477746D635A534D4D55606B743A
:104E28007C828789898887898D949A9EA1A3A7AB5C
:104E3800ACABA8A6A7ACB0B1AEAAA9AAAFB5B8B694
:104E4800B0A69C938B888C949BA0A4A7A8A7A39E8C
:104E58009997989A9C9C9A979694928D87807D7D35
:104E68007D7B76706C6C7075777670675D554E4D8E
:104E7800525C666F767D838789898A8D93999FA214
:104E8800A4A5A7AAACABA8A6A6A9AEB0AEABA9AB81
:104E9800AFB4B7B5AFA4998F8782858D959BA0A431
:104EA800A6A6A5A29E9C9D9FA0A09D9A9897959125
:104EB8008B84818182807C76717072767877726853
:104EC8005D544C494C56626C737A80868A8C8E90FD
:104ED800949A9FA2A4A5A6A9AAAAA8A6A6A9AEB074
:104EE800AEAAA6A6A9ADB0B0ABA2988E8682838BD7
:104EF800939A9FA2A4A5A4A2A09E9FA2A5A6A4A19E
:104F08009E9D9C98928A848282817D77716F71754B
:104F18007979746B6158514D4F57616A72787F8403
:104F2800888A8D90969DA3A7A8A8A9AAACACA9A584
:104F3800A2A3A6A9A8A4A1A1A5AAB0B1ADA4988E20
:104F4800857F7E848C93979CA0A3A4A4A3A3A5A8E3
:104F5800AAAAA8A4A09E9B98928B858383827F7A15
:104F6800747273777C7D7971665C534E4F56616AB3
:104F780071787E84898D9094989EA3A8AAA9A8A8E0
:104F8800A9A9A7A29F9EA0A3A3A09D9B9EA3A9ACED
:104F9800AAA2978C837C7C818A91969A9DA0A2A3D1
:104FA800A3A5A7ABAEB0AEAAA6A3A09E99928B85E7
:104FB80083827D77737071767B7F7E766C61564EC7
:104FC8004C525C6770797F84888C8F9399A0A8ADC8
:104FD800AFAEACAAA9A8A5A09A999B9E9F9D9A99A5
:104FE8009CA0A7AAAAA1978E837C7B7F868F979C7B
:104FF8009D9EA0A3A5A8ABAFB1B2B0ACA6A09A964F
:10500800918C888481807F7C777475787B7C7A75B5
:105018006D5F504B505962686F767B7E838B90959D
:105028009A9EA1A1A0A09FA1A4A8A8A4A09E9FA366
:10503800A4A39F9B9A9DA1A4A39C90857C77787F2D
:105048008B969DA1A3A3A3A2A2A2A2A4A7A8A8A647
:10505800A3A1A1A19F99938C8888847C736C6A6EA4
:1050680073797C786F645C58585E6872787B7D7F52
:105078008285898E949BA2A7AAABAAAAAAABAAA743
:10508800A4A2A1A1A19D979291949BA2A5A39B9252
:105098008A8583878F969A9C9C9C9D9E9FA0A2A59B
:1050A800A9ACACAAA7A4A19F9D98928B8684817B6A
:1050B800746C696B71777A787067605B5B616A732F
:1050C800797C7E808285888B90979EA5AAACACACB3
:1050D800ADAEAFACA8A4A1A09E9A95908E91989FD2
:1050E800A4A39C948C8685888F979B9C9C9B9A9A5A
:1050F8009C9D9FA3A7AAABAAA7A4A2A19F9A948E9E
:105108008985817B736C68696E7579787168605C74
:105118005D636D777E82838384868A8D9299A0A64B
:10512800AAACACACACADAEADAAA7A4A3A29E999311
:105138009091979DA19F99908883838891999D9E2E
:105148009C9A989797999CA0A4A7A9A7A4A2A1A064
:105158009F9C97918C898680776F6A6A6E7478763F
:105168007068615E5F66707B828486868788898DB9
:1051780092989EA4A8A8A7A6A7A8AAAAAAA9A9A9D6
:10518800A8A39B938F8F93999C9B948B8481838AEC
:10519800939DA1A3A29F9D9A9A9A9D9FA2A4A3A022
:1051A8009D9D9C9C9C9B979593918C837972707024
:1051B800727475736E67615D60687480878B8C8BA1
:1051C8008A898B8F94999EA2A4A3A3A3A6AAAEAF03
:1051D800AEACACACABA79F97919093989A968D8301
:1051E8007C797E8895A1A7A8A5A19D9A99999A9C52
:1051F8009E9F9E9D9B9A9C9E9F9E9A9795938F8813
:105208007E746E6F737779756C625B59606C7986A2
:105218008D908E8B8A8B8C8F94999DA0A2A1A0A231
:10522800A5AAADAFB0B0B0AFABA59D9693959BA125
:10523800A29B90857C797D87939EA3A39F9B999839
:10524800999A9C9EA0A09E9B9795959695949291CD
:1052580091918E877F7876787D8180796D625A59B1
:10526800616F7E898F908F8F8F9295989CA0A3A451
:10527800A3A19FA0A4A8ACAEAFB0B2B2AFA9A19BA6
:105288009A9DA1A4A2998C8078777E8A969FA19FE7
:105298009B989797999B9D9E9D9B96918D8C8E919F
:1052A8009394949495938E867E79797D8284807781
:1052B8006A605A5D6777858F92918F8E9093979CDD
:1052C800A0A2A3A29F9C9C9EA3A8ACAFB1B3B4B26A
:1052D800AEA7A09D9EA2A6A6A094877C7678808D76
:1052E800999F9F9B9794939496989A9B9995908C45
:1052F8008A8B8F939596969696938D857F7D7F85DD
:105308008A8A85796D6460646F7D8990918F8C8BB2
:105318008D91979DA1A3A39F9B9796999EA3A7ACB8
:10532800AFB3B3B1ADA6A2A0A3A8ACA9A296887D3D
:10533800787D89959EA29F98918E8E91969C9FA02C
:105348009B948B848182878A8E92959797938C847D
:105358007F7F84898D8C84796E6764697584909564
:10536800938E8B8B8F94999FA3A5A29D98949497C5
:105378009CA1A5AAAEB2B4B1ACA5A2A2A7ADB0AC8F
:10538800A193867E7D838D979D9E9A95908D8D8F16
:1053980092969897938C847F7D7E83878B8E91924B
:1053A800928E89838183888F928F877B706A6A73D4
:1053B8007F8B949695908D8C8E93999FA3A4A19B97
:1053C800959291959CA2A8ACAFB1B1ADA8A4A2A4A6
:1053D800A9AEAFAAA09488818188929CA09F9A9335
:1053E8008C898A8D92979998938B827C7A7B7F841B
:1053F800898C9092918E898583858A909390877CF9
:10540800726C6E76838F969794908D8C8F949BA1F7
:10541800A5A6A29B95909093999FA5AAAEB0B1AE70
:10542800AAA5A3A4A9AEB0ACA2958A828289949EAB
:10543800A2A19C948D89898D919698979289817B58
:10544800797B80858A8E919393908B8684868B90C6
:105458009390887D746F717A87939A9B97918B89C3
:10546800898D949BA0A2A09A949090939AA0A5AAA3
:10547800AEB0AFACA7A2A0A2A7ADB0ADA4988D86E0
:10548800868C96A0A5A49E958D8785888E939798DF
:10549800948C837D7C7F84888B8D8E8F8F8C888481
:1054A80083858B9194938C817872737A8591999B7B
:1054B8009790898584888F969B9E9C97918D8D91D6
:1054C800979EA4A8AAACACAAA6A2A0A2A7ACAFAD6E
:1054D800A79C928B898F98A2A8A8A1978E8784866B
:1054E8008B9095979590877F7C7E8286898C8E8F0E
:1054F8008E8A86818082888F949590877D74727653
:10550800808C969A98928A8583868B92989EA09C86
:1055180096919092979DA3A7AAACADABA6A3A1A282
:10552800A6ACAEACA8A39B928C8D949EA6A8A49B77
:105538008F847E7F858D9497958F87807D7D8186EA
:105548008A8C8D8E8E8D8B878483868C9295938D95
:10555800847C7879818C959A99938B8581848991BB
:10556800989D9E9D97938F8E959FA3AAA7A39A9C7B
:10557800B1A5B6B4A2A3999594999F9985695D72CE
:105588009ABFCBBE9A705B6891C2E0DEBC864E2A99
:10559800294B7DA7B6A7845F484550637686929AC3
:1055A800A2ABB4BCC0BDB5A9A19A948B7F71655C50
:1055B80056535153575F69737B82888E97A1A9AC64
:1055C800A9A39A9189878D99A6B3BFC6C8C6C1BB3E
:1055D800B1A79E9A97948E867F7874727274798038
:1055E800888F92918D89888B9095948E8479727228
:1055F8007A8695A4B0B9BCB9B0A29283766D696871
:10560800696967635F5C5C606874818D9699989539
:105618009394999D9D988E8580828A96A5B3BFC9DB
:10562800CFD1CEC5B9AB9C8E8581828383807972B8
:105638006D6B6E76828E989C9C99949192949490BE
:10564800887F79797F89959FA8AEB2B1ADA69B8EE8
:105658007F7065606064686A68645E5B5D646F7DC6
:105668008C969B9A969494969898938D87878D9804
:10567800A6B3BDC5CACCCAC6BDB2A391817774789A
:105688007E83847F776F6A6B7481909CA4A5A19BAD
:105698009592908D89827B7A808B97A2ABB0B0AFC0
:1056A800ADA8A094867563565257616B7170696096
:1056B80059575D697A8A98A1A3A09B95918F8D8C83
:1056C8008A8B909BA7B3BDC2C4C3C0BDBAB4A99806
:1056D80086776F6F767E8588847C736D6C737F8E1A
:1056E8009EAAAFACA49C958E88837F7F858E99A354
:1056F800AAADADAAA7A29E978E817162575459642C
:105708006E74736C635D5C616E7E8F9EA7AAA69FA4
:1057180097908A878689919CA9B5BCC0BFBCB8B54B
:10572800B2AFAAA09281736C6E7681898A857B72EA
:105738006C6D758393A3AFB4B1A89D91867F7C7F70
:1057480086919DA7ADADAAA49F9B989591887B6BE8
:105758005D54545C677276746B625B5B62708397AE
:10576800A7B0B2ACA19488817F838D9AA9B5BDC03A
:10577800BFB9B2ACA9A8A7A19688796E6C727C85CE
:105788008B8A847A726F737D8B9CADB8BCB6A998EE
:10579800887C777A83909EAAB1B2AEA69D96918EA8
:1057A8008D888074675A54565E697276726B625D32
:1057B8005E6776899CAAB2B0A7998B7F7A7C85941C
:1057C800A4B4BFC3C1BAB1A9A4A3A3A19C9285796B
:1057D800717279848D918E857C7471768292A4B36E
:1057E800BBBAB1A18F8077777D8A9AA9B4B7B3A9DC
:1057F8009C918A88888782796C6057555C67727833
:105808007871685F5C5F6B7C90A3B0B3AEA1908148
:1058180077767E8DA0B3C2C8C6BDB0A59E9C9D9E5E
:105828009C958B8078757A838D94948E857B75751D
:105838007D8B9DAEBABEB8AA99887C787D899AAAD4
:10584800B6BBB7AC9C8D837E8082817B72685F5BC0
:105858005E66707576726960595A6372869BABB3DF
:10586800B2A797867A767C899DB1C2CAC9C0B3A50A
:105878009B96979A9C9A958D858081888F96948C13
:1058880082777171788596A7B6BDBBB09E8A7B7604
:105898007B8796A7B7C1C1B5A290837E7D7F807CA8
:1058A800756D6562646A727879746B615C5E667442
:1058B8008598A8B1B1A89A8A7F7A7F8DA1B5C6CEFE
:1058C800CDC2B3A396908F9294938F888280848A56
:1058D8009297958F847A7270758192A3B2BBBBB38D
:1058E800A5958880818B9AAAB8C0BEB5A594867DF7
:1058F8007B7C7C7A76706B6B6F747A7D7A73685E6A
:1059080057575F6D8094A4ADAFA89D8F837D7F8925
:1059180099ACBDC8CAC2B5A69992919292908B874C
:1059280085878C91969692897E736C6D768597A8FB
:10593800B4BAB8B0A3958A82828B99AAB8C0BFB707
:10594800A99A8D84807E7B76706B696D747C828267
:105958007B706359545661718395A2A9A8A2988C4B
:10596800837E818C9BADBCC5C6C0B6AAA099959212
:105978008E88837F8188929CA19F96897C716C6EAA
:10598800788697A7B1B5B3ABA1958B85868E9BAA70
:10599800B7BEBEB6AB9F948C857E766E676469731E
:1059A8007E888B867B6C5E545256627284939EA36B
:1059B800A39E978F898689919FAEBBC3C4C0B9B196
:1059C800AAA29A9188807B7C84909DA6A79F9282A8
:1059D800736A676B768494A1A9ACAAA59D948C87F9
:1059E800888F99A5AEB3B4B1ACA59D958A7E716731
:1059F800636772808C92918779695D56575E6B7A7E
:105A080088949CA0A19F9B948E8B8D949DA9B3BBD9
:105A1800BFC1C2C0BAAEA0918278767E8B9AA5AB80
:105A2800A699897A6F6A6C737E8790969B9E9E9FD3
:105A38009A958E8B8B8E9399A1A8B0B5B7B6AD9D6C
:105A48008B7A6D66676F7C8A94968F84766A625FBC
:105A58006268707880888F95999C9E9D9995949698
:105A68009A9FA6B1BDC8CECCC2B29F8D7F7B7F8ADC
:105A780097A1A4A19A8F847A74717275797D8186B1
:105A88008C92989B9B99948E8986868B95A5B5C197
:105A9800C7C4B7A28A766B6A717C888F928F898116
:105AA80078716B686667686B717A849099A0A3A314
:105AB800A09A948D8C929EB0C4D3DAD4C5AE98883F
:105AC80082848C9397999A9A98938E887F79716D2E
