:020000041000EA
:1000000000B5324B212058609868022188439860DF
:10001000D860186158612E4B002199600221596106
:100020000121F02299502B49196001219960352056
:1000300000F044F80222904214D00621196600F024
:1000400034F8196E01211966002018661A6600F04E
:100050002CF8196E196E196E052000F02FF8012189
:100060000842F9D1002199601B49196000215960AB
:100070001A491B48016001219960EB211966A021F2
:10008000196600F012F800219960164914480160C1
:100090000121996001BC002800D000471248134993
:1000A000086003C880F30888084703B5996A0420EC
:1000B0000142FBD001200142F8D103BD02B5186610
:1000C0001866FFF7F2FF186E186E02BD00000240BE
:1000D000000000180000070000035F00212200005C
:1000E000F4000018222000A00001001008ED00E03C
:1000F00000000000000000000000000074B24E7A12
:1001000000200420F7010010C3010010C5010010F9
:10011000C1010010C1010010C1010010C101001097
:10012000C1010010C1010010C1010010C701001081
:10013000C1010010C1010010C9010010CB01001065
:10014000CD010010CD010010CD010010CD01001037
:10015000CD010010CD010010CD010010CD01001027
:10016000CD010010CD010010CD010010CD01001017
:10017000CD010010CD010010CD010010CD01001007
:10018000CD010010CD010010CD010010CD010010F7
:10019000CD010010CD010010CD010010CD010010E7
:1001A000CD010010CD010010CD010010CD010010D7
:1001B000CD010010CD010010CD010010CD010010C7
:1001C00000BE00BE00BE00BE00BE00BE00F04BF888
:1001D000103800BEF2EB8871A4130410C41304108D
:1001E0003402001090A31AE700202149086006C8D5
:1001F00081F3088810471F48006800282FD10DA4FC
:100200000ECC002902D000F012F8F9E71A491B4A77
:10021000002000E001C19142FCD1194988471949E9
:1002200088471949884700BEFDE701C901C29A42C3
:10023000FBD37047C4130410C00000200834002012
:100240000C47041000000420000004200C47041098
:1002500000100420001004200000000070470B482C
:1002600000F0CEFF0047EFF30580C0B270470000FA
:1002700008ED00E0000000D00834002048E303202F
:10028000A9250010E16F0010C92600105756000084
:1002900006005250ABB3605348A300100600525002
:1002A000861C030250A30010060052505422A29D47
:1002B00058A3001005005250DE65F4680C47041086
:1002C000F8B5C04610B5064C2378002B07D1054B76
:1002D000002B02D0044800E000BF0123237010BDB2
:1002E000183600200000000010A30010044B10B5C9
:1002F000002B03D00349044800E000BF10BDC046F6
:10030000000000001C36002010A30010014804214A
:10031000014B1847B026002021120010144A936F99
:100320009B0815D29066D166002905D0FFE7FFE74C
:10033000FFE7516F106F704704B580210906C2179F
:100340005140002800D0C84309F0BAFF002104BD85
:10035000936F5B08FDD3F0B5946ED56E576F166F33
:10036000FFF7E0FF9466D56657671667F0BD00009B
:10037000000000D0134A936F9B0813D21066516699
:10038000002905D0FFE7FFE7FFE7516F106F7047C7
:1003900004B5002801D00020C04309F091FF0021DE
:1003A00004BDC046936F5B08FDD3F0B5946ED56E67
:1003B000576F166FFFF7E2FF9466D56657671667AB
:1003C000F0BD0000000000D094464E4A926F9208A3
:1003D000624601D230E0C046F0B54A4EB56F6D08B6
:1003E000FCD3346E756E776F366F00F025F8944647
:1003F000444A14665566576716676246F0BDC046A4
:100400009446404A926F9208624601D258E0C04634
:10041000F0B53C4EB56F6D08FCD3346E756E776FDA
:10042000366F00F04DF89446364A146655665767A5
:1004300016676246F0BDC046002B24DB11D00029B0
:100440003EDA00B5C943404200D1013100F038F82E
:10045000C943404200D10131DB43524200D1013354
:1004600000BD002AEBD1002801D1002905D00020D1
:10047000C90FC90701D1C043410800B509F018FFF1
:100480000022002300BD00B500290ADBDB435242F5
:1004900000D1013300F014F8C943404200D10131CA
:1004A00000BDC943404200D10131DB43524200D17B
:1004B000013300F005F8DB43524200D1013300BDA7
:1004C000002923D1002B18D1002A0CD0BC460D4F97
:1004D00038667A6600210023FFE7FFE7FFE77A6FBF
:1004E000386F67467047002801D00748010000B503
:1004F00009F0DEFE0022002300BD02000B000020F8
:1005000000217047000000D0FFFFFFFF002B00D04C
:10051000BDE0130C26D1002AE7D080B4104F396615
:100520007A66FFE7FFE730B4040C7B6F396F1B047A
:1005300023433B66FFE7FFE7FFE7C04684B27B6FDC
:100540003D6F1B0423433B66FFE7FFE7C0460023E4
:100550002C042D0C7A6F386F00196941B0BC7047BC
:10056000000000D0F0B594460025140E01D112020F
:100570000835140F01D112010435940F01D19200F6
:100580000235D40F01D152000135D40B0134254F6F
:100590007C66254C3C660E0C93B2FFE7FFE7FFE755
:1005A0003C6F6643360C7703BE467343DF0B5B0438
:1005B000C01AB941130C7343DB18C91ACE0866433D
:1005C000360CB64493B273431F0F1B01C01AB941D6
:1005D000130C73431F0B1B05C01AB941860D8F0204
:1005E0003E436643360C092D24DB520A7243801ABF
:1005F0007703460A6643360C16235B1BDE40DF405A
:10060000BF1964466643821B7046043506330100F9
:10061000D940A840C01900D30131A24206D200231C
:10062000F0BD0000000000D0FFFFFFFF121B0130F3
:10063000F3D3F1E709277F1BFE406446A2B2724361
:10064000801A00D20139220C7243130C1204821A50
:1006500099410B007046043513370100F940A8405A
:10066000801900D30131002B02D1A2420AD2F0BD81
:10067000013000D30131121BFAD2013BF8D1A24262
:1006800000D2F0BD013000D30131121BF7E7F0B505
:100690001C0C00D080E00CB400251C0A04D11B0205
:1006A000160E3343120208351C0B04D11B01160F22
:1006B0003343120104359C0B04D19B00960F334346
:1006C00092000235DC0B02D192185B4101351C000F
:1006D000971864410134464F7C66464C3C660E0CCC
:1006E000FFE7FFE7FFE7C0463C6F6643360C770342
:1006F000BE4697B27743C01B00D20139C01B00D25F
:1007000001399FB27743C91BC91B170C77437E047D
:10071000FF0B801BB941CE086643360C0C2D33DB32
:10072000B644120B1F053A431B0B97B27743C01B0D
:1007300000D201399FB27743C91B170C77433E049F
:100740003F0C801BB941860D8F023E43664329272B
:100750007F1BFE400C3D7746AF40BF1930BCA2B2B4
:10076000ABB272437343801A9941220C7243130C4B
:100770001204801A994102000B000137001BA941A5
:10078000F9D2781E0021F0BD0C277F1BFE40774672
:100790007F0BAF40FF19E0E700245D1C07D0144F2A
:1007A0007D663966FFE7FFE7FFE7FFE73C6F95B23D
:1007B0009EB265436643401BB141150C1E0C654358
:1007C000664336042F0C3E432D04401BB141994231
:1007D00004D202000B0020000021F0BD01D19042A4
:1007E000F7D3801A994101349942F2D3F6E7000019
:1007F000000000D0FFFFFFFF30B5054DAC6F64086F
:10080000FDD3296E6A6E6B6F2C6F1EC030BD000069
:10081000000000D030B5034D1EC829666A666B67BC
:100820002C6730BD000000D048404140484018B41B
:10083000114B5B68FC46019308BD04DFA30900105F
:1008400018B40D4B1B68FC46019308BD00DFAD09D1
:10085000001018B4084BDB68FC46019308BD0CDFA0
:10086000650C001018B4044B9B68FC46019308BD4E
:1008700008DF090B0010000018340020FFB55040BD
:100880004240504059404B40594000E0FFB5154FA1
:100890004C00640D03D0BC4204D10C0314D80020DA
:1008A000090D09055C00640D03D0BC4204D11C0392
:1008B0000AD800221B0D1B0501264B4009D44B40D2
:1008C00003D58B4200D18242FFBD9942FCD19042B8
:1008D000FFBD0B43DB1803431343F5D0C94349184D
:1008E000FFBD0000FF07000000B5FFF7CFFF80410C
:1008F00000BDC04600B5FFF7C1FF01D9002000BD13
:10090000012000BD00B5FFF7B9FF804100BD10B563
:100910004C00620D8023D218DB00D21A5B057E2AC0
:1009200010DD9E3A13DACC170903490819435242E5
:10093000D140640001341532202A05DAD040084342
:10094000604310BD002010BD0846604310BDC80FB5
:10095000C018013810BD000018B4044BDB6FFC4612
:10096000019308BD7CDF150E001000001834002034
:1009700007B5604601880A0A0230DF2AFAD1C9B2F7
:10098000820804D3028840880004104300E0006815
:10099000014A5050039007BD183400200FB403BC27
:1009A0000CBCF0B50124E407634000E0F0B50C0D89
:1009B000CF0F661E3605891B640503D3C943404229
:1009C00000D30131640D03D0661CF60A07D0E41B86
:1009D00000207F00791C89078912803C24031D0DAB
:1009E000DF0F6E1E36059B1B6D0503D3DB435242A2
:1009F00000D301336D0D03D06E1CF60A07D0ED1B3A
:100A000000227F007B1C9B079B12803D2D032F1B28
:100A1000661B58D4A446202E46DA20371400BC406A
:100A20001D00BD40F24033412A4380185941CB0F8D
:100A300005D0C943C043002264425041514162463F
:100A40004D0D28D10D0D07D100281FD0241940418C
:100A50004941013A0D0DF9D0640006D3013000D3AD
:100A60000131002C01D140084000013A0BD4941C04
:100A7000E40A04D112051144DB071944F0BDD9077B
:100A8000204B194300E0D9070020F0BD0029DDD13B
:100A9000002CDBD1F0BD0132C6074008CD0728434A
:100AA0004908002EE1D0D9E73C2E29DA203E403714
:100AB0001400BC4000D00124F24014431A00BB4093
:100AC0001C43D317ACE7AC46202F08DA20360400CD
:100AD000B4400D00B540F84039412843A5E73C2F0C
:100AE0000CDA203F40360400B44000D00124F84026
:100AF00004430800B1400C43C117EAE71000190095
:100B0000002494E70000F07FF0B50C0D661E36055A
:100B1000891BE60A6405640D02D0651CED0A04D049
:100B2000002001210905803C2403A4461C0D671EFA
:100B30003F05DB1BE70A6405640D02D0651CED0A66
:100B400004D0002201231B05803C24037740644429
:100B500097B484B296B27443070C7E43150C6F436E
:100B600080B26843361802D3012000043F183004D5
:100B7000350C00197D41844688B29AB250430C0C62
:100B800062431F0C7C438EB27E43921902D301262E
:100B90003604A4191604170C3618674101BC81B23B
:100BA0009AB25143040C62431B0C5C4380B258431D
:100BB000121802D30120000424181004130C40184A
:100BC00063412D185E410020474106BC88B293B2B4
:100BD00058430C0C6343120C544389B251435B18C5
:100BE00002D301210904641819041A0C091862417E
:100BF0006D1856410020474118BCF902720D11438F
:100C0000F0026A0D1043ED020A0D03D16D19404147
:100C10004941013B124E9B1B7600B3420ED26D0040
:100C200007D30130002671416646354301D14008A3
:100C300040001B05C918E4072144F0BD0BDA01335D
:100C400006D1013004D101314F0D01D04908F2E73E
:100C5000E1070020F0BD013631050020EBE7000080
:100C6000FF030000F0B51C0D671E3F05DB1BE70A04
:100C70006405640D02D0661CF60A04D0002201232C
:100C80001B05803C2403D0252D060026F6432E6646
:100C90001E096E66CE0FF619B44649004F0D02D0FC
:100CA0007E1CF60A03D000200021403F3F033E1B7C
:100CB000B600B444013F7F05C91B49082E6F0136B9
:100CC00076089C02950D25437543ED137543AD13CE
:100CD00001356D10F603761B0CB4CC02450D2C4388
:100CE000A2B2B3B25A43270C7B43350C6F43A4B274
:100CF0006C431B1902D3012424043F191C041D0C4E
:100D0000A4187D4124196D41009A91B2ACB261439F
:100D1000170C7C432B0C5F4392B25A43A41802D3A6
:100D200001221204BF182204230C52187B41019C9B
:100D30006C431B19520ED9010A434401A01A81B217
:100D4000B2B2514303145A43360C734387B277430C
:100D5000D617D21900277E4136049B191704160CAA
:100D60007F185E417316ED18F3010026803375413C
:100D7000A90F06D16400690AE8055B0A184309D285
:100D80002FE00422944480337541A90AA8059B0AE8
:100D9000184326D3404149412404009A019B0D0089
:100DA0005543641B4343E41A95B286B27543170C4E
:100DB0007E43030C5F4392B25A43B61802D301221A
:100DC0001204BF183204330C52197B4152429C4129
:100DD000002C02D40022013051414008CA071043C0
:100DE000490802B06246D7079210084BD218084B48
:100DF0009A4203D212058918C919F0BD0020002AB1
:100E000001DC3900F0BD01331905F5E7FD030000F1
:100E1000FE0700004A00520D144BD21A13DDFF2AC0
:100E20001EDAD205CB0FDB071A43C300400F0903BC
:100E3000490A084310435B0001D301D001307047D9
:100E40004308FBD2704702D0C80FC00770470A039F
:100E500012130132F8D1420F072AF5D1012200E026
:100E6000FF22C80F00028018C005704780030000F1
:100E7000484041404840064B5B681847044B1B689C
:100E80001847034BDB681847014B9B681847000065
:100E90001835002007B548404140484001E0C046B1
:100EA00007B54200120E03D0FF2A03D1420218D820
:100EB000C00DC0054A00120E03D0FF2A03D14A021A
:100EC0000FD8C90DC9050122414005D4414001D5C3
:100ED000814207BD884207BD0143491801D0C04384
:100EE000001807BD00B5FFF7DBFF01D0002000BDF3
:100EF000012000BD00B5FFF7D3FF804100BDC04613
:100F000000B5FFF7CDFF01D9002000BD012000BDD5
:100F100000B5FFF7BFFF01D9002000BD012000BDD3
:100F200000B5FFF7B7FF804100BD491A002807D17F
:100F300008467047C10FC90700D54042002817D0A6
:100F4000F44603B40B4B1B68984706BC81409E389F
:100F50004042803107D20B0607D04900490AC0053C
:100F60001043084360470130F8E7490A8902F5E772
:100F70007047000020E3032041000A0E80231B0677
:100F80007E2A0BDD9E3A0BDAC11740024008184357
:100F90005242D04049000131484370470020704719
:100FA000C00FC01801387047C0420DD300B54000D3
:100FB0004008002100F012F8002801D4404200BD92
:100FC0008020000600BD0000034BDB69FC4618478B
:100FD0001CDF5D110010000018350020014B5B6A1A
:100FE0001847000018350020014B1B6B1847000004
:100FF00018350020034BDB6FFC4618477CDF75116A
:101000000010000018350020C11502D4054B9B6963
:101010001847C843FF2801D1C0077047C817C0054B
:1010200070470000183500204100090E862902DAB9
:10103000044BDB6B1847044900B500F0D5FC02BC3B
:101040008E46F5E718350020DB0FC9404100090E38
:10105000862902DA044B1B6C1847044900B500F0DE
:10106000C3FC02BC8E46F5E718350020DB0FC940F3
:101070004100090E862902DA044B5B6C18470449CB
:1010800000B500F0B1FC02BC8E46F5E71835002033
:10109000DB0FC940034B9B6DFC46184758DFD5104A
:1010A000001000001835002007B5604601880A0AC4
:1010B0000230DF2AFAD1C9B2820804D302884088FC
:1010C0000004104300E00068014A5050039007BD3F
:1010D0001835002030B51D4CA446E04704460846AC
:1010E000214614461A462346E04740014901D418D8
:1010F000641201340AD4D41A05DA644220411C2C4B
:101100000DD3C0170BE021411C2C08D3002804DAB2
:101110000F4B1868C917484014E0C81712E00022A6
:101120000B4B002802DA404249421A680124094D5B
:10113000A8471046064B1A68841802D2841A00D4B5
:10114000A01A01380022044B18470000C1290000F2
:10115000FC2C0000972B0000192B00000021C21569
:101160008032803201D0024A1047002070470000D0
:10117000CD2A0000C30FDB0741000A0E07D0FF2A6B
:1011800008D00909054A8918194340077047190012
:10119000002070470249C918FAE700000000003833
:1011A0000000F07F01480421014B18470827002068
:1011B00021120010014B1B6818470000082700206F
:1011C000014B5B6818470000082700205143434348
:1011D000C9188C46110C83B24B4310B4040C614304
:1011E00092B280B2504362431C041B0C001910BC25
:1011F00059411304120CC01851416144704700005A
:10120000142310B50100188804331B88984710BDBB
:10121000162310B50100188802331B88984710BDAB
:10122000F8B54746CE4680B50F1E19D0142399460F
:10123000043304000025012698464B46188843468F
:1012400021681B88984701C4431E984101354042DC
:101250000640AF42F1D13000C0BCB946B046F8BD3F
:101260000126F8E7EFF3108072B6034A1368002BEB
:10127000FCD0BFF35F8F70472C0100D0BFF35F8FAE
:101280000022024B1A6080F3108870472C0100D0B6
:10129000F8B5CE464746914680B5EFF3108C72B64E
:1012A000104D2B68002BFCD0BFF35F8FCB08C45CC4
:1012B000C7180720260001230840C6401A00324004
:1012C00033420BD1834023433B70BFF35F8F2A60CF
:1012D0008CF31088C0BCB946B046F8BD484601F052
:1012E000F5F9C0462C0100D0F8B54746CE468846F1
:1012F00080B5EFF3108C72B6214D2C68002CFCD019
:10130000BFF35F8F9A422DD8D408055D07190724D3
:101310002E001440E640F1071ED507218946063904
:1013200008E0D408055D07194C462E001440E6403D
:10133000314211D001329342F3D201204042BFF337
:101340005F8F00220E4B1A608CF31088002811DB8F
:10135000C0BCB946B046F8BD0123A3401D431000F0
:101360003D70ECE7BFF35F8F00232B608CF3108898
:10137000012040424346002BEAD0089801F0A6F92C
:101380002C0100D0F0B54F464646D646C0B51700F2
:10139000089A050088469A4265D8190E180200235B
:1013A000FFF72EF8314B6C009C466419A40064448E
:1013B00063688146984200D960602B1FDBB29A4671
:1013C000012B2CD9C0238022294EAD009B017159DD
:1013D000234312011A60002905D07069FEF7CAFF85
:1013E00001300138FDD122687F017A40E027802357
:1013F000174052465B0123431F60012A26D98023F0
:1014000080229B01234312011A604B460120636036
:10141000089B7351E0BCBA46B146A846F0BD4346AE
:10142000012BCFD1C02303229B0123431A60023A30
:10143000A3681A42FCD0E02322687F0157401F4076
:1014400080235B0123430A4E1F60AD0042462168A2
:10145000514003220A401A60012243469A40A36881
:101460001A42FCD0CBE70020D4E7C0460080004001
:101470001CDC032030B50C2083B002F0A9F901F088
:101480003DF800280ED09A4B9A4A1A605A609A602A
:10149000DA601A615A619A61DA611A62964A5A628E
:1014A00003B030BD954CA06702F09AF90122944B2D
:1014B0001A60636C012BFCD10322924B1A608F4A95
:1014C000936B012BFCD1C0228F4B92011A608F4B82
:1014D0008F491A6010008B689843031EFAD10224CA
:1014E00001218C4A8C480633009401F00FF8052343
:1014F0008A4A01218A48009401F008F8894B5A6809
:10150000FF2A02D8802252005A608022784C7D4BFC
:1015100021691201834D1A60002905D06069FEF728
:1015200029FF01300138FDD1E0217E4B02201A68ED
:101530001140802252012A4311601968484003215A
:101540000140116004219A681142FCD08022802160
:1015500092012A4309011160802252005A60724BA5
:101560002361724B5968FF2900D85A600321644AED
:101570006E4B116002399A681142FCD0E0201A6863
:101580001040802252011A4310601868484003211D
:1015900001400220116065498A681042FCD0802217
:1015A00092011343802212011A608022604B520084
:1015B0004A6063615F4B5968FF2900D85A608022F6
:1015C0005D4BE16912015B4D1A60002905D060692D
:1015D000FEF7D0FE01300138FDD1E02255490B68FD
:1015E0001A4080235B012B431A60802380229B01D9
:1015F0002B4312011A6080223E4B52004A60E36185
:101600004E4B5968FF2900D85A6080224C4B216A02
:1016100012014A4D1A60002905D06069FEF7AAFE42
:1016200001300138FDD1E02244490B681A40802383
:101630005B012B431A60802380229B012B43120104
:101640001A60802380225B004B602A4BD202236207
:101650003C4B5968914200D25A6080223A4B616AF1
:101660001201384D1A60002905D06069FEF782FE2C
:1016700001300138FDD1E02232490B681A40802345
:101680005B012B431A60802380229B012B431201B4
:101690001A608023DB024B60174B63622B4B5A6846
:1016A000FF2A02D8802252005A608022284BA1696A
:1016B0001201264D1A60002905D06069FEF75AFE16
:1016C00001300138FDD1E02220490B681A40802307
:1016D0005B012B431A60802380229B012B43120164
:1016E0001A6080235B004B60114BA361D8E6C046B3
:1016F0001CDC0320006CDC021BB7000000800040F3
:101700003CB0004030B0004000E0004000F000403D
:1017100000C00040002F68590080024000389C1C27
:1017200000C0024030800040001BB7003C800040F9
:10173000405973075480004054B00040608000401E
:1017400060B000406C8000406CB0004048800040B9
:1017500048B00040014B8000C05870471CDC03209B
:1017600010B50400012001F0E3FA0100200000F0B0
:101770005BFBBFF35F8F10BD132370B51D78012D88
:1017800010D00BDD1948FFF743FD194C01008022F2
:101790002000FFF715FD022D01D070BD144C154B34
:1017A000A364FAE7134B124C23606360A360E36009
:1017B00023616361A361E36123626362A362E36205
:1017C00023636363A363E36323646364A364E364E5
:1017D00023656365A365E36523666366A366E366C5
:1017E00023676367A367E367A364D6E753440000F6
:1017F000183400207109001030B5002589B00400AC
:101800000922002101A80095FFF7D4FC092200213C
:1018100005A80495FFF7CEFC4B236A466846137073
:1018200004A908F065FD1521082220006944FFF78E
:10183000C7FC09B030BDC046132310B512481C7850
:10184000FFF7E6FC0100012C0AD003DD80220F48DF
:10185000FFF7B6FC0E48FFF7D3FC0E4B186010BD27
:101860000A4C54222000FFF7ABFC0B4B6365A365C9
:10187000E36523666366A366E36623676367A3671E
:10188000E3672362E361E5E7534600001835002073
:101890004C33000020E30320A9100010F8B54546A2
:1018A00057464E46DE46E0B5FF268846C50DC90DB3
:1018B00035401700041C0E40002A01D0002313609D
:1018C000FF2D60D0002E5ED0002D5FD0201CFF2E9B
:1018D00053D0731EAB4250DCE20F944680221204B8
:1018E00091466402640A1443424649465202520A2F
:1018F00011438946AB4251D06346002B58D000219A
:101900006442AD1B002D5CDD4B460120D9114042E5
:10191000FEF730FD1D23834600219C462A000C2D36
:1019200000DD0C2258466312944043436046A246B1
:10193000801A03414C465046914001335B105C4392
:101940005918041BAD1A002DE8DCA14537DC4B46C5
:10195000E41AA14546DCE41A023163004B4519DC68
:1019600016D04346002B00DA4942002F00D03960E0
:1019700096212000891BFFF737FBF0BCBB46B2461F
:10198000A946A046F8BDFF20C005F6E70020F4E711
:10199000CB07E6D54B460131E41AE2E78C42ECDD99
:1019A0006346002B13D14B002E000121E41AD8E727
:1019B000AD1B002DA8DC8C4211DA0021CDE7002CF4
:1019C000CBDA4B46E41808D54C440239C5E74B0046
:1019D00001212E001C1B4942C3E70139BDE74B46DC
:1019E0000021E41A0131B8E710B50022FFF756FFD5
:1019F00010BDC046094A830094464022634410B596
:101A00001C68C0006240C02414408022520113436D
:101A10001C60034B9C466044416010BD04C0014003
:101A2000004001400A4B80009C460423604400298A
:101A300001D008210C23002A00D10B00026853407A
:101A40000C221A4080235B01184302607047C04695
:101A500004C00140074BC0009C4660440368090273
:101A60005940C0239B00194080235B01184301604B
:101A70007047C046044001400123D0228340120633
:101A800093629361094A8300944640226344196833
:101A9000C0004A40C0211140802252011343196006
:101AA000034B9C46052360444360704704C00140DB
:101AB0000040014001238340002904D0034A136001
:101AC000034A13607047034A1360FBE780E200E0BB
:101AD00000E100E080E100E001238340014A13605F
:101AE0007047C04600E200E0024B10309B68800067
:101AF000C058704700ED00E070B50D00EFF31086A0
:101B000072B60F4A1368002BFCD0BFF35F8F0D4BEA
:101B100010309B6884001B590B4A934203D09D42AE
:101B200001D000F0EBFD074B9B681D51BFF35F8FA9
:101B3000BFF35F8F0022024B1A6086F3108870BDDE
:101B4000240100D000ED00E0CD010010F0B5DE462C
:101B500057464E464546E0B50C0083B0EFF3108A79
:101B600072B65E4A1368002BFCD0BFF35F8F102261
:101B7000914681444A465A4B96009B689D59594B61
:101B800098469D4205D0A54216D0574FEB1B2F2BF0
:101B900014D9534B9B689D51BFF35F8FBFF35F8F89
:101BA00000224E4B1A608AF3108803B0F0BCBB468B
:101BB000B246A946A046F0BD1D00EAE701238340D6
:101BC0009B465A46494B1B681A4000925A46484B5E
:101BD0001A60BFF35F8FFEF746FB0190002803D029
:101BE000814501D000F08AFD0123290099438B68CB
:101BF000A34268D00A0007E043001B189B00FB18B3
:101C00009868A04211D01A00062010560028F3DA76
:101C1000009B002B05D05A46364B1A60334B1A6096
:101C2000B7E75A46324B1A60B3E706201856002829
:101C300021DB4200111889007C188846A168996050
:101C4000E179D97106216156997100292BDBA488AD
:101C5000F91A6405241544440919E0240905490DBD
:101C60002402214399801218234B9200BF181A783E
:101C70001870BA71CCE70198002817D1FF30907125
:101C80001E4890801C4AC91B1078891098718B00DF
:101C90005B1818011B1818021B1818041B185B008E
:101CA0005B181370B4E7BD210902DBE7144A15493C
:101CB000D21A083A5002400D014399801249520845
:101CC0000A43DA80A4E7062008560B000028B0DAA1
:101CD000019A002AEAD14546D4E7C046240100D043
:101CE00000ED00E0CD010010C026002000E100E082
:101CF00080E100E080E200E046E3032000BDFFFF5A
:101D0000FA26002000F0FFFF00F8FFFF032310B5C4
:101D10000400074A18409446C0009C43FC338340AB
:101D20006444226881409A4313000B43236010BD32
:101D300000E400E070B5012504000543FEF793FAC6
:101D4000EFF3108C72B6244A1368002BFCD0BFF35B
:101D50005F8F224E8000A11B89108A005218130148
:101D6000D2181302D2181304D3181D4A5B005B1853
:101D700091680958A9421CD00622B2569A421CD03A
:101D80001222B256934222D01E22B256934220D043
:101D90002A22B25603219A4210D0124A11781370A7
:101DA000A171BFF35F8F00220B4B1A608CF3108878
:101DB00070BD92680C491150EFE700214A0052189B
:101DC000FF219200B218917108499180E5E7012145
:101DD000F4E70221F2E7C046240100D0C02600202B
:101DE00000ED00E046E30320CD01001000BDFFFF41
:101DF000F0B500220324FF27802620003D00094B78
:101E000011009C461040C0008540A14361440B680E
:101E10000132AB43350085402B430B60202AECD1C7
:101E2000F0BDC04600E400E0024B9C4661448900DE
:101E3000016070474000003403BDC04610B5040087
:101E4000FFF7D6FFA04710BD30B5224A224B87B01E
:101E50009A4201D2012252421300204900245050DC
:101E6000043152501E4A1F49002099501E4A002139
:101E70009268009001910392184A012194466344AC
:101E800004931A4B00250593D02302911B060230C0
:101E9000002C14D01A6D1042FCD05C6540BF1A6D46
:101EA000114203D120BF1A6D1142FBD09A6DA2429C
:101EB0000AD000256C46AA00A458E9E79A6D1A6D6D
:101EC0001142FBD140BFE5E70135052DF2D907B03E
:101ED00030BDC0460008042000000420F4070000C4
:101EE000FC0700003D1E001000ED00E0391E001050
:101EF00010B5040000F010FF01002000FFF794FF70
:101F0000FF232371BFF35F8F10BDC04670B505007E
:101F100014001600002915D00C00002A12D0806889
:101F20006B689847296800280ED073009B196200DF
:101F3000033B1219CB18033A9C7088188A5C002A5C
:101F400015D10670200070BD63001B197200033BA1
:101F50009219CB18033A9E7088188A5C002A02D125
:101F600004703400EEE75A7004703400EAE75A70E7
:101F70000670E7E7F0B5C64605000F0000B5102172
:101F80000120160000F0ACF9EBB20400037303214A
:101F900047602800984600F0A3F9002363730133DB
:101FA000A3734346FF21E373FE232060A66029400C
:101FB0002B4206D0421CFD3B0133137003328B428F
:101FC000FAD34B00591800234018033843702000FF
:101FD00080BCB846F0BDC046F8B5CE4647460600C0
:101FE0000C0080B5002907D04D0003686D18033D33
:101FF0005A195778002F04D12000C0BCB946B0460A
:10200000F8BD7900C919033988464344597889468F
:1020100000215970517073683A0021008068984718
:102020003368002814D042469A18947059195B5DA1
:10203000002B00D053700F70270049463000FFF787
:10204000CBFF390002003000FFF760FF0400D3E748
:10205000424641465D19AF709A185B5C002B00D078
:102060006B701470E9E7C046F0B557464546DE464A
:102070004E46E0B50D006B0001685B19DF1E0400E1
:10208000C85D83B00192CA1900284CD043001B18C8
:10209000033BCB185E78B446002E16D1019E002E6D
:1020A0003ED1E67B002E04D073009B19CB18033B76
:1020B0005D70E57300282FD10023537003B0F0BC8E
:1020C000BB46B246A946A046F0BD72006244033A40
:1020D00089184A78904600224A7091465A70010049
:1020E00032002000FFF712FF43468246002B07D044
:1020F0005B0021684344033BCB185A78002A16D171
:10210000424651462000FFF701FF2168019BCA1992
:10211000002BC6D00028CFD043001B18033BCB18A0
:1021200000219970C8E7019B002BC5D1B9E7500089
:102130008018033809184878834648464870587014
:1021400041462000FFF7E2FE594680462000FFF797
:1021500043FF414602002000FFF7D8FE8046CFE74C
:10216000F0B557464546DE464E46E0B583B0019190
:10217000457B04006B0000685B19DF1EC15DC2195E
:1021800000294ED04B005B18033BC3185E78B44661
:10219000002E18D1019E002E40D1E67B002E04D0E7
:1021A00073009B19C318033B5D70E573002931D19F
:1021B000002328005370617303B0F0BCBB46B246E5
:1021C000A946A046F0BD72006244033A80184278E6
:1021D00090460022427091465A7020003200FFF76C
:1021E00095FE43468246002B07D05B00216843449E
:1021F000033BCB185A78002A17D14246514620009B
:10220000FFF784FE019B01002068C219002BC4D097
:102210000029CDD04B005B18033BC31800209870F9
:10222000C6E7019B002BC3D1B7E7500080180338E5
:10223000091848788346484648705870414620003F
:10224000FFF764FE594680462000FFF7C5FE414671
:1022500002002000FFF75AFE8046CEE770B504006A
:1022600000292CD0437B8B422ED0056848004018B3
:10227000033828188278002A21D053009B18033B8A
:10228000EA5CEE188A4202D11BE0002A08D0530013
:102290009B18033BEB185A788A42F6D142785A7061
:1022A00000230022837043702000FFF7DDFE617B76
:1022B00002002000FFF72AFE6073012000E00020EA
:1022C00070BD43783370EBE700221900FFF7CCFEB6
:1022D00060730120F4E7C04610B507F08FFB10BD16
:1022E00010B507F02BFB10BDF0B5D6464F4646465D
:1022F0008846C0B505240600FEF7B4FF43461F79A3
:102300001C57284B8146F01843425841264B9A46A9
:1023100083009C4653466246985801222023BA40C7
:10232000DB1B013A002C32DB9C422DDCA240150065
:10233000104229D1002F1AD043465A781978120238
:10234000114342469B78D2781B040B4312061A4372
:102350009046002241465300C95A4B0B00D109193F
:10236000131912339B00013299519742F2D8534608
:10237000624605439D504846FEF780FF2000E0BCC2
:10238000BA46B146A846F0BD084800F09FF9002BB8
:1023900002DAF9E7013BF7D315009D401C00054226
:1023A000F8D1C7E70000D0AF00DB032088A30010FE
:1023B00010B50400FEF756FF094B0021E3185A42FE
:1023C0005341084A9B00995000231A001232920090
:1023D00013510133202BF8D1FEF750FF10BDC0463A
:1023E0000000D0AF00DB0320F0B54E464546DE4688
:1023F00057468A464900E0B50D0080465544ED0039
:1024000045448946290009AC2678DC31741EA64172
:1024100008687442844614481F26834626405E445A
:10242000052B0CD9A0201F274005D83554010443A3
:102430000532053B0C603A402E60052BF6D8494624
:102440005144C900414452019B0613430A0008004D
:10245000DC3213606346D83006601360F0BCBB46C4
:10246000B246A946A046F0BD80E00000F0B50125C7
:102470008D400468AC434D0004606C18E4000419FE
:102480002600C836002B2AD01F68DC3437605F680E
:1024900077609F68DB68B76023606D18EB001D00F4
:1024A0008024D035451964012C4380252D062560F4
:1024B0002560114C0D1D8C40846001242700AF4025
:1024C0003D0008318C401F2106680A4035430560F5
:1024D00005682C430460C018D8300260F0BD802726
:1024E0007F023760F8277F027760C027DC343F0324
:1024F000B7602360D1E7C04601010101024B1868B3
:102500008007C00F7047C04600C00640F0B5C64601
:1025100000B51E0006AB1F7801235B424360002319
:102520000400836001600C209046FDF723FF410109
:10253000091A8D01691AC900091889014046FDF779
:1025400019FFC021231D890119432123A0600B60BD
:102550002268002AFCDA08233F0336043E43E66083
:102560000B6080BCB846F0BD10B5002800D110BD8E
:1025700000F096F9FBE7C04610B5094A030014685D
:1025800084B0002C08D0012200910648524203A9D1
:10259000A047012004B010BD00F090F90020F9E739
:1025A00000E3032069250010F8B52B4A2B4B2C497A
:1025B0001A602C4A2C4B1A6014008B689C43FBD188
:1025C0002A4D2B4EB54208D2013E761BB60808CDE7
:1025D000984723000134B342F9D1FEF74BFF254A57
:1025E000214B1A601E4A9368DB43DB01DC09002B98
:1025F000F9D14022204B214D214F9A675A671A6723
:10260000DA66BD420BD20026013F7F1BFF0828007F
:10261000FFF76EFC083533000136BB42F7D1194E87
:10262000194DC022A9683000FEF7CAFDAE6000F067
:1026300065FBFFF7DDFB00F0ABFD144D144EB5421A
:1026400008D2013E761BB60808CD98472300013416
:102650009E42F9D1F8BDC046BFCDFFFF00E000406B
:1026600000C00040FE7F3C0000F00040F03300203E
:1026700000340020FFFFFF0100F00140E83300209C
:10268000F03300200000002000ED00E000340020C6
:1026900008340020094A03001068002805D00849C2
:1026A000C3188B4207D21360704706480449C31809
:1026B00010608B42F7D301204042F5E77CDC032019
:1026C0000000042048E3032000BEFDE70FB400B57E
:1026D000084883B000F0F2F8049B002B07D005A94E
:1026E00018000191FFF748FF034800F0E7F800BE2B
:1026F000FDE7C0469CA30010ACA3001010B5014834
:10270000FFF7E4FFB0A30010F0B546464F46D646AB
:102710008046C0B50E00171E3FDD4B1E9946214B6B
:102720000125002400209A460DE04B461B5D0D3B21
:102730005A425341325DDBB20A2A0BD02B000134DE
:1027400001359F421ADD002CEFD14346325D1B7CE0
:102750000A2AF3D1002BF1D1A04204DA4346211A10
:102760001B6830189847434650461B68022198471B
:10277000013428002B0001359F42E4DC874204DD50
:102780004346391A1B6830189847F619013E3378CA
:102790000D3B5A42534142461374E0BCBA46B1461F
:1027A000A846F0BDBCA30010F0B557464546DE462E
:1027B0004E46D023E0B51B061C68354B83B007009E
:1027C0000D00180001A990469A4607F081FD814648
:1027D000002807D1019B9C4204D0504607F090FD91
:1027E000012399466B1C03D1380007F0F5FB050067
:1027F000284B1C68002C2FD00A23274E9B4602E052
:10280000E468002C28D02268002AF9D03368002B15
:1028100001D0A342F4D1637C002B27D02A003900D9
:102820002000FFF771FF4346002BE9D06B465A4664
:102830001A71637C002B1DD0237C002B23D0012137
:10284000236801A898476B461B790D3B5A425341B8
:102850002374E468002CD6D14B46002B0FD103B073
:10286000F0BCBB46B246A946A046F0BD29003800E0
:102870009047D8E70121236801A89847C0E7504650
:1028800007F00EFDEBE70221044823689847DAE7DA
:10289000E833002070DC032078DC0320BCA30010A8
:1028A00010B582B06B4604000022D81D01210470CF
:1028B000FFF77AFF200002B010BDC04670B50400DB
:1028C00007F08AFB0122010005002000FFF76CFFE2
:1028D000084B1C68002C06D06368002B05D0984775
:1028E000E468002CF8D1280070BDE468002CF3D116
:1028F000F9E7C04670DC03200D4A1368002B13D0A3
:10290000834202D109E0984208D01A00DB68002B0C
:10291000F9D1002900D0D06070471A000029FBD1FE
:10292000DB68D360C160F7E70029F5D01060F3E7FA
:1029300070DC032010B500F025F910BDF0B5D646C7
:102940004F464646C0B582B0040000F059FE26004E
:1029500002000B000027B6185F41B94231D82ED0D3
:10296000B946254B254D9A4653461B6898461C1E72
:1029700003D13CE0E468002C14D02B68002B01D07C
:10298000A342F7D1A368002BF4D0012101A89847F6
:102990000028EFDD6B46187902B0E0BCBA46B146BC
:1029A000A846F0BD164B5B6A9945DDD8144A926A79
:1029B000B24201D299450BD001204042ECE7B0422F
:1029C000CED901235B42994601267642F717C8E724
:1029D0004346002BC8D10A4A536A9945FCD8916AEC
:1029E000B142E9D29945F7D001204042D4E7044BE7
:1029F0005B6A4B45DAD2EEE770DC032078DC03201B
:102A00000040054070B5184C82B006000D00200053
:102A100001A907F05DFC002808D1D0231B061B6824
:102A2000019A9A421CD0200007F06AFC002000F0B6
:102A3000EBFE002807D103256D42200007F030FC93
:102A4000280002B070BD002000F0F8FE0028F2D08F
:102A50002A003100002000F0FFFE051EEBD0ECE75D
:102A600003256D42ECE7C04624E30320F0B5DE46C3
:102A70004F464646C0B5334B82B081460D00180024
:102A800001A99B4607F024FC002808D1D0231B068F
:102A90001B68019A9A424FD0584607F031FC00203B
:102AA00000F0B2FE00283FD00024002D41DD264E6C
:102AB00011E04B460020191900F05AFF804601F042
:102AC000ABFB002000F002FF00F09AFD3060716067
:102AD0004444AC422DDA002000F066FF2F1B0200B8
:102AE000B84200DD3A00002AE3D101F095FB002056
:102AF00000F0ECFE002000F087FE002819D0002036
:102B000000F052FF0028E4D100F07AFD32687368CB
:102B10000F00002184460D4812184B419F4208D8EF
:102B2000D7D19445D5D904E000200021064B186088
:102B30005960584607F0B4FB02B0E0BCBB46B14652
:102B4000A846F0BD24E303201034002020A1070094
:102B50001F2010B5FEF7C0FFFA200021800010BD35
:102B600010B5074C0021200007F0B2FB002800D16F
:102B700010BD01F051FB200007F092FBF8E7C046C2
:102B800024E3032070B51E4B84B01B7802F042FD95
:102B90001F201C49FEF7B0FF01211F20FEF78AFF0E
:102BA0001948FFF7A5F900F02FFB060000F028FDFB
:102BB000FA2204000D000023920012196B41994281
:102BC00014D811D001210291002101910F49300048
:102BD000009100F01FFB0400631E9C41E4B200283A
:102BE00008D1200004B070BD9042EBD901225242BE
:102BF000D317E7E701210648FFF77EFEF1E7C0465D
:102C0000C0130410612B001024E30320512B00108B
:102C1000182700200048704760A400100048704743
:102C200014A4001030B5002806D1C1241148124B5D
:102C3000A4004380048030BD042819D80F4B8000C5
:102C4000C5580C480023811C04E001330A8002317E
:102C5000132B0AD0EA5CDCB2002AF6D1C02301347F
:102C6000E4B264009B001C43E4E7CA24A400E1E74B
:102C70000020E0E748DC03200904000074A40010F1
:102C8000F0B583B006000C001500FFF737FC0028F4
:102C900001D003B0F0BD164F01223B000121009787
:102CA0000530FEF76FFBEBB23200009301212300E9
:102CB0001048FFF72BFC210030006943FDF75AFB59
:102CC00004000D4B0022009302210420FEF75AFB62
:102CD00023000022012100940520FEF753FB3B0056
:102CE0000222002100970620FEF74CFBD1E7C046E8
:102CF000006CDC0200800240001BB7000021044B86
:102D0000044ABFF35F8F02C39342FAD17047C046B3
:102D1000000100D0800100D0044A1078431CDBB2CF
:102D2000172B00D9102313707047C0462C270020A2
:102D300000B5054B83B00100009318221F23034800
:102D4000FEF7D2FA03B000BD88A4001018DC0320FF
:102D500083680B4810B5844661446244090112013E
:102D60009A18591854684B6801209C4201D802D027
:102D70000020C0B210BD12680B689A42F9D8F7E77C
:102D8000FFFFFF0F40BF002000217047F8B5DE466F
:102D900057464E464546E0B51F000DAB1B78050073
:102DA0009B460C9B1600002B45D03F4A0C9B94463B
:102DB000DBB2AA689A460C9B2C68634494461B01BC
:102DC0000A9A63449A600B9A1E60DA600C9A5F60FC
:102DD00094460C9B00225B006344033B98462368A7
:102DE00043449A705A701A70637B9946002B42D004
:102DF00052461900A06863689847226800282BD0C3
:102E00004B465B004B44033BD1188C464146484639
:102E100051188870D35C002B42D153466246137020
:102E20004B4663730C9B994527D0F0BCBB46B2461A
:102E3000A946A046F8BD0268947B002CF5D0116825
:102E400063008C461B196344033B5B789373002B30
:102E500000D1D3730C94A8E74346D1184B46504693
:102E60005B004B44033BD31898704046125C002A29
:102E700018D14B460B705346637332003B00287DDC
:102E800000F01EFC041E06D05B46002B03D1514609
:102E90002868FFF7E3F90E9B002BC6D01C70C4E72F
:102EA0004B70BAE75A70E4E7FFFFFF0FF0B5DE465C
:102EB0004E46574645460023E0B58DB00A936B4B0E
:102EC0008200D3580B90994600239B464B460793AC
:102ED00000F096FB079C06000F006268EFF3108578
:102EE00072B61368002BFCD022000794BFF35F8FEB
:102EF0002468637B9946002B67D092685C4B9046B0
:102F00004B441B01984443461A685B681000190043
:102F1000801BB94100295FDD0B9800F0D1FB002335
:102F20000026984600279A46079C6368BFF35F8F88
:102F30005A461A6085F310885346002B08D10028A2
:102F4000C6D10DB0F0BCBB46B246A946A046F0BD06
:102F50000A9B414618024B461843D04708900991F6
:102F60006268EFF3108572B61368002BFCD00794EB
:102F7000BFF35F8F0899099A002A48DB114303D0F9
:102F8000079B1B69002B5DD1079B1B68D97B002920
:102F900007D04A00521819688C4649466244033AE1
:102FA00051704A46DA734B46079A013BD168CA5CB6
:102FB0000132CA545B46079A13615368BFF35F8FAF
:102FC0005A461A6085F3108882E700230026984647
:102FD00000279A460020A7E7002901D100289BD1AD
:102FE00001212000FFF7BCF843461E685F689B681C
:102FF000079A9A464346DB689846D3684B44013BA0
:103000001B780A931B020343136100208CE723699A
:10301000002BB9D033003C005B1A94411A00230006
:10302000A74219D89F421BD0594604910121039110
:103030004946029141460191514607980091FFF798
:10304000A5FEB7E700F0DCFA089A099B06000F001E
:1030500092197B419942E5D901225242D317E3E705
:103060009642E1D901225242D317DDE708E303205B
:10307000FFFFFF0FF8B557464E46DE4645469146E0
:10308000E0B504009A464268EFF3108872B6136800
:10309000002BFCD0BFF35F8F2668B57B002D48D096
:1030A0006F0033687F19033FD9194B78B373002B36
:1030B00000D1F373A268344B94464A46EB181B01C7
:1030C00063441A6052465A60304A9A600022DA60BD
:1030D0008A704A700A70737B9B46002B43D02A008B
:1030E0001900B06873689847326800282FD05B4693
:1030F00058465B005B44D719033BB870D118D35CCA
:10310000002B3FD15B460D7073735D452CD00026BC
:10311000E3685B19013B19786368BFF35F8F002296
:103120001A6088F310880020002E0AD10802284374
:1031300007E06368BFF35F8F1D6088F3108801208C
:103140004042F0BCBB46B246A946A046F8BD5B462D
:103150005B005B44033BD3189D70D119D25D002AFC
:103160000ED15B460B7075734A465346207D00F0C6
:10317000A7FA061ECBD029002068FFF76FF8C7E733
:103180005A70EEE77B70BDE7FFFFFF0F852D001043
:1031900070B5184C2368002B00D070BD032000F0E0
:1031A00023FA032000F0EEFA1349032000F042FA5C
:1031B0001820FFF791F80500FFF7AEFD0F4B2A002E
:1031C0009C46604480000E4968601020FEF7D2FEE5
:1031D000102128601020FFF783F80121A86010203B
:1031E000FFF77EF803232B75064BE860DD60256052
:1031F000D3E7C04644DC0320AD2E0010400000346D
:10320000512D001008E30320014B18687047C04699
:1032100044DC0320F0B5DE464E4645465746E0B551
:1032200085B0019310AB1B780600039300239B46E7
:10323000984600927268EFF3108A72B61368002BFA
:10324000FCD0BFF35F8F3568AC7B002C00D180E0F1
:1032500067002B683F19033FDB195A78AA73002ACD
:1032600000D1EA73B168554A8C4600980199A218BA
:1032700012016244106051600E9991600F99D16003
:1032800042469A705A701A706B7B9946002B00D197
:103290007DE022001900A8686B6898472A6800281A
:1032A00069D04B4648465B004B44D719033BB87086
:1032B000D118D35C002B00D07CE04B460C706B73B4
:1032C0004C4565D0F3681B19013B18787368BFF350
:1032D0005F8F42461A608AF310885B46002B08D144
:1032E0000002204305B0F0BCBB46B246A946A0464A
:1032F000F0BD039B002B5FD00E9B00200F999847D9
:10330000030004000D000B4356D000290DDA00988D
:10331000019902000B00121BAB41994213D821D036
:1033200000920193039B9B4684E700F069F9020039
:103330000B00A4185D4100940195A94203D8F1D176
:1033400000998A42EED901235B42DC170093019475
:10335000E8E77368BFF35F8F1C608AF31088012071
:103360004042BFE700999142DAD901235B42DC1762
:1033700000930194D6E74B465B004B44033BD318C4
:103380009C70D119D25D002A10D14B460B706C7322
:10339000307D009A019B00F093F98346002800D10C
:1033A00090E721003068FEF759FF8BE75A704B46D3
:1033B0000B70ECE77B7080E7002093E7FFFFFF0FC7
:1033C00070B542680400EFF3108572B61368002BE5
:1033D000FCD0BFF35F8F2068CEB2437BB3420AD0EC
:1033E000FF230B405A00D318026894466344033B02
:1033F0009B78002B13D0E268FF2394460B40634474
:10340000013B0A0A1978D2B291420ED000206368BB
:10341000BFF35F8F00221A6085F3108870BD2269A8
:103420008A42F3D100202361F1E73100FEF716FF55
:10343000EDE7C046F8B5040000F0E2F8FA22060015
:103440000F002000002300219200FDF7BFFE80192D
:10345000794104000D008F421AD817D00626764213
:10346000F71736196F41AF4237D90026002700F011
:10347000C7F832003B00121A8B41002B16DC002BE0
:1034800028D02900200000F0C5F8F8BD8642E5D913
:1034900007267642F71700F0B3F832003B00121A05
:1034A0008B4101246442E517002BE8DD0D4B32000F
:1034B00018683B00FFF7DEFD0028E2DB39000A4A0E
:1034C000536A994204D8906A8642DAD99942D8D18F
:1034D00020BFF5E7002AD4D0E8E7AF42C7D1A64223
:1034E000C3D8C4E744DC03200040054070B50E4D4E
:1034F00002000B00060028680C00FFF7BBFD011E50
:1035000003DD20BF2868FFF75BFF084B0020596AE6
:103510008C4203D89B6A0130B34200D370BD641A59
:10352000631E9C41E0B2F9E744DC03200040054003
:10353000F0B5D6464F464646C0B5EFF305833F2269
:10354000134018001038EFF3108C72B6204D2A6823
:10355000002AFCD0BFF35F8F0122110081401D4C77
:10356000884661631C4917000E788A463100C140C5
:103570000F400A4209D1BFF35F8F2F608CF3108890
:10358000E0BCBA46B146A846F0BD14498200646A60
:1035900051588C420FD3124BD25843469E43534648
:1035A0001E70BFF35F8F00232B608CF31088002AFE
:1035B000E6D09047E4E70B4A9B00904643441A68E4
:1035C0001A60BFF35F8F00232B608CF31088D7E75E
:1035D000280100D00040054047E303202CE30320EE
:1035E00008DB0320D03F054010B50100024A034824
:1035F000FDF74EFE10BDC046A4A4001045E3032015
:10360000034B596A0A00986A596A8A42FAD170478C
:1036100000400540064A536A9942FCD807D1044B42
:1036200002E05A6A914202D19A6A8242F9D3704703
:103630000040054070B504000D00EFF3108672B62F
:103640001A4A1368002BFCD0BFF35F8F002D1BD0EC
:103650002000FEF749FA164981420AD02000FEF701
:103660004BFA01212000FEF725FA0123A340114A5D
:103670001360114BA400E550BFF35F8F00220B4B8A
:103680001A6086F3108870BD0B4BA200D550012242
:10369000A2400A4920000B7893430B700449FEF7BF
:1036A00055FA00212000FEF705FAE5E7280100D0D1
:1036B000313500103860054008DB032047E3032064
:1036C000F0B5CE46474680B52A4C616A0D00A66A21
:1036D000616AA942FAD18B4207D804D00120C0BC4C
:1036E000B946B046F0BDB242F8D9EFF3108972B6D0
:1036F000214C21680029FCD0BFF35F8F0125854054
:103700001C4C1E4F6563E9B2884639788C464146A9
:10371000664631433970011D89000A5118498000FD
:103720004350216A002029420BD0616A0800A66A32
:10373000616A8142FAD18B4202D80AD1B24208D9D9
:103740000020BFF35F8F00220B4B1A6089F31088B3
:10375000C5E7084B42461D625D6363469343012003
:103760003B70BFF35F8F0022034B1A6089F3108810
:10377000B5E7C04600400540280100D047E30320DC
:103780002CE30320EFF3108C72B60A490B68002B70
:10379000FCD0BFF35F8F01238340074A07481362C1
:1037A00002789A430270BFF35F8F00230B608CF3A3
:1037B00010887047280100D00040054047E30320EF
:1037C00010B50248FEF718F810BDC04618E30320F4
:1037D0008023024A9B000343D36270470080054068
:1037E000AA23064A1B0113602F230549D360054B0A
:1037F00019605368002BFCDA7047C0460040024055
:1038000000B0FA000060024010B5040000F09CFC1B
:10381000002801D1002010BD00F09EFC0028F9D145
:1038200060000419230104481C1B24010419012011
:1038300023791840EFE7C046D4D6032043001B1875
:1038400010B51801C01A0001024B1030C01800F06A
:10385000B9FA10BDD4D60320F0B5440020180401F5
:10386000241A24012600C646174F1036F61900B553
:10387000300092B200F014FB0500300000F0AEFA08
:103880003F2803D8280080BCB846F0BD3B19002073
:10389000D978984601F0C6F90028F3D0300000F03E
:1038A0009DFA3F280AD994239B00E2184346D21977
:1038B000D9780020402301F00DFAE3E743460020C9
:1038C000D97801F0E1F9DDE7D4D60320F8B5474611
:1038D000CE4680B547003B181C01E41A2401234B57
:1038E00026009846283646440500300000F06AFA63
:1038F000002804D10020C0BCB946B046F8BDA1469E
:10390000C1444B460020997801F08CF90028F1D091
:10391000A4239B009C466444444430004022210080
:1039200000F0BEFA061E16D000F00EFC002812D0E1
:1039300000F012FC00280ED14B461B79DB070AD59C
:103940004B46220099780020330001F0C3F900288B
:10395000D0D03000CFE77D192B015D1B2D014544F0
:10396000A978002001F090F9C4E7C046D4D603201E
:1039700043001B1870B51C01E41A2401094B2834BC
:10398000E418050092B2200000F04AFB0600200077
:1039900000F018FA3F2801D8300070BD2800FFF76A
:1039A00095FFF9E7D4D6032043001B1810B5180182
:1039B000C01A0001024B2830C01800F00FFA10BDE9
:1039C000D4D60320B42270B51A4C82B00021200056
:1039D0009200FDF7EFFBFF236371174B8025E38017
:1039E000012300262100200023816D00073323736B
:1039F0002A0040310096073B103000F0A7F9210063
:103A0000200041312A00FF3101230096283000F0C8
:103A10009DF990239B00E5182800FEF769FA922390
:103A20009B006562E5182800FEF762FAE56302B0C4
:103A300070BDC046D4D6032000C2FFFF10B5074CAE
:103A4000052200212000FDF7B5FB2000103000F01A
:103A500065FB2000283000F061FB10BDD4D60320A8
:103A6000F0B54B79060083B0022B02D18B79022B83
:103A700003D00025280003B0F0BDCB79062BF8D881
:103A80002F4FBB78002BF4D18B7809253B700C7835
:103A90000C196378242B0BD1082A02D80FE0AA4214
:103AA0000DD32378E418ED186378ADB2242BF6D04B
:103AB000052B20D0042B02D163790A2B2ED0214C68
:103AC000200000F08BF93F28D4D92600103E0020BA
:103AD000F17801F0A7F80028CCD0200000F07EF9A2
:103AE0003F2816D990239B00E218F178402300204C
:103AF00001F0F0F8BEE72100300001F08FF8002857
:103B0000B7D0A3787B702378ED18E4186378ADB252
:103B1000D0E7F178002001F0B7F8ABE70A4B27783F
:103B2000019301330093022202233000E11901F0D6
:103B300041F800289DD00E35ED19ADB2BFE7C04663
:103B4000D4D60320E4D60320D6D6032060230A78F7
:103B500070B513400024202B0BD10B4A4B790D7903
:103B600010781B022B43984203D14B780134202B51
:103B700001D0200070BD054B002BFAD00020911D14
:103B800000E000BFF5E7C046D4D6032000000000E7
:103B900060230A7870B513400024202B11D1144AF9
:103BA0004B790E7915781B0233439D4209D14B782E
:103BB000212B08D81F2B04D90723063201F0C6F8A1
:103BC0000124200070BD222BFBD1CD788B782D02F3
:103BD0001D43157101F0A2F8064B0124002BF0D013
:103BE00029006A0800202240214000E000BFE8E7E9
:103BF000D4D6032000000000F0B546464F46D64616
:103C0000C0B54D4E9946F37880460D008B4257D192
:103C10004B46002B00D188E0484B002B00D175E0CB
:103C200094239B00F418A2463700CA4410372100A1
:103C3000380000F0B3F97379FF2B02D02178994254
:103C400043D001345445F2D13D4B002B04D0380011
:103C500000F0B8F800286BD1380000F0BFF83F281A
:103C600037D8103FBB789D4206D001242000E0BC2D
:103C7000BA46B146A846F0BD324B002B02D0002018
:103C800000E000BF0020FFF721FE0028EDD12E4DFF
:103C9000280000F097F80028E7D14B46002BE4D02D
:103CA0009B06E2D1283D4046A97800F0BBFF041EE8
:103CB000DBD0002300224046A97801F00BF8D5E7BD
:103CC000B3788B42D8D00024D0E7002000E000BFBA
:103CD000B7E73C00103C0020E17800F0A3FF00288B
:103CE00012D0380000F07AF83F2809D990239B00C1
:103CF000FA1800204023E17800F0ECFFA378B2E747
:103D00000020E17800F0C0FFA378ACE794239B008B
:103D1000F418A24610363700CA4421003800013496
:103D200000F03CF95445F8D18EE7103637008BE7A8
:103D3000002000E000BF8FE7D4D603200000000081
:103D40000000000000000000FCD60320F0B5C646CD
:103D500000B5140006AA1E001378802205000F008B
:103D60009846120294422BD8406900281AD00121AB
:103D7000494206F0B5FA4346AC806400A4B22B7207
:103D8000631EAB81002368696442EB812F60EE8083
:103D90006C812B82002811D006F082FA012080BCB1
:103DA000B846F0BDAC806400A4B22B72631E6442BE
:103DB000E8812960EE80AB816C8128820120EEE7EA
:103DC0000020ECE710B5C489018A0200601A80B2B5
:103DD0008C4202D25389C01A80B210BD10B5C4897A
:103DE000018A8388621A92B28C4202D24089121AE6
:103DF00092B2981A80B210BDF8B5040040690E0066
:103E0000002803D00121494206F06AFAE189228A9A
:103E10008FB28D1A93B2ADB2914202D26289AD1ABD
:103E2000ADB2A288A189AA4205D2B81A88422BDC79
:103E300080B215002082002D2ED08B4206D96189D8
:103E40005B189BB29A4203D89B1A9BB29A42FBD949
:103E5000E288216853433000C918FDF7B1F9012504
:103E600001200126A189228A93B212188A4210DD0C
:103E700062899B18ED18ADB260692582002801D0D7
:103E800006F00EFA3000F8BD60891018381A80B2BA
:103E9000CFE75D19ADB2EFE700200026E3E7C046AB
:103EA000F0B5C646040040698846170000B50028F2
:103EB00003D00121494206F013FAE089218A82B237
:103EC000461A8BB2B6B2884202D26189761AB6B26D
:103ED000A588A089B54207D2531B83422CDC9BB234
:103EE0002E002382238A9BB2002E2CD03A1CB7428C
:103EF00027D896B2834202D961895B189BB29D4252
:103F000003D85B1B9BB29D42FBD99A193700E1880D
:103F1000AA422CDC0A005943236872439C4640465F
:103F20006144FDF74DF9228AA08993B2D2198242E9
:103F30000FDC9B199BB210E06389EB18D31A9BB27C
:103F4000CEE7321CD5E70027228A93B2D2198242EB
:103F5000EFDD62899B18F3189BB260692382002809
:103F600001D006F09DF9300080BCB846F0BDED1AD6
:103F7000ADB22A004A435943236840469C466144F7
:103F8000FDF71EF9E388721B180068435A43216845
:103F90004044FDF715F9A089D6E7C046F8B50400FE
:103FA00040690E00002803D00121494206F098F92B
:103FB000E289218A95B2531A9BB2914202D9628951
:103FC0009B1A9BB2A2889A4226D0A1892B00A942B3
:103FD00006D26389EB189BB29A4203D89B1A9BB214
:103FE0009A42FBD9E28821685343C8183100FDF793
:103FF000E7F8A389AB420AD90135ADB26069012760
:10400000E581002801D006F04BF93800F8BD63893E
:10401000ED180135ADB2F1E7277A002FD5D1F4E7DD
:10402000F8B54746CE46040080B515000F00002ABB
:1040300052D04069002803D00121494206F050F9CE
:10404000E689237A208AA188B6B280B2002B38D1C3
:10405000331A9BB2864202D262899B1A9BB2CB1A58
:104060001A1C9BB2AB4252D893B298461D00E2880C
:10407000A0893300864205DD6389F3189BB201E015
:104080005B1A9BB28B42FBD2581988422ADC5343FD
:1040900021686A43C8183900FDF792F8A389751999
:1040A0009D421CDD6389F6184644B6B26069E6811C
:1040B000002801D006F0F4F84046C0BCB946B0462E
:1040C000F8BDA846E288A942D2D26D1A5543884667
:1040D0007F19E0810D00CBE700239846ECE74644CA
:1040E000B6B2E3E7C91A89B2894653432168C818B2
:1040F0004B4639005A43FDF763F84B46E188EA1A0C
:104100004A43594320687918FDF75AF8C6E72A1C34
:1041100093B298461D00E288AAE7C04610B5040095
:10412000406900280DD00121494206F0D9F800234A
:104130006069E3812382002801D006F0B1F80120F4
:1041400010BDE0812082FAE7024B5878431E984167
:10415000C0B2704700DA0320024B18784007C00F46
:104160007047C04600DA0320F8B537220021214805
:10417000FDF720F8204C2000FDF7BAFE1F4B1C6015
:104180001F4C20001830FDF7EBFA2000FFF7C6FFA8
:104190001C4B1D4E1D4D1C60002E04D0280000E05D
:1041A00000BF1B4B186000242B78002E19D0194E2D
:1041B000174F9C420FD319D13300984701342B7805
:1041C000E4B2A342F5D2002000F072FF002000F01C
:1041D00049FF0120F8BDE3003A681B1B9B009B5878
:1041E000EBE7FFF7EFFB2B78002BECD000231B68ED
:1041F000FFDEC04600DA0320B8D9032038DA0320F6
:10420000302700203CDA03200000000041E30320B7
:10421000D0D60320C5390010F0B5DE4657464E46CD
:104220004546E0B58BB001F005FA002800D123E146
:10423000B34B07AF9A46B34B9B4653461D68AA69DA
:10424000EFF3108172B61368002BFCD0BFF35F8FC1
:10425000E96128003900FFF7CFFDAA690400EB6986
:10426000BFF35F8F0021116083F31088002800D115
:1042700002E17B78082BE0D85A469B00D3589F4632
:104280007B68002BD9D0B8689847D6E77F22397968
:104290009D4B0A405400C8091B191B181800012522
:1042A00020304479AC43447144790335AC434471C4
:1042B000002A00D1E7E0954ADB7C002A06D0944A28
:1042C0001278934200D26FE19B1ADBB2002B00D030
:1042D000D2E0904C7A793878BB68A047ADE78A4B3A
:1042E0000126984642461B780020334313703B78E2
:1042F000994600F093FD60233D792B40602B0DD053
:10430000402B00D1DBE0ED06ED0E012D00D156E192
:10431000022D00D112E1002D00D1E2E03878002119
:1043200000F0F0FF8021387800F0ECFF85E77A4B51
:10433000002B82D000E000BF7FE7784B002B00D13C
:104340007BE7714B18780007C00F00E000BF74E7EF
:104350006F4D6E4A00242B78002A00D199E0704EF0
:10436000A34209D8A34200D096E00134E4B29C42B3
:1043700000D962E7A342F5D93168E2008C46121BEE
:10438000920062449269002AEFD038789047013455
:104390002B78E4B29C42E3D94FE7372200215A48F8
:1043A0003E78FCF707FF1022FF215E48FCF702FF72
:1043B00055481222FF211330FCF7FCFE00F024FDCB
:1043C000534D524A00242B78002A00D170E0564AFF
:1043D0009046534A9146A34245D866D143463000A1
:1043E000984701342B78E4B2A342F4D24F4B002B10
:1043F00000D122E700E000BF1FE7434B3722984679
:10440000002118003E78FCF7D5FE43461022D81C48
:10441000FF21FCF7CFFE40461222FF211330FCF7AC
:10442000C9FE00F0F1FC3A4D384A00242B78002AEE
:1044300035D03B4A91469C420CD336D13A4B3000A2
:10444000984701342B78E4B2A342F4D242463B7938
:104450009370F2E64A461268E30094461B1B9B00E9
:1044600063445B68EBE74A461268E30094461B1B13
:104470009B0063445B68B2E70BB0F0BCBB46B2463E
:10448000A946A046F0BD7A793878BB6800F0DAFC1E
:10449000D3E6002B00D1D0E600239B69FFDE30007D
:1044A000FFF7CCFA2B78002BD0D000235B68FFDE1F
:1044B0003000FFF7C3FA2B78002B97D0F5E71C4BA1
:1044C000002B00D12AE71B48002801D000F0A6FCF1
:1044D000484608A900E000BF0400002C00D0ACE66C
:1044E0001CE7202B00D19BE0002B00D016E77B7946
:1044F000092B00D912E7104A9B00D3589F46C046AB
:104500003CDA0320C8A4001000DA032000000000F9
:1045100041E30320F93B0010000000000000000010
:10452000D0D6032003DA03203D3A0010000000003B
:104530000000000000000000ECA400107F22397A87
:104540000A400292082A00D9E8E6C8090190002B27
:1045500000D182E0002453000293019A029B94460A
:104560004344C94A6344DB7C002A06D0C74A127818
:10457000934200D200E19B1ADBB2002B00D0F2E0A4
:10458000C348C44D00F04AFC4846EB6808A9984768
:10459000002800D1E7E060223B791A4200D04CE6C7
:1045A000002000F03BFC48E6DA00D31ABA4A9B0030
:1045B0001268D318002B00D15EE75C698AE63B7A6B
:1045C0000F2B00D9AAE6B04A4344DB78002A05D075
:1045D000AE4A127893425ED39B1ADBB2002B00D016
:1045E0009CE6AB48AB4C00F019FC4846E36808A9D0
:1045F0009847002800D020E6602211003B7919403E
:104600001A4200D08AE67B790A2B00D086E606ABF8
:104610009A1C11700123484608A900F097FB0CE68C
:104620003B7A0F2B00D979E6974A4344DB78002A7E
:1046300006D0964A1278934200D2C7E09B1ADBB2AA
:10464000002B00D06AE69248924C00F0E7FBE3684A
:10465000484608A9984704003FE77B790393012B5C
:1046600000D19DE0032B00D190E0002B00D055E657
:104670005300019A029394464344634420335B7988
:1046800006AA9B07DB0F023213804846022308A9C3
:1046900000F05CFB61E7804ADC00E31A14689B00D1
:1046A000E418002C00D139E620699CE7FB88012B37
:1046B00000D033E6434608221B78934342464846DF
:1046C00008A9137000F02AFBB7E5434602201978C9
:1046D00006AB9A1C8B0689080140DB0F0B43138045
:1046E0004846022308A900F031FBA6E54346BA7903
:1046F00003925B78002B02D1002A00D084E043466D
:10470000039A484608A95A7000F008FB95E543460D
:1047100006AA5B78023213704846012308A900F00C
:1047200015FB8AE5FB88B8791B0A0F2B00D9F5E544
:104730005A4A9B00D3589F4608A800F075FB48468C
:10474000B97900F095FC434602221B781343424698
:10475000137072E5FB88012B00D0DFE54346082289
:104760001B781343AAE760223B791A4200D0B4E6D3
:10477000002000F053FBB0E6474ADD00EB1A156855
:104780009B00ED18002DEED02869FBE6FB88002B7E
:1047900027D053000293484608A900F0BFFADCE690
:1047A000FB88002BF5D1484600F0D4FD019A029B0E
:1047B00094465B0002934344634420335A7903993F
:1047C000AA435A715A798A435A71E4E7324ADC00A3
:1047D000E31A14689B00E418002C00D19EE52069C0
:1047E00033E7484600F08EFD019A02219446029B71
:1047F0005B0002934344634420335A790A435A715D
:104800005A7916435E71C6E7501EC0B2FEF706FA2B
:10481000002800D182E54378022B00D07EE50121FB
:10482000C2790500931152110B400A4012015B013D
:104830001343424612782F318A4313434246137082
:10484000C37882781B021343C31809350493049B71
:10485000AB4200D8CFE000236A7802930B2A04D140
:104860002B780295EB181D005A78042A00D055E5E4
:10487000049B054A5B1B9BB20193044B00241B78ED
:10488000002A1DD129E0C0460000000041E30320BA
:104890004D3B001054A50010D0D6032014A50010E5
:1048A0009C4226D1574B29004846019A9847002838
:1048B00022D1554B01341B78E4B2A34200D22DE53E
:1048C0009C42EDD2514B1B680593059AE300944638
:1048D0001B1B9B0063449B68E5E729004846019A3F
:1048E000FFF7BEF8061E08D1474B1B78002B00D1FE
:1048F00014E500239B68FFDE0600082E00D80DE5B6
:10490000019BB34200D209E54346AA789B18D978A7
:10491000FF2900D002E5DC70029B002B14D01800A8
:104920009B78934200D0F9E401796A79914200D0F2
:10493000F4E4C278012A07D90433013A4344180049
:104940002100D2B2FCF736FC7F212A0000238C46DE
:104950005178052907D161469078014049004144CA
:104960001331C0090C5411785B189BB25218B34232
:10497000EED3254BAD191B78A34200D367E7CDE4F6
:10498000234B002B00D1C9E400E000BF040006ABBC
:104990009D1C0222A11C2800FCF712FC22004846A4
:1049A0002B8808A900F0D2F9002800D045E4B5E42E
:1049B000184B002B00D1B1E400E000BF021E00D173
:1049C000ACE44846137808A900F0C0F9ECE739894F
:1049D000FEF728F9021EF4D1A0E4FEF71FF9041E29
:1049E000D5D19BE4FEF716F91223020008A9484628
:1049F00000F0ACF9D8E7084B002B00D17FE600E0CF
:104A000000BF7CE6613A001041E30320D0D60320CA
:104A100000000000000000000000000030B585B07C
:104A200005000C000C22002101A8FCF7C3FB6B461B
:104A30001D715C71042C4BD005D8022C30D0032C96
:104A400015D105B030BD052C11D12A4B1A78D207EB
:104A5000F7D504211A788A431A70274B1C68A2697B
:104A6000EFF3108172B61368002B09D1FBE7224BDC
:104A70001C68A269EFF3108172B61368002BFCD09A
:104A8000BFF35F8FE161200001A9FFF787FAA269F8
:104A9000E369BFF35F8F0021116083F31088D0E7D3
:104AA0000121144B1A788A431A701A780331A243F1
:104AB0001A7000225A701A788A431A700E4B1C68BA
:104AC000A269EFF3108172B61368002BD8D1FBE70F
:104AD000084B1A78D207B4D504211A780A431A7001
:104AE000054B1C68A269EFF3108172B61368002BA6
:104AF000C6D1FBE700DA03203CDA0320002330B5FF
:104B000085B001AD6B8028700633082202A86B7057
:104B1000FCF756FB0C4B1C68A269EFF3108372B6CE
:104B200011680029FCD0BFF35F8FE36129002000EA
:104B3000FFF734FAA269E369BFF35F8F00211160C8
:104B400083F3108805B030BD3CDA0320F0B5C646CB
:104B5000804600B584B001AC0F0016000021082289
:104B600020001D00FCF726FB4346237007236370DB
:104B70000F4B65711D682771A660AA69EFF310835A
:104B800072B611680029FCD0BFF35F8FEB61210082
:104B90002800FFF703FAAA69EB69BFF35F8F0021D2
:104BA000116083F3108804B080BCB846F0BDC046E5
:104BB0003CDA0320F8B54746D64680B59846089BB0
:104BC00006000C00171E9A4621D0002506E052462A
:104BD000137023780135E418BD4218DA6378052B89
:104BE00017D1E1788907890F414512D121003000A2
:104BF00000F0CCFA00280CD0A378DA09012AE6D11B
:104C0000099A013513702378E418BD42E6DB0120D0
:104C100000E00020C0BCBA46B046F8BD10B500F0B8
:104C2000B5FA10BD70B57F240C406300144CC9095F
:104C3000E418641820346379DB07DD0F002B18D1EA
:104C400063795B0701D5280070BD01210D4E4942F3
:104C5000306805F045FB6379DB07DD0F002B0AD1D7
:104C600063795B0708D404226379012513436371D8
:104C700002E00025E7E70025306805F011FBE2E7D8
:104C800000DA032038DA032070B50C0001210F4D43
:104C90004942286805F024FB7F2121404B000C4944
:104CA000E409C918091920314B790024DB0708D41D
:104CB0004B795B07DC0F002B03DA04224B7993431B
:104CC0004B71286805F0ECFA200070BD38DA03203B
:104CD00000DA032070B57F250F4C0D406D0064197C
:104CE0000600C8092418203465790020ED0700D596
:104CF00070BD0125607928436071300000F0ECFA46
:104D00000028F5D1012263799343637163790332FB
:104D100093436371ECE7C04600DA032070B50A4E96
:104D20000500300008220C00FCF74AFA00237F211E
:104D3000F3602278B36091425B412800D9010022E0
:104D4000002300F0C9FA70BDA4D90320F8B5CE46FF
:104D5000474691462A4E80B50822070030000D00D4
:104D60009846FCF72DFA4B46B3600023F381EC79AB
:104D7000A97924020C43231C444500D943469AB226
:104D80009046B381002C13D0002A1FD04B46002B35
:104D900034D0131C402A1FD89BB2984633787F2BFF
:104DA00020D80021174A4346380000F095FA09E060
:104DB0007F222B7838009A42644100230022E101CF
:104DC00000F08AFAC0BCB946B046F8BD33787F2BF4
:104DD00011D980210022E6E740239BB29846337820
:104DE0007F2BDED9074C424649462000FCF7E8F904
:104DF00080212200D7E700210022D4E70020E1E74C
:104E0000A4D90320C0D9032010B5142200210248E0
:104E1000FCF7D0F910BDC046A4D90320014B18619E
:104E20007047C046A4D9032010B5054C01000822E4
:104E30002000FCF7C5F90023A360E36010BDC04665
:104E4000A4D90320F8B5374D1C002B780600DA09E9
:104E5000C9098A420CD00027002C01D03800F8BDC7
:104E6000314B0137002BF9D0290000F073F9F5E739
:104E70007F2B06D8A868002838D022002B49FCF7E1
:104E80009FF9AB68EA8919191219EB8892B2EA8185
:104E9000A960934215D03F2C13D9AC89A01A071CE6
:104EA00080B240282ED82B78BFB27F2B2CD800217F
:104EB000A24234D01D4A3B00300000F00DFA07003A
:104EC000CCE72B69002B04D029003000984700283C
:104ED0000ED07F2200212B7830009A4249410023D6
:104EE0000022C90100F0F8F90700B7E70027B5E78D
:104EF0000021300000F006FA8021300000F002FAB4
:104F00000127ABE74027CEE7A24207D0074C3A0083
:104F10002000FCF755F980212200CCE780210022F7
:104F2000C9E7C046A4D9032055510010C0D90320B9
:104F30009823F0B54546DE4657464E46424AE0B510
:104F4000D358802498461D00102385B00393434610
:104F500064022540234214D00121392000223B4B1A
:104F600025001954597147315A541A7500200132DD
:104F70003749FFF7C3FD8022364B92021A65364B44
:104F800003934346DB060DD4802342465B011A425D
:104F900038D1454552D105B0F0BCBB46B246A94612
:104FA000A046F0BD284B9F6D9A46002F24D0294B78
:104FB000002501249B4603E064000135202D1BD011
:104FC0002742F9D05346DB6D5B46682601229C657B
:104FD0006B085E4334239146AA435343F6181B4B98
:104FE0009C466644300000F03DFA00281AD1A743E1
:104FF00001356400002FE1D1802342465B01039D0F
:105000001A42C6D00022154900200A700E491D43DD
:105010000A6001320121FFF701FD80220D4B1203CE
:105020001A65B6E74B46F2693179002000930023F8
:10503000FFF78CFD300000F0E9F9D8E74146084859
:105040006940FDF743FBC0460000115080DC03209F
:1050500000001050003011501000010043E3032005
:1050600070A5001010B501210520FCF723FD10BD2F
:10507000094B10B501221970392100230748425409
:1050800042714732835403750022002134300133CA
:1050900000F068FA10BDC04643E3032080DC032023
:1050A0008022024B5202DA647047C0460020115041
:1050B00070B5050000F082F905201C49FCF71CFDC5
:1050C000D0221B4C00212000D200FCF773F80022F4
:1050D000184B19491A70194B4020196035260123C5
:1050E0001749E3706371E062E1600A60A3554C36D2
:1050F000FF362687002620662430265411491248A0
:10510000A26021612370E28620640260E26334328F
:10511000A3540E4A6164136480239B05D3649023D7
:105120000B492800D150FFF7BBFF70BD314F001075
:1051300080DC032043E303208001105004E30320BC
:1051400084001050000110508000105000001150D9
:10515000101001000B785B0602D14B78052B09D0AB
:10516000012139200022064B5971195447311A7513
:105170005A547047034B1A78034B1A60F0E7C04645
:1051800080DC032043E3032000001150F8B54746BC
:10519000CE46072380B54879CC780A7903408F78CA
:1051A000A4071B021343A20F944614007F207AB277
:1051B0009146682134223840FE0941437243521817
:1051C0004946C9433C4DC90FAA18D17041424141DB
:1051D0001771567090705171012C5FD0402B61D8BF
:1051E00034226821724341435218AA1811006746BD
:1051F00030310F704946D36200293EDB2F4FC1008A
:10520000BC4600276144D1600F6000283ED02C4F7F
:10521000C100BC466144916068272A4A474311682F
:1052200090463422BC4672436244AA181161402B56
:1052300000D240233F22CB18134201D09343403386
:1052400042461360204B682259403423A4060C4385
:10525000A021734342439B18EB189B6809060C433B
:105260001C6034235E4334335843673B3618AB55D8
:105270000120C0BCB946B046F8BD144FC100BC46C1
:1052800000276144D1600F6000280FD13423002231
:105290007343EB189A600E4A1A61E2E78022D2004B
:1052A00093429DD319000B48FDF710FA064FC10039
:1052B000BC4661449160AFE780DC0320840010505D
:1052C0000400105004E30320000010508000105030
:1052D0000001105084A5001010B50C0034201100FE
:1052E0001A00E30958437F23234068245C43044B9E
:1052F0000019C018012300F035F9012010BDC04687
:1053000080DC032070B57F25342068230D40CC0954
:105310006B4360430C4EC01830188378002B05D1C6
:1053200043785A425341094A01339366802208491F
:10533000120100F075F8342101234C4334314D4300
:1053400064193419237570BD80DC032000201150CE
:10535000FFF7FFFF70B57F25342068230D40CC098F
:105360006B4360430C4EC01830188378002B05D176
:1053700043785A425341094A01339366002208494F
:1053800000F04EF8342100234C4334314D4364196E
:105390003419237570BDC04680DC032000301150E5
:1053A000FFF7FFFF034B8000C25810B50248FDF71E
:1053B0008DF9C04650270020ACA5001080220E4B6E
:1053C000520410B51A600D4B0D491A6010008B681D
:1053D0009843FBD10B4C9C2200212000FBF7EAFEF6
:1053E0008022002152010848FBF7E4FE092363678D
:1053F0000333A36710BDC04600E0004000F000404A
:1054000000C0004000001150000010500023002197
:105410003222838281548361C36103628362704755
:1054200010B5C368002901D01C682140002A11D0A2
:105430008024E400114322420CD01A6822420BD18E
:10544000074A0A401A60FFE7FFE7FFE7FFE7FFE7C9
:10545000FFE7C368196010BD81784078FFF7A2FFAD
:10546000FFFBFFFFF8B5467D0400002E00D167E08A
:10547000C368C0781D68AD05AD0D002843D1E36950
:10548000E918E161A269551A402D2ED86B189B1AB4
:105490005F427B412427DBB22562E3558A424CD32D
:1054A00049D0002823D08022D2002A4361790029E4
:1054B00002D0802080010243012041406171002B15
:1054C00002D08023DB011A43E1680B685B053CD402
:1054D000204B13400B60FFE7FFE7FFE7FFE7FFE725
:1054E000FFE70020E3681A60F8BD4025CEE7A36A15
:1054F0002A009C4620696144FBF762FE8422120266
:10550000E35D2A43D2E7E369A06A9C4621692A0049
:105510006044FBF755FEE369E078E918E161002893
:10552000B0D0236A9D42ADD20023012223622433EE
:10553000A161E254D8E73000D6E70748FDF7C6F886
:105540008178064A0648FDF7C1F8A1786078FFF730
:1055500029FFC046FFFBFFFFF8A5001050270020E1
:10556000CCA5001070B50400002B49D0437D002B62
:1055700003D000230375322023540023A261E3618A
:10558000151C402A31D80123ADB2521B637553421A
:105590005A41242625230020D2B22562A162A255B9
:1055A000E054E378002B22D08023DB002B43617989
:1055B000002902D080208001034301204140617115
:1055C000002A02D08022D2011343E1680A68520502
:1055D00019D40F4A1A400A60FFE7FFE7FFE7FFE729
:1055E000FFE7FFE7E268136070BD4025CBE72A00C4
:1055F0002069FBF7E5FD84231B02A25D2B43D6E760
:10560000FFF730FFF0E7A1786078FFF7CBFEC046E8
:10561000FFFBFFFF70B5064D2C78002C01D0200059
:1056200070BDFEF7A1FD0028F9D001232B70F6E72D
:1056300042E30320014B18787047C04642E3032041
:10564000F0B5C6460F0000B53C210500FAF766FE2E
:105650000301C31A9C006419194D0100280003F0CE
:1056600021FA3A232B54431C092C02DC3022EA5441
:10567000831C2100E81803F015FA2A78002A1BD0B1
:105680003C04A04639023C06A44639434746394308
:1056900067460C4E681C33780B4D0C4C3943EA546A
:1056A000DA00A218013011605160421E12780133F5
:1056B000DBB2002AF3D1337080BCB846F0BDC046DF
:1056C00058B401203CE3032064630220B463022049
:1056D000F0B54E464546DE465746E64AE0B5E64D4D
:1056E00000232A805322E54CE549E64E236063609F
:1056F000A360E36085B001310233EA54DA00A218F6
:105700000131166056604A1E127818000133DBB270
:10571000002AF2D1DC490B70082B4CD80821032752
:10572000C91AC9B2EE188F4201D301F061FA3E42A4
:1057300001D001F05DFA0921C91AD448CFB2D900CD
:105740006118306084460A604A608A60CA600A61F3
:105750004A618A61CA61B808012809D06046706050
:105760000A624A628A62CA620A634A638A63CA63D5
:105770000322390091435B18DBB28F4218D000211D
:105780002020DA00A218E854116051605A1CD2B2ED
:10579000092A0DD0A8540233D200A218DBB211603E
:1057A0005160092B04D0E854DB00E31819605960FC
:1057B0000923B54A1370B64BB6491868FBF761FB6D
:1057C000FBF7DAFB0100B44803F06CF9B24B1B782D
:1057D000002B01D101F06CFA0121AB4A4942167845
:1057E000AD4A0132AB55F300E3180132196059603C
:1057F000531E1B780136F6B2002BF3D12F23F00095
:105800000822FC21AB552018FBF7D4FCA34A731CDB
:1058100012685221DBB2002A01DB3032D1B2D8004B
:10582000E9540822FF212018FBF7C4FC964AB31C58
:10583000DBB213700F2B4DD80D220321921BD2B275
:10584000E818914201D301F0A3F9084201D001F018
:105850009FF90E22921BD6B2B20891468B494F4651
:1058600001608C460021DA00A2181160516091603D
:10587000D160116151619161D161012F01D101F0BC
:105880009AF8674647604F46116251629162D16251
:10589000116351639163D163022F01D101F08BF841
:1058A000674687604F46116451649164D164116505
:1058B00051659165D165032F01D101F07CF86346F4
:1058C000C360116651669166D16611675167916731
:1058D000D1671023542772496A480131DA00A218AF
:1058E0000131EF54106050604A1E17781E000133DA
:1058F000DBB2002FF2D1644A1370152B7DD815222C
:105900000320D21AD2B2E918904201D301F023F950
:10591000014201D001F01FF91622D21AD6B2B20804
:1059200090465A48DA00086084464046A21817603C
:1059300057609760D760176157619761D7610128F9
:1059400038D0604648604046176257629762D76217
:10595000176357639763D76302282BD0604688602C
:105960004046176457649764D76417655765976511
:10597000D76503281ED06046C86040461766576644
:105980009766D766176757679767D767042811D058
:1059900060460861802157500431575004315750F8
:1059A0000431575004315750043157500431575087
:1059B000043157500322310091435B18DBB2B142EE
:1059C00018D000212020DA00A218E854116051609C
:1059D0005A1CD2B2162A0DD0A8540233D200A218F3
:1059E000DBB211605160162B04D0E854DB00E318E1
:1059F000196059601623244A13702A4BFF21186836
:105A0000FFF71EFE204B1B781C2B00D9C3E01C2285
:105A10000320D21AD2B2E918904201D301F078F8EB
:105A2000014201D001F074F81D22D21AD0B28208CE
:105A30009146164E4F460E60B4460026DA00A21874
:105A4000166056609660D660166156619661D661A2
:105A5000012F00D17EE067464F604F4616625662C6
:105A60009662D662166356639663D663022F71D030
:105A70001AE0C0462020000064630220B4630220C4
:105A800064FF0310FCFCFCFC3CE3032020202020EE
:105A9000606302208988884058B40120EC1B0120F3
:105AA00054FF03103466022067468F604F46166429
:105AB00056649664D664166556659665D665032F5A
:105AC00048D06746CF604F46166656669666D666DD
:105AD000166756679667D667042F3BD067460F61F7
